:100000003CC000000C94190B0C944C0B0C94170B77
:100010000C94170B0C94170B0C94170B0C94820C6C
:100020000C94170B0C94170B0C94170B0C94850B5A
:100030000C94170B0C94170B0C94170B0C94170BB8
:100040000C94170B0C94170B0C94170B0C94170BA8
:100050000C94170B0C94170B0C94170B0C94170B98
:100060000C94170B0C94170B0100010C80010C0170
:100070001A0019F5011A013C800011241FBECFEFB0
:10008000D8E0DEBFCDBFE8E6F0E040E017C0B591B4
:10009000A59135912591059107FD0CC0959185910C
:1000A000EF01F92FE82F05900D92A217B307D9F7AA
:1000B000FE0104C01D92A217B307E1F7E937F40768
:0A00C00031F703D000C0F894FFCF21
:1000CA002F923F924F925F926F927F928F929F925E
:1000DA00AF92BF92CF92DF92EF92FF920F931F934C
:1000EA00CF93DF93CDB7DEB7CA56D1090FB6F894CE
:1000FA00DEBF0FBECDBF2DB73EB7AB963FAF2EAF1B
:10010A00AB9787E690E0F7D222E533E040E050E093
:10011A0062E573E080E090E0ADD24ED284E190E0F7
:10012A00F9D282ED99E1A0E0AF939F938F9330D2F9
:10013A00CE01C196F7D1CE010196F4D18AE0882E7C
:10014A0087ED982E83EAA82E8CE3B82EC12CD12CE9
:10015A00760100E010E028E432E440E050E060E29A
:10016A0071E4CE01C196D8D000E010E028E432E470
:10017A0040E050E060E271E4CE010196CDD00F90EC
:10018A000F900F908DB79EB7805C9A4D0FB6F8947A
:10019A009EBF0FBE8DBFADB7BEB71196A996BFAFB2
:1001AA00AEAFA99700E010E005C0003DB7E01B071D
:1001BA000CF08DC007D2892BC1F31DD23ED22B0180
:1001CA003C019B01AC0168E570EA8BE091E4DDD06B
:1001DA00AB01BC01CE01C196DDD04B015C01BAD2A4
:1001EA00D1D2A5966CAF7DAF8EAF9FAFA5979B017D
:1001FA00AC0168E570EA8BE091E4C7D0AB01BC01C1
:10020A00CE010196C7D06B017C01D9D2F0D2A69655
:10021A006FAFA697A7967FAFA797382E292E9F93E1
:10022A008F93A796BFADA797BF93A6962FADA69714
:10023A002F9389EE99E1A0E0AF939F938F93A8D172
:10024A003CE1309FF001319FF00D1124A9968EAD4B
:10025A009FADA997E80FF91FA6969FADA697908321
:10026A00A796AFADA797A1833282238288E590EA49
:10027A00ABE0B1E484839583A683B7834086518635
:10028A006286738684869586A686B786808B918BCE
:10029A00A28BB38BA5968CAD9DADAEADBFADA59728
:1002AA00848B958BA68BB78BC08ED18EE28EF38E04
:1002BA000F5F1F4FADB7BEB717960FB6F894BEBF04
:1002CA000FBEADBF003DB7E01B070CF473CF80E053
:1002DA0090E0AB962EAD3FADAB970FB6F8943EBF0C
:1002EA000FBE2DBFC659DF4F0FB6F894DEBF0FBE43
:1002FA00CDBFDF91CF911F910F91FF90EF90DF90CB
:10030A00CF90BF90AF909F908F907F906F905F90AB
:08031A004F903F902F900895D1
:100322008F929F92AF92BF92CF92DF92EF92FF9203
:100332000F931F93CF93DF931F92CDB7DEB7FC01CC
:100342008FB78983F894448B558B668B778B008F9C
:10035200118F228F338FC48ED58EE68EF78E80A2B8
:1003620091A2A2A2B3A2CE010196A0E8FC018491BF
:10037200A7FD80818FBF0F90DF91CF911F910F91C9
:10038200FF90EF90DF90CF90BF90AF909F908F90B3
:020392000895CC
:0A0394005058BB27AA275CD24AC2CA
:10039E004F925F926F927F928F929F92AF92BF9287
:1003AE00CF92DF92EF92FF92CF93DF93CDB7DEB76E
:1003BE002A970FB6F894DEBF0FBECDBF9A878987F6
:1003CE0049835A836B837C83DC015496CD90DD90F8
:1003DE00ED90FC9057971C964D905D906D907C9093
:1003EE001F97A301920169817A818B819C81CBDF5A
:1003FE004B015C01E985FA85208D318D428D538D3F
:10040E00C701B60183D29B01AC01BEDF9B01AC01DB
:10041E00A985BA8590966D917D918D919C919397BA
:10042E0075D26D837E838F83988729813A814B8124
:10043E005C81C301B201A8DF9B01AC016D817E819D
:10044E008F81988561D22B013C01A7019601E98528
:10045E00FA85648D758D868D978D58D2A501940180
:10046E0053D2A501940190DF9B01AC01C301B201EF
:10047E008BDFA701960148D2A985BA8594962D9156
:10048E003D914D915C9197977FDF4B015C01E98522
:10049E00FA85C0A4D1A4E2A4F3A49601A7013CD28C
:1004AE001816A4F0A985BA859C96CC909C979D961B
:1004BE00DC909D979E96EC909E979F96FC90960151
:1004CE00A701B401C50124D287FF27C089819A8173
:1004DE00AB81BC81E985FA8584879587A687B78726
:1004EE00C601D70184A395A3A6A3B7A3B601C701DE
:1004FE002A960FB6F894DEBF0FBECDBFDF91CF9117
:10050E00FF90EF90DF90CF90BF90AF909F908F9025
:10051E007F906F905F904F90089564017501D6CFD4
:10052E00FC01148A158A168A178A108E118E128E65
:10053E00138E10A211A212A213A210821182128285
:10054E0013821482158216821782108611861286E5
:10055E0013861486158616861786108A118A128AB5
:10056E00138A14A215A216A217A280E090E0A8EC9E
:10057E00B2E480A791A7A2A7B3A780E090E0A8EC71
:0C058E00B2EC84A795A7A6A7B7A7089514
:10059A00A0E0B0E0E2EDF2E007C49E012B5F3F4F1E
:1005AA00F9014191519161919F01809104019091CA
:0805BA000501B8D1E2E0DDC348
:0C05C20003D4389A399A3A9A3B9A08956B
:1005CE00CF93DF931F92CDB7DEB78FB78983F894A1
:1005DE0080913201909133019E012F5F3F4F40E891
:1005EE00F901249147FD20812FBF0F90DF91CF910C
:0205FE0008955E
:10060000CF93DF931F92CDB7DEB78FB78983F8946E
:10061000109238011092390110923A0110923B0168
:100620001092B2001092330110923201CE01019665
:10063000A0E8FC018491A7FD80818FBF0F90DF911E
:04064000CF910895B9
:10064400CF93DF931F92CDB7DEB78FB78983F8942A
:1006540060912601709127018091280190912901D0
:100664009E012F5F3F4F40E8F901249147FD20810F
:0A0674002FBF0F90DF91CF91089582
:10067E00CF93DF931F92CDB7DEB7609310017093C7
:10068E001101809312019093130120930C0130936A
:10069E000D0140930E0150930F01D3D38FB7898371
:1006AE00F89495D37093310160933001ADD370936C
:1006BE002F0160932E01CE010196A0E8FC018491DA
:1006CE00A7FD80818FBFF89484E08093890081EE2E
:1006DE0080938800E1E8F0E080818C608083EFE613
:1006EE00F0E080818260808378940F90DF91CF91CB
:0206FE0008955D
:100700009093C5008093C40088E18093C1008EE07F
:0E0710008093C20062EE7CE08BED9CE0A8C3FB
:10071E00F89410923301109232019093010180935C
:10072E000001E1EBF0E010821092B20089EF8093AD
:10073E00B300A0EBB0E08C9186608C9380818460D6
:10074E008083E0E7F0E08081826080837894089572
:10075E00CF92DF92EF92FF926B017C0120E030E0AE
:10076E00A901D6D087FD09C0C6D3C701B601C6D32D
:10077E00FF90EF90DF90CF90DCC34098419AF5CF79
:10078E00CF93DF931F92CDB7DEB78FB78983F894DF
:10079E006091220170912301809124019091250195
:1007AE009E012F5F3F4F40E8F901249147FD2081C4
:0A07BE002FBF0F90DF91CF91089537
:1007C800CF92DF92EF92FF926B017C0120E030E044
:1007D800A901A1D087FD09C0C1D3C701B60191D332
:1007E800FF90EF90DF90CF90BCC34298439AF5CF2B
:1007F800CF93DF931F92CDB7DEB78FB78983F89475
:1008080060913401709135018091360190913701E2
:100818009E012F5F3F4F40E8F901249147FD208159
:0A0828002FBF0F90DF91CF910895CC
:10083200092E0394000C11F4882352F0BB0F40F4EC
:10084200BF2B11F460FF04C06F5F7F4F8F4F9F4F2C
:02085200089507
:100854000DC0D4D330F099D320F031F49F3F11F47C
:100864001EF49AC30EF4E095E7FB99C3E92F9DD3D8
:1008740080F3BA17620773078407950718F071F4B9
:100884009EF5B5C30EF4E0950B2EBA2FA02D0B01E7
:10089400B90190010C01CA01A0011124FF27591BC1
:1008A40099F0593F50F4503E68F11A16F040A22FC7
:1008B400232F342F4427585FF3CF46953795279538
:1008C400A795F0405395C9F77EF41F16BA0B620B37
:1008D400730B840BBAF09150A1F0FF0FBB1F661F7E
:1008E400771F881FC2F70EC0BA0F621F731F841FC1
:1008F40048F4879577956795B795F7959E3F08F0E7
:10090400B3CF9395880F08F09927EE0F97958795A5
:02091400089544
:040916007BD38CCF34
:04091A00DBD38ACFD2
:08091E0040D408F481E00895C3
:080926003CD408F48FEF0895A2
:10092E002F923F924F926F927F928F929F92AF92A1
:10093E00BF92CF92DF92EF92FF920F931F93CF93BE
:10094E00DF93CDB7DEB762970FB6F894DEBF0FBE5A
:10095E00CDBF6C013A01862E7901FC0110861782FB
:10096E00848181FFDAC19E012F5F3F4F3D872C8727
:10097E00C901A0E8888B998BAA8B9FE3992EF3016E
:10098E00849187FC8081882309F4C3C1482D93018B
:10099E002F5F3F4F4F4F853219F03901842E0AC019
:1009AE00F901849147FD808192E0690E711C811CD2
:1009BE00853221F4B60190E010D4E1CFB12C00E0E5
:1009CE0010E01032A0F48B3269F030F4803259F01E
:1009DE00833269F410612CC08D3239F0803339F4D2
:1009EE00116026C01260146023C0186021C017FD6C
:1009FE0029C090ED980F9A3078F416FF06C0AAE041
:100A0E00BA9E900D1124B92E13C0EAE00E9F900DE0
:100A1E001124092F10620CC08E3221F416FD79C1FB
:100A2E00106406C08C3611F4106802C0883651F47A
:100A3E00F301849187FC8081FFEF6F1A7F0A8F0A82
:100A4E008111BFCF982F9F7D9554933028F424E0C9
:100A5E00E20EF11C99820FC0833631F0833791F08C
:100A6E00833509F05FC026C0F70180818983970125
:100A7E002E5F3F4F7901288839884A88AA24A3948B
:100A8E00B12C16C0A7014D5F5F4F5F874E87F701F0
:100A9E0020803180428016FF03C04B2D50E002C0F3
:100AAE004FEF5FEF842DB10132D45C01EE84FF84F1
:100ABE001F7717C097012D5F3F4F3F872E87F70196
:100ACE0020803180428016FF03C04B2D50E002C0C3
:100ADE004FEF5FEF842DB1011AD45C011068EE84E4
:100AEE00FF8413FD1BC0802F90E0A816B906B0F44A
:100AFE00B60180E290E071D30150F5CFF1018491FF
:100B0E0047FC8081FFEF2F1A3F0A4F0AB60190E093
:100B1E0064D30111015021E0A21AB108A114B1044D
:100B2E0069F7EEC0843611F0893669F5F70117FFC3
:100B3E0008C0608171818281938197012C5F3F4F44
:100B4E0009C060817181072E000C880B990B9701EB
:100B5E002E5F3F4F79011F76312E97FF0AC0909579
:100B6E008095709561957F4F8F4F9F4F312F3068D5
:100B7E00332E2AE030E0AE014F5F5F4F6AD3482E2E
:100B8E004C85441A49C0853729F41F7EA12E2AE0D0
:100B9E0030E025C0512F597FA52E8F36C1F018F4A5
:100BAE00883579F0B6C0803719F0883721F0B1C09A
:100BBE00852F8061A82EA4FE0DC09A2D9460A92EBB
:100BCE0009C014FF0AC0A52FA660AA2E06C028E0F1
:100BDE0030E005C020E130E002C020E132E0F70154
:100BEE00A7FE08C06081718182819381A7014C5F4D
:100BFE005F4F07C06081718180E090E0A7014E5F7A
:100C0E005F4F7A01AE014F5F5F4F23D3482E5C8555
:100C1E00451A8A2D8F77382E36FE0DC0932D9E7F66
:100C2E00A92E4B1458F434FE0BC032FC09C0A32D70
:100C3E00AE7EAA2E05C0142DA32C03C0142D01C008
:100C4E001B2DA4FE0EC0FE01E40DF11D808180332C
:100C5E0021F4EA2DE97EAE2E08C0A2FE05C01E5F6D
:100C6E0004C08A2D867809F01F5FA3FC10C0A0FE79
:100C7E0006C0101780F4040DB02EB11A0DC0101757
:100C8E0058F4B60180E290E0A8D21F5FF8CF10179B
:100C9E0018F4011B02C0B42C00E0A4FE0FC0B60174
:100CAE0080E390E09AD2A2FE16C0A1FC03C088E7B2
:100CBE0090E002C088E590E0B6010CC08A2D8678DF
:100CCE0051F0A1FE02C08BE201C080E2A7FC8DE2D2
:100CDE00B60190E082D24B1430F4B60180E390E07E
:100CEE007CD2BA94F8CF4A94E1E0F0E0EC0FFD1F0D
:100CFE00E40DF11D8081B60190E06FD24110F3CF6B
:100D0E00002309F43CCEB60180E290E066D2015099
:100D1E00F7CFF6018781908502C08FEF9FEF629625
:100D2E000FB6F894DEBF0FBECDBFDF91CF911F91EE
:100D3E000F91FF90EF90DF90CF90BF90AF909F906C
:0E0D4E008F907F906F904F903F902F90089560
:100D5C002A88398848885F846E847D848C849B843F
:100D6C00AA84B984C884DF80EE80FD800C811B814D
:100D7C00AA81B981CE0FD11D0FB6F894DEBF0FBE7C
:060D8C00CDBFED0108954A
:100D92002F923F924F925F926F927F928F929F9289
:100DA200AF92BF92CF92DF92EF92FF920F931F9377
:100DB200CF93DF93CDB7DEB7CA1BDB0B0FB6F89428
:080DC200DEBF0FBECDBF099496
:100DCA00569A559A84B5816A84BD85B5816085BD78
:020DDA0008957A
:100DDC00CF93DF931F92CDB7DEB78FB78983F8948B
:100DEC0060911A0170911B0180911C0190911D0161
:100DFC009E012F5F3F4F40E8F901249147FD208170
:0A0E0C002FBF0F90DF91CF910895E2
:100E1600CF93DF931F92CDB7DEB78FB78983F89450
:100E260060911E0170911F01809120019091210116
:100E36009E012F5F3F4F40E8F901249147FD208135
:0A0E46002FBF0F90DF91CF910895A8
:100E5000F89452985A9A53985B9AE9E6F0E08081A8
:0E0E60008F6080838DB383608DBB789408957E
:100E6E000F931F93CF93DF93009731F461157105A4
:100E7E0019F480E090E03AC08B01EC016FE070E075
:100E8E0081E090E05FD2FC01892B99F380E88483A6
:100E9E000115110569F01487038781E88483A2E0A8
:100EAE00B1E08D919C911197892B11F4ED93FC93E8
:100EBE002097D9F0D287C187848182608483A2E093
:100ECE00B1E012968D919C911397892B71F4139624
:100EDE00FC93EE93129714968D919C911597892BF6
:100EEE0021F41596FC93EE931497CF01DF91CF91D9
:060EFE001F910F91089501
:060F0400409A4198089597
:100F0A00CF92DF92EF92FF926B017C0120E030E0FA
:100F1A00A90100DD87FD07C0C701B601FF90EF9068
:100F2A00DF90CF900895C701B6019058FF90EF90D7
:060F3A00DF90CF90089546
:100F400020E030E048EC52E4E8DC20E030E040EF24
:100F500052E4E1DC20E030E047E053E41CDA13D255
:040F600067BD0895CC
:060F6400429A4398089533
:100F6A0020E030E048EC52E4D3DC20E030E040EF0F
:100F7A0052E4CCDC20E030E047E053E407DAFED16B
:040F8A0068BD0895A1
:0E0F8E0000240A941216130614060506089590
:060F9C009FEF80EC0895B8
:0C0FA20097F99F6780E870E060E0089518
:100FAE0057FD9058440F551F59F05F3F71F047950C
:100FBE00880F97FB991F61F09F3F79F087950895F1
:100FCE00121613061406551FF2CF4695F1DF08C010
:100FDE00161617061806991FF1CF8695710561052D
:040FEE0008940895C6
:0E0FF200E894BB2766277727CB0197F908956F
:0E10000000240A94161617061806090608950D
:10100E000AC0F7DF28F0BCDF18F0952309F0C2CF35
:10101E00BECF1124E8CFC4DFA0F3959FD1F3950F77
:10102E0050E0551F629FF001729FBB27F00DB11D5E
:10103E00639FAA27F00DB11DAA1F649F6627B00DEE
:10104E00A11D661F829F2227B00DA11D621F739FD7
:10105E00B00DA11D621F839FA00D611D221F749FE5
:10106E003327A00D611D231F849F600D211D822F2C
:10107E00762F6A2F11249F5750408AF0E1F0882373
:10108E004AF0EE0FFF1FBB1F661F771F881F915080
:10109E005040A9F79E3F510570F07CCFA4CF5F3F23
:1010AE00ECF3983EDCF3869577956795B795F795B3
:1010BE00E7959F5FC1F7FE2B880F911D969587953B
:0410CE0097F90895F1
:1010D2000BC05CDF40F093DF30F021F45F3F19F08A
:1010E2005FCF511186CF59CF61DF98F39923C9F3AE
:1010F2005523B1F3951B550BBB27AA27621773071C
:10110200840738F09F5F5F4F220F331F441FAA1FCF
:10111200A9F333D00E2E3AF0E0E830D0915050408F
:10112200E695001CCAF729D0FE2F27D0660F771F3D
:10113200881FBB1F261737074807AB07B0E809F01F
:10114200BB0B802DBF01FF2793585F4F2AF09E3FB4
:10115200510568F025CF4DCF5F3FECF3983EDCF3AD
:10116200869577956795B795F7959F5FC9F7880F2D
:10117200911D9695879597F90895E1E0660F771F7F
:10118200881FBB1F621773078407BA0720F0621B10
:0E119200730B840BBA0BEE1F88F7E0950895DF
:1011A000990F0008550FAA0BE0E8FEEF1616170678
:1011B000E807F907C0F012161306E407F50798F0E0
:1011C000621B730B840B950B39F40A2661F0232BF9
:1011D000242B252B21F408950A2609F4A140A69575
:0811E0008FEF811D811D0895B0
:1011E8000F931F93CF93DF93FB01248121FD03C04D
:1011F8008FEF9FEF2CC022FF16C0478150852581B5
:1012080036814217530744F4A081B1819D012F5FB5
:101218003F4F318320838C93278130852F5F3F4F49
:101228003087278314C08B01EC01FB010184F28510
:10123800E02D0995892BE1F6D80117968D919C919F
:101248001897019618969C938E931797CE01DF9165
:08125800CF911F910F91089541
:10126000FA01AA27283051F1203181F1E8946F93D7
:101270006E7F6E5F7F4F8F4F9F4FAF4FB1E03ED07D
:10128000B4E03CD0670F781F891F9A1FA11D680F1B
:10129000791F8A1F911DA11D6A0F711D811D911D4E
:1012A000A11D20D009F468943F912AE0269F1124C3
:1012B0003019305D3193DEF6CF010895462F477027
:1012C000405D4193B3E00FD0C9F7F6CF462F4F7082
:1012D000405D4A3318F0495D31FD4052419302D0E0
:1012E000A9F7EACFB4E0A695979587957795679586
:1012F000BA95C9F700976105710508959B01AC0186
:101300000A2E06945795479537952795BA95C9F7AC
:0C131000620F731F841F951FA01D08951D
:10131C00CF92DF92EF926B01E82EA82FCB014115F3
:10132C00510531F48C199D09EF90DF90CF90089501
:10133C00FC012491A7FD20812223A1F30196A11D7C
:06134C0041505109ECCFF5
:101352000F931F93CF93DF93869F8001879F100D7A
:10136200969F100D1124C80140D0EC01009721F086
:10137200A80160E070E032D0CE01DF91CF911F91E1
:041382000F9108952A
:101386001BDE88F09F5790F0B92F9927B751A0F030
:10139600D1F0660F771F881F991F1AF0BA95C9F703
:1013A60012C0B13081F022DEB1E008951FCE672F62
:1013B600782F8827B85F39F0B93FCCF386957795B3
:1013C6006795B395D9F73EF490958095709561959C
:0813D6007F4F8F4F9F4F0895D8
:0E13DE00DC0101C06D9341505040E0F70895CE
:1013EC000F931F93CF93DF938230910510F482E01B
:1013FC0090E0E0910A01F0910B0120E030E0A0E0D8
:10140C00B0E0309719F14081518102811381481766
:10141C005907C8F08417950769F4109731F01296A4
:10142C000C93129713961C9327C000930A011093E8
:10143C000B0122C02115310519F04217530718F47E
:10144C009A01BD01EF01DF01F801DBCF2115310558
:10145C00F9F0281B390B2430310580F48A819B81EB
:10146C006115710521F0FB019383828304C0909375
:10147C000B0180930A01FE01329644C0FE01E20F7B
:10148C00F31F8193919322503109398328833AC0F9
:10149C002091080130910901232B41F42091160170
:1014AC003091170130930901209308012091140108
:1014BC00309115012115310541F42DB73EB74091FE
:1014CC00180150911901241B350BE0910801F09182
:1014DC000901E217F307A0F42E1B3F0B281739075D
:1014EC0078F0AC014E5F5F4F2417350748F04E0F74
:1014FC005F1F50930901409308018193919302C09F
:10150C00E0E0F0E0CF01DF91CF911F910F910895B2
:10151C00CF93DF93009709F481C0FC0132971382BB
:10152C001282A0910A01B0910B01109781F42081D5
:10153C003181820F931F20910801309109012817E6
:10154C00390751F5F0930901E093080167C0ED01EB
:10155C0020E030E0CE17DF0740F44A815B819E012A
:10156C0041155105F1F0EA01F5CFD383C2834081D7
:10157C005181840F951FC817D90759F48881998117
:10158C00840F951F0296918380838A819B8193831C
:10159C0082832115310529F4F0930B01E0930A01A4
:1015AC003DC0E901FB83EA8349915991C40FD51FD2
:1015BC00EC17FD0761F480819181840F951F0296D1
:1015CC00E90199838883828193819B838A83E0E0FC
:1015DC00F0E012968D919C911397009719F0FD01F4
:1015EC00DC01F7CF8D919C9111979D012E5F3F4FA0
:1015FC00820F931F20910801309109012817390798
:10160C0069F4309729F410920B0110920A0102C070
:10161C0013821282B0930901A0930801DF91CF913C
:02162C0008951F
:04162E000C94000018
:101632001F920F920FB60F9211248F939F93AF9325
:10164200BF934C9B1CC080911E0190911F01A091E1
:101652002001B09121010196A11DB11D80931E01AF
:1016620090931F01A0932001B0932101BF91AF91EC
:101672009F918F910F900FBE0F901F9018958091A0
:101682001E0190911F01A0912001B09121010197AB
:06169200A109B109E3CF3C
:101698001F920F920FB60F9211248F939F93AF93BF
:1016A800BF9389B190E0880F892F881F990B892BE8
:1016B800E1F080911A0190911B01A0911C01B09159
:1016C8001D010196A11DB11D80931A0190931B0164
:1016D800A0931C01B0931D01BF91AF919F918F9171
:1016E8000F900FBE0F901F90189580911A0190913E
:1016F8001B01A0911C01B0911D010197A109B1091D
:02170800E3CF2D
:10170A001F920F920FB60F921124CF92DF92EF928F
:10171A00FF922F933F934F935F936F937F938F9390
:10172A009F93AF93BF93CF93DF93EF93FF938091F0
:10173A0030019091310190932D0180932C0149DB66
:10174A0070933101609330016091300170913101E1
:10175A00C0912C01D0912D01072E000C880B990BFA
:10176A0091D06B017C01BE01DD0F880B990B8AD0E9
:10177A009B01AC01C701B6010E94CA012BED3FE0F3
:10178A0049EC50E4C3D86B017C0160910C01709163
:10179A000D0180910E0190910F0174D02AE037ED6E
:1017AA0043EA5CE3B3D89B01AC01C701B601B0D8E8
:1017BA006093220170932301809324019093250161
:1017CA0080912E0190912F0190932B0180932A01F1
:1017DA001DDB70932F0160932E0160912E01709191
:1017EA002F01C0912A01D0912B01072E000C880BE2
:1017FA00990B48D06B017C01BE01DD0F880B990B58
:10180A0041D09B01AC01C701B6010E94CA012BED70
:10181A003FE049EC50E47AD86B017C0160911001F9
:10182A007091110180911201909113012BD02AE03D
:10183A0037ED43EA5CE36AD89B01AC01C701B60104
:10184A0067D86093260170932701809328019093AB
:10185A002901FF91EF91DF91CF91BF91AF919F91B4
:10186A008F917F916F915F914F913F912F91FF904F
:10187A00EF90DF90CF900F900FBE0F901F901895AA
:10188A00E89409C097FB3EF4909580957095619510
:10189A007F4F8F4F9F4F9923A9F0F92F96E9BB27C6
:1018AA009395F695879577956795B795F111F8CF42
:1018BA00FAF4BB0F11F460FF1BC06F5F7F4F8F4FAD
:1018CA009F4F16C0882311F096E911C0772321F0A3
:1018DA009EE8872F762F05C0662371F096E8862F3B
:1018EA0070E060E02AF09A95660F771F881FDAF792
:0A18FA00880F9695879597F90895D9
:101904001F920F920FB60F9211244F935F936F9310
:101914007F938F939F93AF93BF9380913401909162
:101924003501A0913601B09137010196A11DB11D79
:101934008093340190933501A0933601B09337011D
:101944008091380190913901A0913A01B0913B0105
:101954000196A11DB11D8093380190933901A09384
:101964003A01B0933B0140913801509139016091A3
:101974003A0170913B018091000190910101A0E036
:10198400B0E0481759076A077B0730F081E090E020
:101994009093330180933201BF91AF919F918F91C6
:1019A4007F916F915F914F910F900FBE0F901F9099
:0219B400189584
:0E19B6009091C00095FFFCCF8093C60008956D
:0E19C4008091C00087FFFCCF8091C60008957F
:1019D2005374617274696E67206170706C696361BF
:1019E20074696F6E0A0D0074696D653A20256C7515
:0319F2000A0D00DB
:0419F5005203000099
:0419F9005203000095
:0619FD0000003C01200087
:00000001FF
