:100000000C943D000C9468060C94A3060C9488088C
:100010000C9488080C9488080C9488080C94880820
:100020000C9488080C9488080C9488080C94880810
:100030000C9488080C9488080C9488080C94880800
:100040000C9488080C9488080C9488080C948808F0
:100050000C9488080C9488080C9488080C948808E0
:100060000C9488080C9488080100010A80010A0198
:100070001000111401100114800011241FBECFEFD5
:10008000D8E0DEBFCDBFE8E6F0E040E017C0B591B4
:10009000A59135912591059107FD0CC0959185910C
:1000A000EF01F92FE82F05900D92A217B307D9F7AA
:1000B000FE0104C01D92A217B307E1F7E937F40768
:0E00C00031F70E94A4050C946500F894FFCF60
:1000CE005374617274696E67206170706C696361DC
:0700DE0074696F6E0A0D004A
:0500E50025640A0D0076
:1000EA002F923F924F926F927F928F929F92AF92EE
:1000FA00BF92CF92DF92EF92FF920F931F93CF930B
:10010A00DF93CDB7DEB762970FB6F894DEBF0FBEA6
:10011A00CDBF6C013A01862E7901FC011086178247
:10012A00848181FFE7C19E012F5F3F4F3D872C8766
:10013A00C901A0E8888B998BAA8B9FE3992EF301BA
:10014A00849187FC8081882309F4D0C1482D9301CA
:10015A002F5F3F4F4F4F853219F03901842E0AC065
:10016A00F901849147FD808192E0690E711C811C1E
:10017A00853229F4B60190E00E942C06E0CFB12C1A
:10018A0000E010E01032A0F48B3269F030F48032D3
:10019A0059F0833269F410612CC08D3239F0803302
:1001AA0039F4116026C01260146023C0186021C09F
:1001BA0017FD29C090ED980F9A3078F416FF06C003
:1001CA00AAE0BA9E900D1124B92E13C0EAE00E9F40
:1001DA00900D1124092F10620CC08E3221F416FDE5
:1001EA0085C1106406C08C3611F4106802C08836C6
:1001FA0051F4F301849187FC8081FFEF6F1A7F0A23
:10020A008F0A8111BFCF982F9F7D9554933028F480
:10021A0024E0E20EF11C99820FC0833631F0833755
:10022A0091F0833509F063C027C0F7018081898383
:10023A0097012E5F3F4F7901288839884A88AA2476
:10024A00A394B12C17C0A7014D5F5F4F5F874E87FC
:10025A00F70120803180428016FF03C04B2D50E009
:10026A0002C04FEF5FEF842DB1010E948F075C013E
:10027A00EE84FF841F7718C097012D5F3F4F3F8799
:10028A002E87F70120803180428016FF03C04B2D54
:10029A0050E002C04FEF5FEF842DB1010E948F073B
:1002AA005C011068EE84FF8413FD1DC0802F90E06E
:1002BA00A816B906C0F4B60180E290E00E942C06A6
:1002CA000150F4CFF101849147FC8081FFEF2F1A8E
:1002DA003F0A4F0AB60190E00E942C060111015014
:1002EA0021E0A21AB108A114B10461F7F5C084365D
:1002FA0011F0893671F5F70117FF08C06081718125
:10030A008281938197012C5F3F4F09C0608171817F
:10031A00072E000C880B990B97012E5F3F4F79012E
:10032A001F76312E97FF0AC090958095709561953A
:10033A007F4F8F4F9F4F312F3068332E2AE030E0A6
:10034A00AE014F5F5F4F0E94FA04482E4C85441A53
:10035A004AC0853729F41F7EA12E2AE030E025C045
:10036A00512F597FA52E8F36C1F018F4883579F0B0
:10037A00BDC0803719F0883721F0B8C0852F806159
:10038A00A82EA4FE0DC09A2D9460A92E09C014FFB0
:10039A000AC0A52FA660AA2E06C028E030E005C034
:1003AA0020E130E002C020E132E0F701A7FE08C0F8
:1003BA006081718182819381A7014C5F5F4F07C081
:1003CA006081718180E090E0A7014E5F5F4F7A0102
:1003DA00AE014F5F5F4F0E94FA04482E5C85451AB2
:1003EA008A2D8F77382E36FE0DC0932D9E7FA92E2B
:1003FA004B1458F434FE0BC032FC09C0A32DAE7E58
:10040A00AA2E05C0142DA32C03C0142D01C01B2D28
:10041A00A4FE0EC0FE01E40DF11D8081803321F49B
:10042A00EA2DE97EAE2E08C0A2FE05C01E5F04C0FA
:10043A008A2D867809F01F5FA3FC11C0A0FE06C0B2
:10044A00101788F4040DB02EB11A0EC0101760F4FC
:10045A00B60180E290E00E942C061F5FF7CF1017CA
:10046A0018F4011B02C0B42C00E0A4FE10C0B601AF
:10047A0080E390E00E942C06A2FE17C0A1FC03C0F4
:10048A0088E790E002C088E590E0B6010CC08A2DAA
:10049A00867859F0A1FE02C08BE201C080E2A7FC77
:1004AA008DE2B60190E00E942C064B1438F4B60196
:1004BA0080E390E00E942C06BA94F7CF4A94E1E0D8
:1004CA00F0E0EC0FFD1FE40DF11D8081B60190E014
:1004DA000E942C064110F2CF002309F430CEB60157
:1004EA0080E290E00E942C060150F6CFF601878147
:1004FA00908502C08FEF9FEF62960FB6F894DEBF29
:10050A000FBECDBFDF91CF911F910F91FF90EF905A
:10051A00DF90CF90BF90AF909F908F907F906F9019
:08052A004F903F902F900895BF
:100532000F931F93CF93DF938230910510F482E0E3
:1005420090E0E0910801F091090120E030E0A0E0A4
:10055200B0E0309719F1408151810281138148172F
:100562005907C8F08417950769F4109731F012966D
:100572000C93129713961C9327C0009308011093B3
:10058200090122C02115310519F04217530718F449
:100592009A01BD01EF01DF01F801DBCF2115310521
:1005A200F9F0281B390B2430310580F48A819B81B4
:1005B2006115710521F0FB019383828304C090933E
:1005C200090180930801FE01329644C0FE01E20F48
:1005D200F31F8193919322503109398328833AC0C2
:1005E2002091060130910701232B41F420910C0147
:1005F20030910D01309307012093060120910A01E9
:1006020030910B012115310541F42DB73EB74091D0
:100612000E0150910F01241B350BE0910601F09160
:100622000701E217F307A0F42E1B3F0B2817390727
:1006320078F0AC014E5F5F4F2417350748F04E0F3C
:100642005F1F50930701409306018193919302C06B
:10065200E0E0F0E0CF01DF91CF911F910F9108957B
:10066200CF93DF93009709F481C0FC013297138284
:100672001282A0910801B0910901109781F42081A2
:100682003181820F931F20910601309107012817B3
:10069200390751F5F0930701E093060167C0ED01B8
:1006A20020E030E0CE17DF0740F44A815B819E01F3
:1006B20041155105F1F0EA01F5CFD383C2834081A0
:1006C2005181840F951FC817D90759F488819981E0
:1006D200840F951F0296918380838A819B819383E5
:1006E20082832115310529F4F0930901E093080171
:1006F2003DC0E901FB83EA8349915991C40FD51F9B
:10070200EC17FD0761F480819181840F951F029699
:10071200E90199838883828193819B838A83E0E0C4
:10072200F0E012968D919C911397009719F0FD01BC
:10073200DC01F7CF8D919C9111979D012E5F3F4F68
:10074200820F931F20910601309107012817390764
:1007520069F4309729F4109209011092080102C03D
:1007620013821282B0930701A0930601DF91CF9109
:020772000895E8
:1007740010C00E94620858F00E945B0840F029F4FF
:100784005F3F29F00C94770851110C946A080C947B
:1007940085080E94350768F39923B1F3552391F333
:1007A400951B550BBB27AA2762177307840738F0DC
:1007B4009F5F5F4F220F331F441FAA1FA9F335D039
:1007C4000E2E3AF0E0E832D091505040E695001CED
:1007D400CAF72BD0FE2F29D0660F771F881FBB1FA7
:1007E400261737074807AB07B0E809F0BB0B802D85
:1007F400BF01FF2793585F4F3AF09E3F510578F0B1
:100804000C9477080C946A085F3FE4F3983ED4F3A1
:10081400869577956795B795F7959F5FC9F7880F84
:10082400911D9695879597F90895E1E0660F771FD6
:10083400881FBB1F621773078407BA0720F0621B67
:0E084400730B840BBA0BEE1F88F7E095089536
:100852000FC00E945B0838F00E94620820F09523C6
:1008620011F00C9477080C94850811240C946A08F2
:100872000E94350770F3959FC1F3950F50E0551F05
:10088200629FF001729FBB27F00DB11D639FAA27E3
:10089200F00DB11DAA1F649F6627B00DA11D661F32
:1008A200829F2227B00DA11D621F739FB00DA11D53
:1008B200621F839FA00D611D221F749F3327A00D0D
:1008C200611D231F849F600D211D822F762F6A2FA9
:1008D20011249F5750409AF0F1F088234AF0EE0F0E
:1008E200FF1FBB1F661F771F881F91505040A9F73B
:1008F2009E3F510580F00C9477080C946A085F3F84
:10090200E4F3983ED4F3869577956795B795F79576
:10091200E7959F5FC1F7FE2B880F911D96958795EE
:0409220097F90895A4
:1009260011C00E945B0838F00E94620820F039F47A
:100936009F3F19F426F40C9485080EF4E095E7FB26
:100946000C947708E92F0E94350758F3BA17620707
:1009560073078407950720F079F4A6F50C946908C7
:100966000EF4E0950B2EBA2FA02D0B01B9019001C4
:100976000C01CA01A0011124FF27591B99F0593F08
:1009860050F4503E68F11A16F040A22F232F342F50
:100996004427585FF3CF469537952795A795F0409E
:1009A6005395C9F77EF41F16BA0B620B730B840BB3
:1009B600BAF09150A1F0FF0FBB1F661F771F881F6B
:1009C600C2F70EC0BA0F621F731F841F48F48795C3
:1009D60077956795B795F7959E3F08F0B0CF9395B5
:0E09E600880F08F09927EE0F979587950895D2
:1009F400FA01AA27283051F1203181F1E8946F934C
:100A04006E7F6E5F7F4F8F4F9F4FAF4FB1E03ED0F1
:100A1400B4E03CD0670F781F891F9A1FA11D680F8F
:100A2400791F8A1F911DA11D6A0F711D811D911DC2
:100A3400A11D20D009F468943F912AE0269F112437
:100A44003019305D3193DEF6CF010895462F47709B
:100A5400405D4193B3E00FD0C9F7F6CF462F4F70F6
:100A6400405D4A3318F0495D31FD4052419302D054
:100A7400A9F7EACFB4E0A6959795879577956795FA
:100A8400BA95C9F700976105710508959B01AC01FA
:100A94000A2E06945795479537952795BA95C9F721
:0C0AA400620F731F841F951FA01D089592
:100AB0000F931F93CF93DF93009731F46115710566
:100AC00019F480E090E03BC08B01EC016FE070E036
:100AD00081E090E00E945707FC01892B91F380E8A8
:100AE00084830115110569F01487038781E88483E5
:100AF000A0E0B1E08D919C911197892B11F4ED93B9
:100B0000FC932097D9F0D287C18784818260848347
:100B1000A0E0B1E012968D919C911397892B71F40E
:100B20001396FC93EE93129714968D919C911597C2
:100B3000892B21F41596FC93EE931497CF01DF9146
:080B4000CF911F910F91089560
:100B480087E690E00E9408080E94DC070E943908A6
:100B58008EEC90E0A0E0AF939F938F930E94C5071F
:100B680060E070E088EC92E40E940D070F900F900F
:100B78000F90C0E0D0E013C0BE010D2E000C880B12
:100B8800990B0E94F1050E94F2072FEF81EE94E085
:100B9800215080409040E1F700C000002196C53602
:100BA800D10554F3C4E6D0E013C0BE010D2E000CED
:100BB800880B990B0E94F1050E94F2072FEF81EE36
:100BC80094E0215080409040E1F700C00000219758
:060BD800DD235CF7CECF27
:100BDE00E89409C097FB3EF49095809570956195C9
:100BEE007F4F8F4F9F4F9923A9F0F92F96E9BB277F
:100BFE009395F695879577956795B795F111F8CFFB
:100C0E00FAF4BB0F11F460FF1BC06F5F7F4F8F4F65
:100C1E009F4F16C0882311F096E911C0772321F05B
:100C2E009EE8872F762F05C0662371F096E8862FF3
:100C3E0070E060E02AF09A95660F771F881FDAF74A
:0A0C4E00880F9695879597F9089591
:100C58000F931F93CF93DF93FB01248121FD03C0E2
:100C68008FEF9FEF2CC022FF16C04781508525814A
:100C780036814217530744F4A081B1819D012F5F4B
:100C88003F4F318320838C93278130852F5F3F4FDF
:100C98003087278314C08B01EC01FB010184F285A6
:100CA800E02D0995892BE1F6D80117968D919C9135
:100CB8001897019618969C938E931797CE01DF91FB
:080CC800CF911F910F910895D7
:100CD0001F920F920FB60F9211242F933F934F93B1
:100CE0005F936F937F938F939F93AF93BF93EF9394
:100CF000FF9384E090E00E942A08892B51F08091B4
:100D000012019091130101969093130180931201A7
:100D100009C08091120190911301019790931301E2
:100D200080931201FF91EF91BF91AF919F918F91AD
:100D30007F916F915F914F913F912F910F900FBED7
:060D40000F901F901895B2
:100D46001F920F920FB60F9211242F933F934F933A
:100D56005F936F937F938F939F93AF93BF93EF931D
:100D6600FF9387E090E00E942A08892B51F080913A
:100D76001001909111010196909311018093100139
:100D860009C0809110019091110101979093110172
:100D960080931001FF91EF91BF91AF919F918F9139
:100DA6007F916F915F914F913F912F910F900FBE61
:060DB6000F901F9018953C
:100DBC000E943D0788F09F5798F0B92F9927B7519B
:100DCC00B0F0E1F0660F771F881F991F1AF0BA95E3
:100DDC00C9F714C0B13091F00E946908B1E00895D0
:100DEC000C946908672F782F8827B85F39F0B93FC2
:100DFC00CCF3869577956795B395D9F73EF4909596
:0E0E0C008095709561957F4F8F4F9F4F089591
:100E1A00CF9320E030E048EC52E40E947D0820E0C5
:100E2A0030E040EF52E40E94810820E030E047E0E1
:100E3A0053E40E9455080E94DE06C62F1F926F9344
:100E4A0085EE90E0A0E0AF939F938F930E94C50731
:100E5A00C8BD0F900F900F900F900F90CF910895EB
:100E6A0057FD9058440F551F59F05F3F71F0479551
:100E7A00880F97FB991F61F09F3F79F08795089536
:100E8A00121613061406551FF2CF4695F1DF08C055
:100E9A00161617061806991FF1CF86957105610572
:040EAA00089408950B
:100EAE000F931F93CF93DF93869F8001879F100D23
:100EBE00969F100D1124C8010E949902EC01009713
:100ECE0029F0A80160E070E00E947008CE01DF9169
:080EDE00CF911F910F910895BF
:100EE6002F923F924F925F926F927F928F929F9234
:100EF600AF92BF92CF92DF92EF92FF920F931F9322
:100F0600CF93DF93CDB7DEB7CA1BDB0B0FB6F894D2
:080F1600DEBF0FBECDBF099440
:100F1E00CF92DF92EF926B01E82EA82FCB014115F5
:100F2E00510531F48C199D09EF90DF90CF90089503
:100F3E00FC012491A7FD20812223A1F30196A11D7E
:060F4E0041505109ECCFF7
:100F54002A88398848885F846E847D848C849B8445
:100F6400AA84B984C884DF80EE80FD800C811B8153
:100F7400AA81B981CE0FD11D0FB6F894DEBF0FBE82
:060F8400CDBFED01089550
:100F8A00A0E0B0E0EBECF7E00C9483079E012B5F46
:100F9A003F4FF9014191519161919F018091020165
:0E0FAA00909103010E947500E2E00C94BA07DA
:100FB8008AB18B7F8AB98BB184608BB98AB1877FFC
:100FC8008AB98BB188608BB9E9E6F0E080818F60DF
:0C0FD80080838DB383608DBB78940895F6
:100FE40020E030E048EC52E40E947D0820E030E04C
:100FF40040EF52E40E94810820E030E047E053E4EF
:0C1004000E9455080E94DE0667BD08959A
:101010009093C5008093C40088E18093C1008EE066
:101020008093C2006DE478E086E498E00E94580561
:02103000089521
:10103200092E0394000C11F4882352F0BB0F40F4E4
:10104200BF2B11F460FF04C06F5F7F4F8F4F9F4F24
:021052000895FF
:1010540029B130E002C0359527958A95E2F7C90198
:0E1064008170992720FF02C081E090E008957E
:101072008AB180648AB98AB180628AB984B5816A88
:0A10820084BD85B5816085BD089529
:0E108C009091C00095FFFCCF8093C6000895A0
:0E109A008091C0008823E4F78091C60008957D
:0E10A8005058BB27AA270E9493040C941908E5
:0E10B60000240A941616170618060906089557
:0E10C40000240A941216130614060506089559
:0E10D200E894BB2766277727CB0197F908958E
:0E10E000DC0101C06D9341505040E0F70895CF
:0C10EE0097F99F6780E870E060E00895CB
:0810FA000E94BA030C941908CE
:081102000E9429040C94190855
:06110A009FEF80EC089548
:041110000C9400003B
:06111400000014012000A0
:00000001FF
