:100000000C94C0000C94E70A0C94360B0C9443102B
:100010000C9443100C9443100C9443100C941A0C41
:100020000C9443100C9443100C9443100C94FA0756
:100030000C9443100C9443100C9443100C944310F4
:100040000C9443100C9443100C9443100C944310E4
:100050000C9443100C9443100C9443100C944310D4
:100060000C9443100C9443100100010C80010C010E
:100070001200208A0112011A80011A012200209028
:1000800001220138800000407A10F35A00A0724E1D
:1000900018090010A5D4E80000E87648170000E42D
:1000A0000B54020000CA9A3B000000E1F505000075
:1000B00080969800000040420F000000A0860100DA
:1000C0000000102700000000E803000000006400AA
:1000D000000000000A000000000001000000000015
:1000E0002C76D888DC674F0823DFC1DFAE59E1B139
:1000F000B796E5E3E453C63AE651997696E8E6C248
:100100008426EB898C9B62ED407C6FFCEFBC9C9F4E
:1001100040F2BAA56FA5F490055A2AF75C936B6C70
:10012000F9676DC11BFCE0E40D47FEF520E6B50064
:10013000D0ED902E0300943577050080841E0800D2
:1001400000204E0A000000C80C333333330F986E82
:1001500012831141EF8D2114893BE65516CFFEE63F
:10016000DB18D1844B381BF77C1D901DA4BBE42405
:10017000203284725E228100C9F124ECA1E53D2782
:1001800011241FBECFEFD8E0DEBFCDBFE8E6F0E020
:1001900040E017C0B591A59135912591059107FDD6
:1001A0000CC095918591EF01F92FE82F05900D92E4
:1001B000A217B307D9F7FE0104C01D92A217B30717
:1001C000E1F7E538F40731F70E94C4080C94E80021
:0401D000F894FFCFD1
:1001D4005374617274696E67206170706C696361D5
:1001E40074696F6E0A0D006C3A2025660920723A14
:0D01F4002025660920753A2025660A0D00B9
:08020100696E66006E616E007B
:10020A00A4E1B0E0EBE0F1E00C94D00E6C011A012D
:10021A00462E5901FC0110861782848181FF62C330
:10022A00CE0101969D878C87A0E88A8B9B8BAC8B2D
:10023A00F101849147FC8081882309F44FC3442D3E
:10024A0091012F5F3F4F4F4F853219F01901442E0C
:10025A000AC0F901849147FD808192E0290E311C80
:10026A00411C853249F4B60190E00E94DB0CBF863E
:10027A00AE86AE84BF84DCCF10E0F12C00E0003201
:10028A00A0F48B3269F030F4803259F0833269F489
:10029A0000612CC08D3239F0803339F4016026C0F8
:1002AA000260046023C0086021C007FD29C090EDE8
:1002BA00980F9A3078F406FF06C0AAE01A9F900DAC
:1002CA001124192F13C0EAE0FE9E900D1124F92E75
:1002DA0000620CC08E3221F406FD00C3006406C021
:1002EA008C3611F4006802C0883651F4F101849109
:1002FA0047FC8081FFEF2F1A3F0A4F0A8111BFCFB7
:10030A009BEB980F933018F40061805E06C09BE95E
:10031A00980F933008F066C10F7E06FF16E00F7340
:10032A00702E853621F4202F2064722E08C086365E
:10033A0021F4802F8068782E02C01111115077FEA7
:10034A0007C01C3350F4EE24E394E10E27E00BC0FF
:10035A00183038F027E017E005C027E06CE3E62EF6
:10036A0002C0212FE12CF5013496FF87EE87F501B3
:10037A0060817181828193810E2DAE014F5F5F4F43
:10038A000E9422075C01598050FE02C053FE06C03B
:10039A0071FC06C072FE06C000E205C00DE203C091
:1003AA000BE201C000E0852D8C7019F0011173C2B7
:1003BA00BEC277FE0FC0EA0C54FE04C08A818133A4
:1003CA0009F4EA941E1474F528E02E1578F538E03D
:1003DA00E32E2CC076FC2AC0812F90E08A159B055B
:1003EA009CF08CEFA8168FEFB80674F0972D9068E2
:1003FA00792E0AC0E2E0F0E0EC0FFD1FE10FF11DDB
:10040A008081803319F411501111F4CF77FE0EC098
:10041A00EE24E394E10E812F90E0A816B9062CF49D
:10042A001A1904C0EE24E39401C010E077FE06C056
:10043A001A141B0434F4C501019605C085E090E046
:10044A0002C081E090E001110196112331F0212FC1
:10045A0030E02F5F3F4F820F931F2F2D30E082171E
:10046A00930714F4F81A01C0F12C872D897049F406
:10047A00FF2039F0B60180E290E00E94DB0CFA948A
:10048A00F7CF002329F0B601802F90E00E94DB0C01
:10049A0073FC09C0FF2039F0B60180E390E00E94A6
:1004AA00DB0CFA94F7CF77FE49C03501B7FE02C0DC
:1004BA00612C712CC5018619970988248394912C83
:1004CA008C0E9D1E880E991EF501EE19F109F98B05
:1004DA00E88B012F10E0119501951109FFEF6F16B6
:1004EA007F0629F4B6018EE290E00E94DB0CA61486
:1004FA00B70444F088899989861597051CF4F40194
:10050A00818101C080E3F1E06F1A71082FEF821A2E
:10051A00920A601671062CF0B60190E00E94DB0C7C
:10052A00DDCFA614B70439F49A81963318F49533BB
:10053A0011F454FE81E3B60190E051C08A818133FF
:10054A0019F0952D9F7E592EB60190E00E94DB0C82
:10055A00111105C074FC1CC085E690E01BC0B601F1
:10056A008EE290E00E94DB0C02E0010F82E011E0D3
:10057A00180FE1E0F0E0EC0FFD1FE80FF11D80819C
:10058A00B60190E00E94DB0C812F1013F0CFE2CF6E
:10059A0085E490E0B6010E94DB0CB7FC05C0A1140B
:1005AA00B10439F454FE05C0B194A194B1088DE2A6
:1005BA0001C08BE2B60190E00E94DB0C80E3EAE026
:1005CA00AE16B1042CF08F5FAAE0AA1AB108F7CFD1
:1005DA00B60190E00E94DB0CB601C501C0960E94EC
:1005EA00DB0C72C1833631F0833791F0833509F021
:1005FA005DC024C0C50102969F878E87F501808160
:10060A0089836A887B888C88AA24A394B12C14C015
:10061A00C50103969F878E87F5016080718082806D
:10062A0006FF03C0412F50E002C04FEF5FEF882D55
:10063A00B3010E94230F5C010F7715C0C501039611
:10064A009F878E87F50160807180828006FF03C0D4
:10065A00412F50E002C04FEF5FEF882DB3010E9497
:10066A00230F5C01006803FD1DC08F2D90E0A816C2
:10067A00B906C0F4B60180E290E00E94DB0CFA945D
:10068A00F4CFF301849187FC8081FFEF6F1A7F0A10
:10069A008F0AB60190E00E94DB0CF110FA9421E077
:1006AA00A21AB108A114B10461F70EC1843611F07F
:1006BA00893679F5C50107FF09C004969F878E8799
:1006CA00F50160817181828193810AC002969F87B8
:1006DA008E87F50160817181072E000C880B990BBA
:1006EA000F76E02E97FF0AC09095809570956195D8
:1006FA007F4F8F4F9F4FF02FF068EF2E2AE030E0A8
:10070A00AE014F5F5F4F0E94890AA82E2C85A21A5C
:10071A004BC0853729F40F7EE02E2AE030E025C051
:10072A00902F997FE92E8F36C1F018F4883579F029
:10073A00D5C0803719F0883721F0D0C0A92FA06121
:10074A00EA2EE4FE0DC0EE2DE460EE2E09C004FF91
:10075A000AC0F92FF660EF2E06C028E030E005C087
:10076A0020E130E002C020E132E0C501E7FE09C025
:10077A0004969F878E87F5016081718182819381BA
:10078A0008C002969F878E87F5016081718180E09B
:10079A0090E0AE014F5F5F4F0E94890AA82EFC8548
:1007AA00AF1A2E2D2F77E22EE6FE0BC00E2D0E7FEE
:1007BA00A11650F4E4FE0AC0E2FC08C00E2D0E7E1B
:1007CA0005C0BA2C0E2D03C0BA2C01C0B12E04FFED
:1007DA000DC0FE01EA0DF11D8081803311F4097EFE
:1007EA0009C002FF06C0B394B39404C0802F867870
:1007FA0009F0B39403FD11C000FF06C0BF1488F4CA
:10080A00FA0C1F2D1B190EC0BF1460F4B60180E24A
:10081A0090E00E94DB0CB394F7CFBF1418F4FB18D6
:10082A0002C01A2DF12C04FF10C0B60180E390E03B
:10083A000E94DB0C02FF17C001FD03C088E790E0AD
:10084A0002C088E590E0B6010CC0802F867859F086
:10085A0001FF02C08BE201C080E207FD8DE2B60112
:10086A0090E00E94DB0CA11638F4B60180E390E018
:10087A000E94DB0C1150F7CFAA94E1E0F0E0EC0FF4
:10088A00FD1FEA0DF11D8081B60190E00E94DB0C8C
:10089A00A110F2CF19C0F4E0FF1580F584E0F81A30
:1008AA0073FE23C001112BC053FE2FC055E0852EC5
:1008BA0052E0952E50E0A52E072D0071F401849187
:1008CA00A7FC8081811128C0FF2009F4D2CCB6018F
:1008DA0080E290E00E94DB0CFA94F6CFF601878161
:1008EA0090852CC08FEF9FEF29C0B60180E290E07F
:1008FA000E94DB0CFA94F110F8CFD4CFF12CB60198
:10090A00802F90E00E94DB0CCFCF41E0842E42E0A2
:10091A00942E40E0A42ED0CF01118052B60190E06F
:10092A000E94DB0CFFEF8F1A9F0AAF0AC7CF23E0A2
:10093A002F1510F483E0B3CFF12CB6CF6496E2E121
:04094A000C94080FF2
:10094E004F925F926F927F928F929F92AF92BF92D1
:10095E00CF92DF92EF92FF92CF93DF93CDB7DEB7B8
:10096E0062970FB6F894DEBF0FBECDBF9A8B898B00
:10097E006A017B01DC0154966D917D918D919C9164
:10098E005797A70196010E943C106D877E878F872F
:10099E00988BA989BA8958962D913D914D915C916C
:1009AE005B9729833A834B835C8350962D913D91BF
:1009BE004D915C91539729873A874B875C87698164
:1009CE007A818B819C810E943C102B013C01E9892C
:1009DE00FA89848C958CA68CB78C248535854685B2
:1009EE005785C701B6010E9405109B01AC01C501D8
:1009FE00B4010E943C10A989BA8990962D913D911F
:100A0E004D915C9193972D833E834F8358870E941F
:100A1E0038104B015C01A30192016D857E858F8597
:100A2E0098890E9406109B01AC01C501B4010E9479
:100A3E000610B62EA72E982E892EE989FA8974A053
:100A4E0065A056A047A0272D362D452D542D0E946A
:100A5E0033101816ECF520E030E0A90169817A8197
:100A6E008B819C810E942E10882309F483C02981DA
:100A7E003A814B815C816D817E818F8198850E9448
:100A8E00381069837A838B839C832B2D3A2D492DC5
:100A9E00582D672D762D852D942D0E9405109B01C6
:100AAE00AC0169817A818B819C810E943C109B01F3
:100ABE00AC0169857A858B859C850E940610A98973
:100ACE00BA8950966D937D938D939C93539752C094
:100ADE00E989FA8970A461A452A443A4272D362D66
:100AEE00452D542D6B2D7A2D892D982D0E942E106B
:100AFE008823E4F520E030E0A90169817A818B81B9
:100B0E009C810E942E108823A9F129813A814B8164
:100B1E005C816D817E818F8198850E9438106983FA
:100B2E007A838B839C832B2D3A2D492D582D672D3F
:100B3E00762D852D942D0E9405109B01AC016981A7
:100B4E007A818B819C810E943C109B01AC0169854E
:100B5E007A858B859C850E940610A989BA89509644
:100B6E006D937D938D939C93539704C07B2C6A2C2D
:100B7E00592C482C2D813E814F815885C701B601D5
:100B8E000E943C109B01AC01E989FA896089718948
:100B9E00828993890E940610A989BA8950966D930D
:100BAE007D938D939C935397FD01C486D586E686DF
:100BBE00F78680819181A281B38184839583A683F8
:100BCE00B783672D762D852D942D62960FB6F894EA
:100BDE00DEBF0FBECDBFDF91CF91FF90EF90DF90C4
:100BEE00CF90BF90AF909F908F907F906F905F90BF
:040BFE004F90089577
:100C02000F931F93CF93DF938230910510F482E00C
:100C120090E0E0910A01F0910B0120E030E0A0E0C9
:100C2200B0E0309719F14081518102811381481758
:100C32005907C8F08417950769F4109731F0129696
:100C42000C93129713961C9327C000930A011093DA
:100C52000B0122C02115310519F04217530718F470
:100C62009A01BD01EF01DF01F801DBCF211531054A
:100C7200F9F0281B390B2430310580F48A819B81DD
:100C82006115710521F0FB019383828304C0909367
:100C92000B0180930A01FE01329644C0FE01E20F6D
:100CA200F31F8193919322503109398328833AC0EB
:100CB2002091080130910901232B41F420910E016A
:100CC20030910F01309309012093080120910C010A
:100CD20030910D012115310541F42DB73EB74091F8
:100CE200100150911101241B350BE0910801F09184
:100CF2000901E217F307A0F42E1B3F0B281739074F
:100D020078F0AC014E5F5F4F2417350748F04E0F65
:100D12005F1F50930901409308018193919302C090
:100D2200E0E0F0E0CF01DF91CF911F910F910895A4
:100D3200CF93DF93009709F481C0FC0132971382AD
:100D42001282A0910A01B0910B01109781F42081C7
:100D52003181820F931F20910801309109012817D8
:100D6200390751F5F0930901E093080167C0ED01DD
:100D720020E030E0CE17DF0740F44A815B819E011C
:100D820041155105F1F0EA01F5CFD383C2834081C9
:100D92005181840F951FC817D90759F48881998109
:100DA200840F951F0296918380838A819B8193830E
:100DB20082832115310529F4F0930B01E0930A0196
:100DC2003DC0E901FB83EA8349915991C40FD51FC4
:100DD200EC17FD0761F480819181840F951F0296C3
:100DE200E90199838883828193819B838A83E0E0EE
:100DF200F0E012968D919C911397009719F0FD01E6
:100E0200DC01F7CF8D919C9111979D012E5F3F4F91
:100E1200820F931F20910801309109012817390789
:100E220069F4309729F410920B0110920A0102C062
:100E320013821282B0930901A0930801DF91CF912E
:020E4200089511
:100E4400283008F027E03327DA01990F311D87FD98
:100E5400916000966105710539F432602E5F3D930F
:100E640030E32A95E1F708959F3F30F0803871050B
:100E7400610509F03C5F3C5F3D93913008F0806868
:100E8400911DDF93CF931F930F93FF92EF92192F2E
:100E9400987F9695E92F96959695E90FFF27E0524E
:100EA400FF4F99273327EE24FF24A701E70105907C
:100EB4000894079428F4360FE71EF81E491F511DA5
:100EC400660F771F881F991F0694A1F70590079452
:100ED40028F4E70EF81E491F561FC11D770F881FFF
:100EE400991F661F0694A1F70590079428F4F80E3D
:100EF400491F561FC71FD11D880F991F661F771FD3
:100F04000694A1F70590079420F4490F561FC71FB4
:100F1400D81F990F661F771F881F0694A9F784911D
:100F24001095177041F0D695C79557954795F79446
:100F3400E7941A95C1F7E6E8F0E0689415901591E6
:100F440035916591959105907FE27395E118F10AC9
:100F5400430B560BC90BD009C0F7E10CF11E431F1C
:100F6400561FC91FD01D7EF4703311F48A95E6CF45
:100F7400E894015030F0080F0AF40027021708F42F
:100F8400202F2395022F7A3328F079E37D932A9535
:100F9400E9F710C07D932A9589F60694979567958D
:100FA400379517951794E118F10A430B560BC90BA3
:100FB400D00998F023957E9173957A3308F070E305
:100FC4007C932013B8F77E9170617D9330F0839504
:100FD40071E37D9370E32A95E1F71124EF90FF907C
:100FE4000F911F91CF91DF91992787FD90950895D7
:100FF4001F920F920FB60F921124CF92DF92EF92AD
:10100400FF922F933F934F935F936F937F938F93AD
:101014009F93AF93BF93EF93FF938091340190918B
:10102400350190933101809330010E94E60D709355
:101034003501609334016091340170913501072EBC
:10104400000C880B990B0E94A00C6B017C01609131
:10105400300170913101072E000C880B990B0E940E
:10106400A00C9B01AC01C701B6010E9405102BED39
:101074003FE049EC50E40E943C106B017C0160911C
:101084001A0170911B0180911C0190911D010E9415
:10109400A00C2AE037ED43EA5CE30E943C109B017C
:1010A400AC01C701B6010E9438106093220170930D
:1010B4002301809324019093250180913201909122
:1010C400330190932F0180932E010E94C30D7093DE
:1010D4003301609332016091320170913301072E24
:1010E400000C880B990B0E94A00C6B017C01609191
:1010F4002E0170912F01072E000C880B990B0E9472
:10110400A00C9B01AC01C701B6010E9405102BED98
:101114003FE049EC50E40E943C106B017C0160917B
:101124001E0170911F0180912001909121010E9464
:10113400A00C2AE037ED43EA5CE30E943C109B01DB
:10114400AC01C701B6010E94381060932601709368
:1011540027018093280190932901FF91EF91BF917A
:10116400AF919F918F917F916F915F914F913F913B
:101174002F91FF90EF90DF90CF900F900FBE0F90C4
:041184001F9018950B
:10118800CF93DF93CDB7DEB7AC970FB6F894DEBF39
:101198000FBECDBF87E690E00E949A0F22E533E0AC
:1011A80040E050E062E573E080E090E00E94D10BFF
:1011B8000E94DB0F82E390E00E94920E84ED91E0A2
:1011C800A0E0AF939F938F930E946D0FCE0101967D
:1011D8000E94170D0F2EFDEC8F2EFCEC9F2EFCE4C9
:1011E800AF2EFDE3BF2EF02DC12CD12C760100E0EF
:1011F80010E028E432E440E050E060E271E4CE011F
:1012080001960E94600C0F900F900F900E94B20EF2
:10121800892BE1F30E94780D0E942C0E162F072FC0
:10122800F82EE92E762F272F302F4F2D5E2D62E9CD
:101238007AE086E09FE30E940510AB01BC01CE0175
:1012480001960E94A704D62EC72EB82EA92E0E945A
:10125800710E0E94090EAF92BF92CF92DF929F93B8
:101268008F937F936F93EF92FF920F931F938BEE61
:1012780091E0A0E0AF939F938F930E946D0F0FB6FC
:0A128800F894DEBF0FBECDBFC1CF4A
:1012920010C00E94131058F00E940C1040F029F464
:1012A2005F3F29F00C94281051110C941B100C94E0
:1012B20040100E944F0E68F39923B1F3552391F326
:1012C200951B550BBB27AA2762177307840738F0B3
:1012D2009F5F5F4F220F331F441FAA1FA9F335D010
:1012E2000E2E3AF0E0E832D091505040E695001CC4
:1012F200CAF72BD0FE2F29D0660F771F881FBB1F7E
:10130200261737074807AB07B0E809F0BB0B802D5B
:10131200BF01FF2793585F4F3AF09E3F510578F087
:101322000C9428100C941B105F3FE4F3983ED4F306
:10133200869577956795B795F7959F5FC9F7880F5B
:10134200911D9695879597F90895E1E0660F771FAD
:10135200881FBB1F621773078407BA0720F0621B3E
:0E136200730B840BBA0BEE1F88F7E09508950D
:101370000FC00E940C1038F00E94131020F095232B
:1013800011F00C9428100C94401011240C941B1094
:101390000E944F0E70F3959FC1F3950F50E0551FBB
:1013A000629FF001729FBB27F00DB11D639FAA27BA
:1013B000F00DB11DAA1F649F6627B00DA11D661F09
:1013C000829F2227B00DA11D621F739FB00DA11D2A
:1013D000621F839FA00D611D221F749F3327A00DE4
:1013E000611D231F849F600D211D822F762F6A2F80
:1013F00011249F5750409AF0F1F088234AF0EE0FE5
:10140000FF1FBB1F661F771F881F91505040A9F711
:101410009E3F510580F00C9428100C941B105F3FE8
:10142000E4F3983ED4F3869577956795B795F7954D
:10143000E7959F5FC1F7FE2B880F911D96958795C5
:0414400097F908957B
:1014440011C00E940C1038F00E94131020F039F4DF
:101454009F3F19F426F40C9440100EF4E095E7FB3A
:101464000C942810E92F0E944F0E58F3BA17620704
:1014740073078407950720F079F4A6F50C941A10E5
:101484000EF4E0950B2EBA2FA02D0B01B90190019B
:101494000C01CA01A0011124FF27591B99F0593FDF
:1014A40050F4503E68F11A16F040A22F232F342F27
:1014B4004427585FF3CF469537952795A795F04075
:1014C4005395C9F77EF41F16BA0B620B730B840B8A
:1014D400BAF09150A1F0FF0FBB1F661F771F881F42
:1014E400C2F70EC0BA0F621F731F841F48F487959A
:1014F40077956795B795F7959E3F08F0B0CF93958C
:0E150400880F08F09927EE0F979587950895A8
:10151200FA01AA27283051F1203181F1E8946F9322
:101522006E7F6E5F7F4F8F4F9F4FAF4FB1E03ED0C8
:10153200B4E03CD0670F781F891F9A1FA11D680F66
:10154200791F8A1F911DA11D6A0F711D811D911D99
:10155200A11D20D009F468943F912AE0269F11240E
:101562003019305D3193DEF6CF010895462F477072
:10157200405D4193B3E00FD0C9F7F6CF462F4F70CD
:10158200405D4A3318F0495D31FD4052419302D02B
:10159200A9F7EACFB4E0A6959795879577956795D1
:1015A200BA95C9F700976105710508959B01AC01D1
:1015B2000A2E06945795479537952795BA95C9F7F8
:0C15C200620F731F841F951FA01D089569
:1015CE001F920F920FB60F9211242F933F934F93AA
:1015DE005F936F937F938F939F93AF93BF93EF938D
:1015EE00FF9384E090E00E94CC0F892BA1F08091B4
:1015FE00160190911701A0911801B0911901019651
:10160E00A11DB11D8093160190931701A09318018F
:10161E00B093190113C08091160190911701A091FA
:10162E001801B09119010197A109B1098093160112
:10163E0090931701A0931801B0931901FF91EF91A8
:10164E00BF91AF919F918F917F916F915F914F91CC
:0E165E003F912F910F900FBE0F901F90189587
:10166C001F920F920FB60F9211242F933F934F930B
:10167C005F936F937F938F939F93AF93BF93EF93EE
:10168C00FF9387E090E00E94CC0F892BA1F0809112
:10169C00120190911301A0911401B09115010196C2
:1016AC00A11DB11D8093120190931301A0931401FD
:1016BC00B093150113C08091120190911301A09168
:1016CC001401B09115010197A109B1098093120180
:1016DC0090931301A0931401B0931501FF91EF9116
:1016EC00BF91AF919F918F917F916F915F914F912E
:0E16FC003F912F910F900FBE0F901F901895E9
:10170A000F931F93CF93DF93009731F461157105FF
:10171A0019F480E090E03BC08B01EC016FE070E0CF
:10172A0081E090E00E94EC0EFC01892B91F380E8A5
:10173A0084830115110569F01487038781E884837E
:10174A00A2E0B1E08D919C911197892B11F4ED9350
:10175A00FC932097D9F0D287C187848182608483E1
:10176A00A2E0B1E012968D919C911397892B71F4A6
:10177A001396FC93EE93129714968D919C9115975C
:10178A00892B21F41596FC93EE931497CF01DF91E0
:08179A00CF911F910F910895FA
:1017A200CF93DF931F92CDB7DEB760931E01709384
:1017B2001F01809320019093210120931A013093FD
:1017C2001B0140931C0150931D010E94560F8FB7BD
:1017D2008983F89481E00DC00E94E60D7093350173
:1017E200609334010E94C30D709333016093320100
:1017F20080E08111F1CFCE010196A0E8FC01849135
:10180200A7FD80818FBFF89484E08093890081EEE8
:1018120080938800E1E8F0E080818C608083EFE6CD
:10182200F0E080818260808378940F90DF91CF9185
:02183200089517
:101834001F920F920FB60F9211244F935F936F93E1
:101844007F938F939F93AF93BF9380912A0190913D
:101854002B01A0912C01B0912D010196A11DB11D68
:1018640080932A0190932B01A0932C01B0932D0116
:101874008091000190910101A0E0B0E040912A0123
:1018840050912B0160912C0170912D01481759073B
:101894006A077B0730F081E090E0909337018093F2
:1018A4003601BF91AF919F918F917F916F915F911D
:0C18B4004F910F900FBE0F901F901895E1
:1018C0008F929F92AF92BF92CF92DF92EF92FF9250
:1018D0000F931F93CF93DF931F92CDB7DEB7FC0119
:1018E0008FB78983F89481E011C0448B558B668B48
:1018F000778B008F118F228F338FC48ED58EE68E1B
:10190000F78E80A291A2A2A2B3A280E08111EDCFB6
:10191000CE010196A0E8FC018491A7FD80818FBFD4
:101920000F90DF91CF911F910F91FF90EF90DF907B
:0C193000CF90BF90AF909F908F900895D3
:10193C00E89409C097FB3EF490958095709561955D
:10194C007F4F8F4F9F4F9923A9F0F92F96E9BB2713
:10195C009395F695879577956795B795F111F8CF8F
:10196C00FAF4BB0F11F460FF1BC06F5F7F4F8F4FFA
:10197C009F4F16C0882311F096E911C0772321F0F0
:10198C009EE8872F762F05C0662371F096E8862F88
:10199C0070E060E02AF09A95660F771F881FDAF7DF
:0A19AC00880F9695879597F9089526
:1019B6000F931F93CF93DF93FB01248121FD03C077
:1019C6008FEF9FEF2CC022FF16C0478150852581DF
:1019D60036814217530744F4A081B1819D012F5FE0
:1019E6003F4F318320838C93278130852F5F3F4F74
:1019F6003087278314C08B01EC01FB010184F2853B
:101A0600E02D0995892BE1F6D80117968D919C91C9
:101A16001897019618969C938E931797CE01DF918F
:081A2600CF911F910F9108956B
:101A2E00FC01148A158A168A178A108E118E128E50
:101A3E00138E10A211A212A213A210821182128270
:101A4E0013821482158216821782108611861286D0
:101A5E0013861486158616861786108A118A128AA0
:101A6E00138A80E090E0A8ECB2E484A395A3A6A329
:101A7E00B7A380E090E0A8ECB2EC80A791A7A2A754
:041A8E00B3A708955D
:101A92000E94570E88F09F5798F0B92F9927B75197
:101AA200B0F0E1F0660F771F881F991F1AF0BA9500
:101AB200C9F714C0B13091F00E941A10B1E0089534
:101AC2000C941A10672F782F8827B85F39F0B93F26
:101AD200CCF3869577956795B395D9F73EF49095B3
:0E1AE2008095709561957F4F8F4F9F4F0895AF
:101AF000CF93DF931F92CDB7DEB78FB78983F8946A
:101B000081E00FC010922A0110922B0110922C013B
:101B100010922D011092B2001092370110923601EE
:101B200080E08111EFCFCE010196A0E8FC01849105
:0E1B3000A7FD80818FBF0F90DF91CF910895A8
:101B3E00990F0008550FAA0BE0E8FEEF16161706D0
:101B4E00E807F907C0F012161306E407F50798F038
:101B5E00621B730B840B950B39F40A2661F0232B51
:101B6E00242B252B21F408950A2609F4A140A695CD
:081B7E008FEF811D811D089508
:101B8600CF93DF931F92CDB7DEB78FB78983F894D3
:101B960081E009C04091160150911701609118012A
:101BA6007091190180E08111F5CFCE010196A0E870
:101BB600FC018491A7FD80818FBFCB01BA010F90F4
:061BC600DF91CF910895AC
:101BCC00CF93DF931F92CDB7DEB78FB78983F8948D
:101BDC0081E009C0409112015091130160911401F0
:101BEC007091150180E08111F5CFCE010196A0E82E
:101BFC00FC018491A7FD80818FBFCB01BA010F90AE
:061C0C00DF91CF91089565
:101C1200CF93DF931F92CDB7DEB78FB78983F89446
:101C220081E009C040912201509123016091240179
:101C32007091250180E08111F5CFCE010196A0E8D7
:101C4200FC018491A7FD80818FBFCB01BA010F9067
:061C5200DF91CF9108951F
:101C5800CF93DF931F92CDB7DEB78FB78983F89400
:101C680081E009C040912601509127016091280127
:101C78007091290180E08111F5CFCE010196A0E88D
:101C8800FC018491A7FD80818FBFCB01BA010F9021
:061C9800DF91CF910895D9
:101C9E0057FD9058440F551F59F05F3F71F047950F
:101CAE00880F97FB991F61F09F3F79F087950895F4
:101CBE00121613061406551FF2CF4695F1DF08C013
:101CCE00161617061806991FF1CF86957105610530
:041CDE0008940895C9
:101CE200CF92DF92EF92FF926B017C0120E030E015
:101CF200A9010E942E1088232CF480E090E00E941B
:101D0200BC0F04C081E090E00E94BC0FC701B60185
:101D12000E943E0F0E94840FFF90EF90DF90CF90C1
:021D2200089522
:101D2400F894109237011092360190930101809338
:101D34000001E1EBF0E010821092B20089EF809391
:101D4400B300A0EBB0E08C9186608C9380818460BA
:101D54008083E0E7F0E08081826080837894089556
:101D6400CF93DF931F92CDB7DEB78FB78983F894F3
:101D740091E005C0209136013091370190E0911136
:101D8400F9CFCE010196A0E8FC018491A7FD8081E2
:0C1D94008FBFC9010F90DF91CF9108951F
:101DA0002F923F924F925F926F927F928F929F926B
:101DB000AF92BF92CF92DF92EF92FF920F931F9359
:101DC000CF93DF93CDB7DEB7CA1BDB0B0FB6F8940A
:081DD000DEBF0FBECDBF099478
:101DD8000F931F93CF93DF93869F8001879F100DEA
:101DE800969F100D1124C8010E940106EC0100976E
:101DF80029F0A80160E070E00E942110CE01DF9177
:081E0800CF911F910F91089585
:101E10002A88398848885F846E847D848C849B847A
:101E2000AA84B984C884DF80EE80FD800C811B8188
:101E3000AA81B981CE0FD11D0FB6F894DEBF0FBEB7
:061E4000CDBFED01089585
:101E4600CF92DF92EF926B01E82EA82FCB014115BE
:101E5600510531F48C199D09EF90DF90CF900895CC
:101E6600FC012491A7FD20812223A1F30196A11D47
:061E760041505109ECCFC0
:101E7C00CF92DF92EF92FF926B017C0120E030E079
:101E8C00A9010E942E10882324F4C701B601905892
:101E9C0002C0C701B601FF90EF90DF90CF9008957C
:101EAC00F8948AB18B7F8AB98BB184608BB98AB173
:101EBC00877F8AB98BB188608BB9E9E6F0E08081C5
:0E1ECC008F6080838DB383608DBB7894089502
:101EDA00A0E0B0E0E3E7FFE00C94E00E9E012B5F88
:101EEA003F4FF9014191519161919F018091040104
:0E1EFA00909105010E940501E2E00C94180F82
:101F080020E030E048EC52E40E94381020E030E055
:101F180040EF52E40E943C1020E030E047E053E4F8
:0C1F28000E9406100E94490D67BD08953C
:101F34009093C5008093C40088E18093C1008EE033
:101F44008093C2006EEF7FE087EF9FE00E94850BD5
:021F54000895EE
:101F5600092E0394000C11F4882352F0BB0F40F4B1
:101F6600BF2B11F460FF04C06F5F7F4F8F4F9F4FF1
:021F76000895CC
:101F7800019739F488B1816088B988B18D7F88B9B3
:101F8800089588B18E7F88B988B1826088B908952C
:101F980029B130E002C0359527958A95E2F7C90145
:0E1FA8008170992720FF02C081E090E008952B
:101FB6000E94EA0F87B1816087B987B1826087B9CD
:0E1FC60087B1846087B987B1886087B90895B4
:101FD4008AB180648AB98AB180628AB984B5816A17
:0A1FE40084BD85B5816085BD0895B8
:0E1FEE009091C00095FFFCCF8093C60008952F
:0E1FFC008091C0008823E4F78091C60008950C
:0E200A005058BB27AA270E94220A0C94AB0F45
:0E20180000240A9416161706180609060895E5
:0E20260000240A9412161306140605060895E7
:0E203400E894BB2766277727CB0197F908951C
:0E204200DC0101C06D9341505040E0F708955D
:0C20500097F99F6780E870E060E0089559
:0A205C000E949F0D08F481E0089532
:0A2066000E949F0D08F48FEF08950B
:082070000E9449090C94AB0F1A
:082078000E94B8090C94AB0FA3
:062080009FEF80EC0895C3
:042086000C940000B6
:06208A00000038012000F7
:0420900052030000F7
:0420940052030000F3
:00000001FF
