:100000000C943D000C949E040C94D9040C942B0683
:100010000C942B060C942B060C942B060C942B069C
:100020000C942B060C942B060C942B060C942B068C
:100030000C942B060C942B060C942B060C942B067C
:100040000C942B060C942B060C942B060C942B066C
:100050000C942B060C942B060C942B060C942B065C
:100060000C942B060C942B060100010A80010A0156
:1000700010000C5A01100114800011241FBECFEF94
:10008000D8E0DEBFCDBFE8E6F0E040E017C0B591B4
:10009000A59135912591059107FD0CC0959185910C
:1000A000EF01F92FE82F05900D92A217B307D9F7AA
:1000B000FE0104C01D92A217B307E1F7E937F40768
:0E00C00031F70E9414050C946500F894FFCFF0
:1000CE005374617274696E67206170706C696361DC
:0700DE0074696F6E0A0D004A
:1000E6002F923F924F926F927F928F929F92AF92F2
:1000F600BF92CF92DF92EF92FF920F931F93CF930F
:10010600DF93CDB7DEB762970FB6F894DEBF0FBEAA
:10011600CDBF6C013A01862E7901FC01108617824B
:10012600848181FFE7C19E012F5F3F4F3D872C876A
:10013600C901A0E8888B998BAA8B9FE3992EF301BE
:10014600849187FC8081882309F4D0C1482D9301CE
:100156002F5F3F4F4F4F853219F03901842E0AC069
:10016600F901849147FD808192E0690E711C811C22
:10017600853229F4B60190E00E946204E0CFB12CEA
:1001860000E010E01032A0F48B3269F030F48032D7
:1001960059F0833269F410612CC08D3239F0803306
:1001A60039F4116026C01260146023C0186021C0A3
:1001B60017FD29C090ED980F9A3078F416FF06C007
:1001C600AAE0BA9E900D1124B92E13C0EAE00E9F44
:1001D600900D1124092F10620CC08E3221F416FDE9
:1001E60085C1106406C08C3611F4106802C08836CA
:1001F60051F4F301849187FC8081FFEF6F1A7F0A27
:100206008F0A8111BFCF982F9F7D9554933028F484
:1002160024E0E20EF11C99820FC0833631F0833759
:1002260091F0833509F063C027C0F7018081898387
:1002360097012E5F3F4F7901288839884A88AA247A
:10024600A394B12C17C0A7014D5F5F4F5F874E8700
:10025600F70120803180428016FF03C04B2D50E00D
:1002660002C04FEF5FEF842DB1010E9485055C014E
:10027600EE84FF841F7718C097012D5F3F4F3F879D
:100286002E87F70120803180428016FF03C04B2D58
:1002960050E002C04FEF5FEF842DB1010E9485054B
:1002A6005C011068EE84FF8413FD1DC0802F90E072
:1002B600A816B906C0F4B60180E290E00E94620476
:1002C6000150F4CFF101849147FC8081FFEF2F1A92
:1002D6003F0A4F0AB60190E00E94620401110150E4
:1002E60021E0A21AB108A114B10461F7F5C0843661
:1002F60011F0893671F5F70117FF08C06081718129
:100306008281938197012C5F3F4F09C06081718183
:10031600072E000C880B990B97012E5F3F4F790132
:100326001F76312E97FF0AC090958095709561953E
:100336007F4F8F4F9F4F312F3068332E2AE030E0AA
:10034600AE014F5F5F4F0E94B803482E4C85441A9A
:100356004AC0853729F41F7EA12E2AE030E025C049
:10036600512F597FA52E8F36C1F018F4883579F0B4
:10037600BDC0803719F0883721F0B8C0852F80615D
:10038600A82EA4FE0DC09A2D9460A92E09C014FFB4
:100396000AC0A52FA660AA2E06C028E030E005C038
:1003A60020E130E002C020E132E0F701A7FE08C0FC
:1003B6006081718182819381A7014C5F5F4F07C085
:1003C6006081718180E090E0A7014E5F5F4F7A0106
:1003D600AE014F5F5F4F0E94B803482E5C85451AF9
:1003E6008A2D8F77382E36FE0DC0932D9E7FA92E2F
:1003F6004B1458F434FE0BC032FC09C0A32DAE7E5C
:10040600AA2E05C0142DA32C03C0142D01C01B2D2C
:10041600A4FE0EC0FE01E40DF11D8081803321F49F
:10042600EA2DE97EAE2E08C0A2FE05C01E5F04C0FE
:100436008A2D867809F01F5FA3FC11C0A0FE06C0B6
:10044600101788F4040DB02EB11A0EC0101760F400
:10045600B60180E290E00E9462041F5FF7CF10179A
:1004660018F4011B02C0B42C00E0A4FE10C0B601B3
:1004760080E390E00E946204A2FE17C0A1FC03C0C4
:1004860088E790E002C088E590E0B6010CC08A2DAE
:10049600867859F0A1FE02C08BE201C080E2A7FC7B
:1004A6008DE2B60190E00E9462044B1438F4B60166
:1004B60080E390E00E946204BA94F7CF4A94E1E0A8
:1004C600F0E0EC0FFD1FE40DF11D8081B60190E018
:1004D6000E9462044110F2CF002309F430CEB60127
:1004E60080E290E00E9462040150F6CFF601878117
:1004F600908502C08FEF9FEF62960FB6F894DEBF2D
:100506000FBECDBFDF91CF911F910F91FF90EF905E
:10051600DF90CF90BF90AF909F908F907F906F901D
:080526004F903F902F900895C3
:10052E000F931F93CF93DF938230910510F482E0E7
:10053E0090E0E0910801F091090120E030E0A0E0A8
:10054E00B0E0309719F14081518102811381481733
:10055E005907C8F08417950769F4109731F0129671
:10056E000C93129713961C9327C0009308011093B7
:10057E00090122C02115310519F04217530718F44D
:10058E009A01BD01EF01DF01F801DBCF2115310525
:10059E00F9F0281B390B2430310580F48A819B81B8
:1005AE006115710521F0FB019383828304C0909342
:1005BE00090180930801FE01329644C0FE01E20F4C
:1005CE00F31F8193919322503109398328833AC0C6
:1005DE002091060130910701232B41F420910C014B
:1005EE0030910D01309307012093060120910A01ED
:1005FE0030910B012115310541F42DB73EB74091D5
:10060E000E0150910F01241B350BE0910601F09164
:10061E000701E217F307A0F42E1B3F0B281739072B
:10062E0078F0AC014E5F5F4F2417350748F04E0F40
:10063E005F1F50930701409306018193919302C06F
:10064E00E0E0F0E0CF01DF91CF911F910F9108957F
:10065E00CF93DF93009709F481C0FC013297138288
:10066E001282A0910801B0910901109781F42081A6
:10067E003181820F931F20910601309107012817B7
:10068E00390751F5F0930701E093060167C0ED01BC
:10069E0020E030E0CE17DF0740F44A815B819E01F7
:1006AE0041155105F1F0EA01F5CFD383C2834081A4
:1006BE005181840F951FC817D90759F488819981E4
:1006CE00840F951F0296918380838A819B819383E9
:1006DE0082832115310529F4F0930901E093080175
:1006EE003DC0E901FB83EA8349915991C40FD51F9F
:1006FE00EC17FD0761F480819181840F951F02969E
:10070E00E90199838883828193819B838A83E0E0C8
:10071E00F0E012968D919C911397009719F0FD01C0
:10072E00DC01F7CF8D919C9111979D012E5F3F4F6C
:10073E00820F931F20910601309107012817390768
:10074E0069F4309729F4109209011092080102C041
:10075E0013821282B0930701A0930601DF91CF910D
:02076E000895EC
:10077000FA01AA27283051F1203181F1E8946F93D2
:100780006E7F6E5F7F4F8F4F9F4FAF4FB1E03ED078
:10079000B4E03CD0670F781F891F9A1FA11D680F16
:1007A000791F8A1F911DA11D6A0F711D811D911D49
:1007B000A11D20D009F468943F912AE0269F1124BE
:1007C0003019305D3193DEF6CF010895462F477022
:1007D000405D4193B3E00FD0C9F7F6CF462F4F707D
:1007E000405D4A3318F0495D31FD4052419302D0DB
:1007F000A9F7EACFB4E0A695979587957795679581
:10080000BA95C9F700976105710508959B01AC0180
:100810000A2E06945795479537952795BA95C9F7A7
:0C082000620F731F841F951FA01D089518
:10082C000F931F93CF93DF93009731F461157105EC
:10083C0019F480E090E03BC08B01EC016FE070E0BC
:10084C0081E090E00E944D05FC01892B91F380E83A
:10085C0084830115110569F01487038781E884836B
:10086C00A0E0B1E08D919C911197892B11F4ED933F
:10087C00FC932097D9F0D287C187848182608483CE
:10088C00A0E0B1E012968D919C911397892B71F495
:10089C001396FC93EE93129714968D919C91159749
:1008AC00892B21F41596FC93EE931497CF01DF91CD
:0808BC00CF911F910F910895E7
:1008C4000F931F93CF93DF93FB01248121FD03C07A
:1008D4008FEF9FEF2CC022FF16C0478150852581E2
:1008E40036814217530744F4A081B1819D012F5FE3
:1008F4003F4F318320838C93278130852F5F3F4F77
:100904003087278314C08B01EC01FB010184F2853D
:10091400E02D0995892BE1F6D80117968D919C91CC
:100924001897019618969C938E931797CE01DF9192
:08093400CF911F910F9108956E
:10093C001F920F920FB60F9211242F933F934F9348
:10094C005F936F937F938F939F93AF93BF93EF932B
:10095C00FF9384E090E00E94F905892B51F080917F
:10096C00120190911301019690931301809312013F
:10097C0009C080911201909113010197909313017A
:10098C0080931201FF91EF91BF91AF919F918F9145
:10099C007F916F915F914F913F912F910F900FBE6F
:0609AC000F901F9018954A
:1009B2001F920F920FB60F9211242F933F934F93D2
:1009C2005F936F937F938F939F93AF93BF93EF93B5
:1009D200FF9387E090E00E94F905892B51F0809106
:1009E20010019091110101969093110180931001D1
:1009F20009C080911001909111010197909311010A
:100A020080931001FF91EF91BF91AF919F918F91D0
:100A12007F916F915F914F913F912F910F900FBEF8
:060A22000F901F901895D3
:100A280087E690E00E94E8050E94D2050E94080629
:100A38008EEC90E0A0E0AF939F938F930E94BB054C
:100A48000F900F900F90C0E0D0E00DC0CE010E9433
:100A580027062FEF80E792E0215080409040E1F791
:100A680000C000002196C536D10584F3C4E6D0E065
:100A78000DC0CE010E9427062FEF80E792E021509B
:100A880080409040E1F700C000002197DD238CF7FB
:020A9800DACFB3
:100A9A000F931F93CF93DF93869F8001879F100D3B
:100AAA00969F100D1124C8010E949702EC0100972D
:100ABA0029F0A80160E070E00E942006CE01DF91D3
:080ACA00CF911F910F910895D7
:100AD2002F923F924F925F926F927F928F929F924C
:100AE200AF92BF92CF92DF92EF92FF920F931F933A
:100AF200CF93DF93CDB7DEB7CA1BDB0B0FB6F894EB
:080B0200DEBF0FBECDBF099458
:100B0A00CF92DF92EF926B01E82EA82FCB0141150D
:100B1A00510531F48C199D09EF90DF90CF9008951B
:100B2A00FC012491A7FD20812223A1F30196A11D96
:060B3A0041505109ECCF0F
:100B40002A88398848885F846E847D848C849B845D
:100B5000AA84B984C884DF80EE80FD800C811B816B
:100B6000AA81B981CE0FD11D0FB6F894DEBF0FBE9A
:060B7000CDBFED01089568
:100B7600A0E0B0E0E1ECF5E00C9479059E012B5F76
:100B86003F4FF9014191519161919F01809102017D
:0E0B9600909103010E947300E2E00C94B00500
:100BA4008AB18B7F8AB98BB184608BB98AB1877F14
:100BB4008AB98BB188608BB9E9E6F0E080818F60F7
:0C0BC40080838DB383608DBB789408950E
:100BD0009093C5008093C40088E18093C1008EE0AB
:100BE0008093C20069E176E082E196E00E941604FB
:020BF000089566
:100BF20029B130E002C0359527958A95E2F7C901FF
:0E0C02008170992720FF02C081E090E00895E4
:100C10008AB180648AB984B5836884BD85B58160F2
:040C200085BD0895F1
:0E0C24009091C00095FFFCCF8093C60008950C
:0E0C32008091C0008823E4F78091C6000895E9
:0E0C4000DC0101C06D9341505040E0F7089573
:080C4E00880F991F87BD08956E
:040C56000C940000FA
:060C5A000000140120005F
:00000001FF
