:100000000C94BA000C949B080C94EA080C94C00A57
:100010000C94C00A0C94C00A0C94C00A0C944208B8
:100020000C94C00A0C94C00A0C94C00A0C948A0464
:100030000C94C00A0C94C00A0C94C00A0C94C00A18
:100040000C94C00A0C94C00A0C94C00A0C94C00A08
:100050000C94C00A0C94C00A0C94C00A0C94C00AF8
:100060000C94C00A0C94C00A0100010A80010A0124
:10007000120015840112013C800000407A10F35AEE
:1000800000A0724E18090010A5D4E80000E87648D8
:10009000170000E40B54020000CA9A3B000000E184
:1000A000F505000080969800000040420F00000017
:1000B000A08601000000102700000000E8030000F7
:1000C00000006400000000000A00000000000100C1
:1000D000000000002C76D888DC674F0823DFC1DFE2
:1000E000AE59E1B1B796E5E3E453C63AE6519976E5
:1000F00096E8E6C28426EB898C9B62ED407C6FFC1F
:10010000EFBC9C9F40F2BAA56FA5F490055A2AF760
:100110005C936B6CF9676DC11BFCE0E40D47FEF569
:1001200020E6B500D0ED902E0300943577050080D1
:10013000841E080000204E0A000000C80C33333330
:10014000330F986E12831141EF8D2114893BE655D0
:1001500016CFFEE6DB18D1844B381BF77C1D901DB3
:10016000A4BBE424203284725E228100C9F124EC15
:10017000A1E53D2711241FBECFEFD8E0DEBFCDBFE4
:10018000E8E6F0E040E017C0B591A59135912591E2
:10019000059107FD0CC095918591EF01F92FE82F8E
:1001A00005900D92A217B307D9F7FE0104C01D9266
:1001B000A217B307E1F7E937F40731F70E948C0A79
:0801C0000C94E200F894FFCF5B
:0801C800696E66006E616E00B5
:1001D000A4E1B0E0EEEEF0E00C941A0A6C011A0112
:1001E000462E5901FC0110861782848181FF62C36B
:1001F000CE0101969D878C87A0E88A8B9B8BAC8B68
:10020000F101849147FC8081882309F44FC3442D78
:1002100091012F5F3F4F4F4F853219F01901442E46
:100220000AC0F901849147FD808192E0290E311CBA
:10023000411C853249F4B60190E00E947609BF86E0
:10024000AE86AE84BF84DCCF10E0F12C00E000323B
:10025000A0F48B3269F030F4803259F0833269F4C3
:1002600000612CC08D3239F0803339F4016026C032
:100270000260046023C0086021C007FD29C090ED22
:10028000980F9A3078F406FF06C0AAE01A9F900DE6
:100290001124192F13C0EAE0FE9E900D1124F92EAF
:1002A00000620CC08E3221F406FD00C3006406C05B
:1002B0008C3611F4006802C0883651F4F101849143
:1002C00047FC8081FFEF2F1A3F0A4F0A8111BFCFF1
:1002D0009BEB980F933018F40061805E06C09BE999
:1002E000980F933008F066C10F7E06FF16E00F737B
:1002F000702E853621F4202F2064722E08C0863699
:1003000021F4802F8068782E02C01111115077FEE1
:1003100007C01C3350F4EE24E394E10E27E00BC039
:10032000183038F027E017E005C027E06CE3E62E30
:1003300002C0212FE12CF5013496FF87EE87F501ED
:1003400060817181828193810E2DAE014F5F5F4F7D
:100350000E94CC055C01598050FE02C053FE06C0CD
:1003600071FC06C072FE06C000E205C00DE203C0CB
:100370000BE201C000E0852D8C7019F0011173C2F1
:10038000BEC277FE0FC0EA0C54FE04C08A818133DE
:1003900009F4EA941E1474F528E02E1578F538E077
:1003A000E32E2CC076FC2AC0812F90E08A159B0595
:1003B0009CF08CEFA8168FEFB80674F0972D90681C
:1003C000792E0AC0E2E0F0E0EC0FFD1FE10FF11D15
:1003D0008081803319F411501111F4CF77FE0EC0D3
:1003E000EE24E394E10E812F90E0A816B9062CF4D8
:1003F0001A1904C0EE24E39401C010E077FE06C091
:100400001A141B0434F4C501019605C085E090E080
:1004100002C081E090E001110196112331F0212FFB
:1004200030E02F5F3F4F820F931F2F2D30E0821758
:10043000930714F4F81A01C0F12C872D897049F440
:10044000FF2039F0B60180E290E00E947609FA942C
:10045000F7CF002329F0B601802F90E00E947609A3
:1004600073FC09C0FF2039F0B60180E390E00E94E0
:100470007609FA94F7CF77FE49C03501B7FE02C07E
:10048000612C712CC5018619970988248394912CBD
:100490008C0E9D1E880E991EF501EE19F109F98B3F
:1004A000E88B012F10E0119501951109FFEF6F16F0
:1004B0007F0629F4B6018EE290E00E947609A61428
:1004C000B70444F088899989861597051CF4F401CE
:1004D000818101C080E3F1E06F1A71082FEF821A69
:1004E000920A601671062CF0B60190E00E9476091F
:1004F000DDCFA614B70439F49A81963318F49533F6
:1005000011F454FE81E3B60190E051C08A81813339
:1005100019F0952D9F7E592EB60190E00E94760924
:10052000111105C074FC1CC085E690E01BC0B6012B
:100530008EE290E00E94760902E0010F82E011E075
:10054000180FE1E0F0E0EC0FFD1FE80FF11D8081D6
:10055000B60190E00E947609812F1013F0CFE2CF10
:1005600085E490E0B6010E947609B7FC05C0A114AD
:10057000B10439F454FE05C0B194A194B1088DE2E0
:1005800001C08BE2B60190E00E94760980E3EAE0C8
:10059000AE16B1042CF08F5FAAE0AA1AB108F7CF0B
:1005A000B60190E00E947609B601C501C0960E948E
:1005B000760972C1833631F0833791F0833509F0C3
:1005C0005DC024C0C50102969F878E87F50180819A
:1005D00089836A887B888C88AA24A394B12C14C050
:1005E000C50103969F878E87F501608071808280A8
:1005F00006FF03C0412F50E002C04FEF5FEF882D90
:10060000B3010E94510A5C010F7715C0C501039622
:100610009F878E87F50160807180828006FF03C00E
:10062000412F50E002C04FEF5FEF882DB3010E94D1
:10063000510A5C01006803FD1DC08F2D90E0A816D3
:10064000B906C0F4B60180E290E00E947609FA94FF
:10065000F4CFF301849187FC8081FFEF6F1A7F0A4A
:100660008F0AB60190E00E947609F110FA9421E019
:10067000A21AB108A114B10461F70EC1843611F0B9
:10068000893679F5C50107FF09C004969F878E87D3
:10069000F50160817181828193810AC002969F87F2
:1006A0008E87F50160817181072E000C880B990BF4
:1006B0000F76E02E97FF0AC0909580957095619512
:1006C0007F4F8F4F9F4FF02FF068EF2E2AE030E0E2
:1006D000AE014F5F5F4F0E94E407A82E2C85A21A3F
:1006E0004BC0853729F40F7EE02E2AE030E025C08C
:1006F000902F997FE92E8F36C1F018F4883579F064
:10070000D5C0803719F0883721F0D0C0A92FA0615B
:10071000EA2EE4FE0DC0EE2DE460EE2E09C004FFCB
:100720000AC0F92FF660EF2E06C028E030E005C0C1
:1007300020E130E002C020E132E0C501E7FE09C05F
:1007400004969F878E87F5016081718182819381F4
:1007500008C002969F878E87F5016081718180E0D5
:1007600090E0AE014F5F5F4F0E94E407A82EFC852A
:10077000AF1A2E2D2F77E22EE6FE0BC00E2D0E7F28
:10078000A11650F4E4FE0AC0E2FC08C00E2D0E7E55
:1007900005C0BA2C0E2D03C0BA2C01C0B12E04FF27
:1007A0000DC0FE01EA0DF11D8081803311F4097E38
:1007B00009C002FF06C0B394B39404C0802F8678AA
:1007C00009F0B39403FD11C000FF06C0BF1488F404
:1007D000FA0C1F2D1B190EC0BF1460F4B60180E285
:1007E00090E00E947609B394F7CFBF1418F4FB1879
:1007F00002C01A2DF12C04FF10C0B60180E390E076
:100800000E94760902FF17C001FD03C088E790E04F
:1008100002C088E590E0B6010CC0802F867859F0C0
:1008200001FF02C08BE201C080E207FD8DE2B6014C
:1008300090E00E947609A11638F4B60180E390E0BA
:100840000E9476091150F7CFAA94E1E0F0E0EC0F96
:10085000FD1FEA0DF11D8081B60190E00E9476092E
:10086000A110F2CF19C0F4E0FF1580F584E0F81A6A
:1008700073FE23C001112BC053FE2FC05CEC852EEC
:1008800051E0952E50E0A52E072D0071F4018491C2
:10089000A7FC8081811128C0FF2009F4D2CCB601C9
:1008A00080E290E00E947609FA94F6CFF601878103
:1008B00090852CC08FEF9FEF29C0B60180E290E0B9
:1008C0000E947609FA94F110F8CFD4CFF12CB6013A
:1008D000802F90E00E947609CFCF48EC842E41E033
:1008E000942E40E0A42ED0CF01118052B60190E0AA
:1008F0000E947609FFEF8F1A9F0AAF0AC7CF23E045
:100900002F1510F483E0B3CFF12CB6CF6496E2E15B
:040910000C94360A03
:100914001F920F920FB60F921124CF92DF92EF9293
:10092400FF922F933F934F935F936F937F938F9394
:100934009F93AF93BF93EF93FF938091380190916E
:10094400390190933501809334010E94D509709345
:100954003901609338016091380170913901072E93
:10096400000C880B990B0E943B096B017C01609180
:10097400340170913501072E000C880B990B0E94ED
:100984003B099B01AC01C701B6010E94930A2BED00
:100994003FE049EC50E40E94B90A6B017C0160918C
:1009A4000A0170910B0180910C0190910D010E943C
:1009B4003B092AE037ED43EA5CE30E94B90A9B0154
:1009C400AC01C701B6010E94B50A6093220170937D
:1009D4002301809324019093250160912201709159
:1009E400230180912401909125012AE939E949E9FB
:1009F4005EE30E94B90A6B017C0160911A01709157
:100A04001B0180911C0190911D0123E333E343E317
:100A14005FE30E94B90A9B01AC01C701B6010E94C1
:100A2400940A6093120170931301809314019093BC
:100A340015018091120190911301A0911401B091BC
:100A4400150180931A0190931B01A0931C01B0938C
:100A54001D01809136019091370190933301809369
:100A640032010E94B209709337016093360160919C
:100A7400360170913701072E000C880B990B0E94E8
:100A84003B096B017C016091320170913301072EA7
:100A9400000C880B990B0E943B099B01AC01C70118
:100AA400B6010E94930A2BED3FE049EC50E40E940A
:100AB400B90A6B017C0160910E0170910F01809164
:100AC4001001909111010E943B092AE037ED43EA9D
:100AD4005CE30E94B90A9B01AC01C701B6010E9404
:100AE400B50A60932601709327018093280190939F
:100AF400290160912601709127018091280190912C
:100B040029012AE939E949E95EE30E94B90A6B013E
:100B14007C0160911E0170911F01809120019091D0
:100B2400210123E333E343E35FE30E94B90A9B011A
:100B3400AC01C701B6010E94940A60931601709338
:100B440017018093180190931901809116019091D7
:100B54001701A0911801B091190180931E0190937F
:100B64001F01A0932001B0932101FF91EF91BF9148
:100B7400AF919F918F917F916F915F914F913F9131
:100B84002F91FF90EF90DF90CF900F900FBE0F90BA
:040B94001F90189501
:100B9800283008F027E03327DA01990F311D87FD47
:100BA800916000966105710539F432602E5F3D93BE
:100BB80030E32A95E1F708959F3F30F080387105BA
:100BC800610509F03C5F3C5F3D93913008F0806817
:100BD800911DDF93CF931F930F93FF92EF92192FDD
:100BE800987F9695E92F96959695E90FFF27EC52F1
:100BF800FF4F99273327EE24FF24A701E70105902B
:100C08000894079428F4360FE71EF81E491F511D53
:100C1800660F771F881F991F0694A1F70590079400
:100C280028F4E70EF81E491F561FC11D770F881FAD
:100C3800991F661F0694A1F70590079428F4F80EEB
:100C4800491F561FC71FD11D880F991F661F771F81
:100C58000694A1F70590079420F4490F561FC71F63
:100C6800D81F990F661F771F881F0694A9F78491CC
:100C78001095177041F0D695C79557954795F794F5
:100C8800E7941A95C1F7EAE7F0E068941590159192
:100C980035916591959105907FE27395E118F10A78
:100CA800430B560BC90BD009C0F7E10CF11E431FCB
:100CB800561FC91FD01D7EF4703311F48A95E6CFF4
:100CC800E894015030F0080F0AF40027021708F4DE
:100CD800202F2395022F7A3328F079E37D932A95E4
:100CE800E9F710C07D932A9589F60694979567953C
:100CF800379517951794E118F10A430B560BC90B52
:100D0800D00998F023957E9173957A3308F070E3B3
:100D18007C932013B8F77E9170617D9330F08395B2
:100D280071E37D9370E32A95E1F71124EF90FF902A
:100D38000F911F91CF91DF91992787FD9095089585
:100D480010C00E94A10A58F00E949A0A40F029F4A3
:100D58005F3F29F00C94AF0A51110C94A90A0C9426
:100D6800BD0A0E94F80968F39923B1F3552391F35A
:100D7800951B550BBB27AA2762177307840738F002
:100D88009F5F5F4F220F331F441FAA1FA9F335D05F
:100D98000E2E3AF0E0E832D091505040E695001C13
:100DA800CAF72BD0FE2F29D0660F771F881FBB1FCD
:100DB800261737074807AB07B0E809F0BB0B802DAB
:100DC800BF01FF2793585F4F3AF09E3F510578F0D7
:100DD8000C94AF0A0C94A90A5F3FE4F3983ED4F34D
:100DE800869577956795B795F7959F5FC9F7880FAB
:100DF800911D9695879597F90895E1E0660F771FFD
:100E0800881FBB1F621773078407BA0720F0621B8D
:0E0E1800730B840BBA0BEE1F88F7E09508955C
:100E26000FC00E949A0A38F00E94A10A20F095236A
:100E360011F00C94AF0A0C94BD0A11240C94A90A63
:100E46000E94F80970F3959FC1F3950F50E0551F66
:100E5600629FF001729FBB27F00DB11D639FAA2709
:100E6600F00DB11DAA1F649F6627B00DA11D661F58
:100E7600829F2227B00DA11D621F739FB00DA11D79
:100E8600621F839FA00D611D221F749F3327A00D33
:100E9600611D231F849F600D211D822F762F6A2FCF
:100EA60011249F5750409AF0F1F088234AF0EE0F34
:100EB600FF1FBB1F661F771F881F91505040A9F761
:100EC6009E3F510580F00C94AF0A0C94A90A5F3F2F
:100ED600E4F3983ED4F3869577956795B795F7959D
:100EE600E7959F5FC1F7FE2B880F911D9695879515
:040EF60097F90895CB
:100EFA0011C00E949A0A38F00E94A10A20F039F41F
:100F0A009F3F19F426F40C94BD0A0EF4E095E7FB12
:100F1A000C94AF0AE92F0E94F80958F3BA1762072E
:100F2A0073078407950720F079F4A6F50C94A80AAC
:100F3A000EF4E0950B2EBA2FA02D0B01B9019001EA
:100F4A000C01CA01A0011124FF27591B99F0593F2E
:100F5A0050F4503E68F11A16F040A22F232F342F76
:100F6A004427585FF3CF469537952795A795F040C4
:100F7A005395C9F77EF41F16BA0B620B730B840BD9
:100F8A00BAF09150A1F0FF0FBB1F661F771F881F91
:100F9A00C2F70EC0BA0F621F731F841F48F48795E9
:100FAA0077956795B795F7959E3F08F0B0CF9395DB
:0E0FBA00880F08F09927EE0F979587950895F8
:100FC800FA01AA27283051F1203181F1E8946F9372
:100FD8006E7F6E5F7F4F8F4F9F4FAF4FB1E03ED018
:100FE800B4E03CD0670F781F891F9A1FA11D680FB6
:100FF800791F8A1F911DA11D6A0F711D811D911DE9
:10100800A11D20D009F468943F912AE0269F11245D
:101018003019305D3193DEF6CF010895462F4770C1
:10102800405D4193B3E00FD0C9F7F6CF462F4F701C
:10103800405D4A3318F0495D31FD4052419302D07A
:10104800A9F7EACFB4E0A695979587957795679520
:10105800BA95C9F700976105710508959B01AC0120
:101068000A2E06945795479537952795BA95C9F747
:0C107800620F731F841F951FA01D0895B8
:101084001F920F920FB60F9211244F935F936F9399
:101094007F938F939F93AF93BF9380912A019091F5
:1010A4002B01A0912C01B0912D010196A11DB11D20
:1010B40080932A0190932B01A0932C01B0932D01CE
:1010C40080912E0190912F01A0913001B0913101B6
:1010D4000196A11DB11D80932E0190932F01A09321
:1010E4003001B09331018091000190910101A0E0A1
:1010F400B0E040912E0150912F0160913001709128
:101104003101481759076A077B0730F081E090E006
:1011140090933B0180933A01BF91AF919F918F913E
:101124007F916F915F914F910F900FBE0F901F9021
:0211340018950C
:101136001F920F920FB60F9211242F933F934F9346
:101146005F936F937F938F939F93AF93BF93EF9329
:10115600FF9384E090E00E947D0A892BA1F08091A4
:10116600060190910701A0910801B091090101962D
:10117600A11DB11D8093060190930701A09308015C
:10118600B093090113C08091060190910701A091C7
:101196000801B09109010197A109B10980930601DF
:1011A60090930701A0930801B0930901FF91EF9175
:1011B600BF91AF919F918F917F916F915F914F9169
:0E11C6003F912F910F900FBE0F901F90189524
:1011D4001F920F920FB60F9211242F933F934F93A8
:1011E4005F936F937F938F939F93AF93BF93EF938B
:1011F400FF9387E090E00E947D0A892BA1F0809103
:10120400020190910301A0910401B091050101969E
:10121400A11DB11D8093020190930301A0930401C9
:10122400B093050113C08091020190910301A09134
:101234000401B09105010197A109B109809302014C
:1012440090930301A0930401B0930501FF91EF91E2
:10125400BF91AF919F918F917F916F915F914F91CA
:0E1264003F912F910F900FBE0F901F90189585
:10127200E89409C097FB3EF490958095709561952E
:101282007F4F8F4F9F4F9923A9F0F92F96E9BB27E4
:101292009395F695879577956795B795F111F8CF60
:1012A200FAF4BB0F11F460FF1BC06F5F7F4F8F4FCB
:1012B2009F4F16C0882311F096E911C0772321F0C1
:1012C2009EE8872F762F05C0662371F096E8862F59
:1012D20070E060E02AF09A95660F771F881FDAF7B0
:0A12E200880F9695879597F90895F7
:1012EC000F931F93CF93DF93FB01248121FD03C048
:1012FC008FEF9FEF2CC022FF16C0478150852581B0
:10130C0036814217530744F4A081B1819D012F5FB0
:10131C003F4F318320838C93278130852F5F3F4F44
:10132C003087278314C08B01EC01FB010184F2850B
:10133C00E02D0995892BE1F6D80117968D919C919A
:10134C001897019618969C938E931797CE01DF9160
:08135C00CF911F910F9108953C
:10136400CF93DF931F92CDB7DEB78FB78983F894FD
:1013740081E009C040910601509107016091080184
:101384007091090180E08111F5CFCE010196A0E8AA
:10139400FC018491A7FD80818FBFCB01BA010F901E
:0613A400DF91CF910895D6
:1013AA00CF93DF931F92CDB7DEB78FB78983F894B7
:1013BA0081E009C04091020150910301609104014A
:1013CA007091050180E08111F5CFCE010196A0E868
:1013DA00FC018491A7FD80818FBFCB01BA010F90D8
:0613EA00DF91CF91089590
:1013F00057FD9058440F551F59F05F3F71F04795C6
:10140000880F97FB991F61F09F3F79F087950895AA
:10141000121613061406551FF2CF4695F1DF08C0C9
:10142000161617061806991FF1CF869571056105E6
:04143000089408957F
:101434002F923F924F925F926F927F928F929F92E0
:10144400AF92BF92CF92DF92EF92FF920F931F93CE
:10145400CF93DF93CDB7DEB7CA1BDB0B0FB6F8947F
:08146400DEBF0FBECDBF0994ED
:10146C002A88398848885F846E847D848C849B8428
:10147C00AA84B984C884DF80EE80FD800C811B8136
:10148C00AA81B981CE0FD11D0FB6F894DEBF0FBE65
:06149C00CDBFED01089533
:1014A200CF92DF92EF926B01E82EA82FCB0141156C
:1014B200510531F48C199D09EF90DF90CF9008957A
:1014C200FC012491A7FD20812223A1F30196A11DF5
:0614D20041505109ECCF6E
:1014D800092E0394000C11F4882352F0BB0F40F43A
:1014E800BF2B11F460FF04C06F5F7F4F8F4F9F4F7A
:0214F800089555
:1014FA0029B130E002C0359527958A95E2F7C901EE
:0E150A008170992720FF02C081E090E00895D3
:0E1518008AB182608AB98BB182608BB9FFCF35
:0E1526005058BB27AA270E947D070C946C0A20
:0E15340000240A9416161706180609060895D4
:0E15420000240A9412161306140605060895D6
:0E155000E894BB2766277727CB0197F908950B
:0C155E0097F99F6780E870E060E0089556
:08156A000E94A4060C946C0A17
:081572000E9413070C946C0A9F
:06157A009FEF80EC0895D4
:041580000C940000C7
:04158400520300000E
:04158800520300000A
:00000001FF
