:100000000C94C0000C941B0D0C946A0D0C94B1124E
:100010000C94B1120C94B1120C94B1120C94C20C49
:100020000C94B1120C94B1120C94B1120C94E90717
:100030000C94B1120C94B1120C94B1120C94B11234
:100040000C94B1120C94B1120C94B1120C94B11224
:100050000C94B1120C94B1120C94B1120C94B11214
:100060000C94B1120C94B1120100010C80010C012E
:10007000260025660126012E80012E0136002580EE
:1000800001360160800000407A10F35A00A0724EE1
:1000900018090010A5D4E80000E87648170000E42D
:1000A0000B54020000CA9A3B000000E1F505000075
:1000B00080969800000040420F000000A0860100DA
:1000C0000000102700000000E803000000006400AA
:1000D000000000000A000000000001000000000015
:1000E0002C76D888DC674F0823DFC1DFAE59E1B139
:1000F000B796E5E3E453C63AE651997696E8E6C248
:100100008426EB898C9B62ED407C6FFCEFBC9C9F4E
:1001100040F2BAA56FA5F490055A2AF75C936B6C70
:10012000F9676DC11BFCE0E40D47FEF520E6B50064
:10013000D0ED902E0300943577050080841E0800D2
:1001400000204E0A000000C80C333333330F986E82
:1001500012831141EF8D2114893BE65516CFFEE63F
:10016000DB18D1844B381BF77C1D901DA4BBE42405
:10017000203284725E228100C9F124ECA1E53D2782
:1001800011241FBECFEFD8E0DEBFCDBFE8E6F0E020
:1001900040E017C0B591A59135912591059107FDD6
:1001A0000CC095918591EF01F92FE82F05900D92E4
:1001B000A217B307D9F7FE0104C01D92A217B30717
:1001C000E1F7E538F40731F70E94E3040C94E80006
:0401D000F894FFCFD1
:1001D4007B2274223A256C752C2273223A252E3305
:1001E400667D0A007B226C223A256C642C227222E2
:1001F4003A256C642C2273223A25642C2274223A08
:1002040020256C757D0A005374617274696E6720D1
:100214006170706C69636174696F6E0A0D007B2292
:1002240074223A256C752C226C223A7B2272656604
:10023400223A252E32662C2279223A252E32662C39
:1002440022756C696D223A252E32667D2C2272222B
:100254003A7B22726566223A252E32662C22792256
:100264003A252E32662C22756C696D223A252E327F
:05027400667D7D0A001B
:08027900696E66006E616E0003
:10028200A4E1B0E0E7E4F1E00C940A116C011A0178
:10029200462E5901FC0110861782848181FF62C3B8
:1002A200CE0101969D878C87A0E88A8B9B8BAC8BB5
:1002B200F101849147FC8081882309F44FC3442DC6
:1002C20091012F5F3F4F4F4F853219F01901442E94
:1002D2000AC0F901849147FD808192E0290E311C08
:1002E200411C853249F4B60190E00E94C90EBF86D6
:1002F200AE86AE84BF84DCCF10E0F12C00E0003289
:10030200A0F48B3269F030F4803259F0833269F410
:1003120000612CC08D3239F0803339F4016026C07F
:100322000260046023C0086021C007FD29C090ED6F
:10033200980F9A3078F406FF06C0AAE01A9F900D33
:100342001124192F13C0EAE0FE9E900D1124F92EFC
:1003520000620CC08E3221F406FD00C3006406C0A8
:100362008C3611F4006802C0883651F4F101849190
:1003720047FC8081FFEF2F1A3F0A4F0A8111BFCF3E
:100382009BEB980F933018F40061805E06C09BE9E6
:10039200980F933008F066C10F7E06FF16E00F73C8
:1003A200702E853621F4202F2064722E08C08636E6
:1003B20021F4802F8068782E02C01111115077FE2F
:1003C20007C01C3350F4EE24E394E10E27E00BC087
:1003D200183038F027E017E005C027E06CE3E62E7E
:1003E20002C0212FE12CF5013496FF87EE87F5013B
:1003F20060817181828193810E2DAE014F5F5F4FCB
:100402000E944C0A5C01598050FE02C053FE06C095
:1004120071FC06C072FE06C000E205C00DE203C018
:100422000BE201C000E0852D8C7019F0011173C23E
:10043200BEC277FE0FC0EA0C54FE04C08A8181332B
:1004420009F4EA941E1474F528E02E1578F538E0C4
:10045200E32E2CC076FC2AC0812F90E08A159B05E2
:100462009CF08CEFA8168FEFB80674F0972D906869
:10047200792E0AC0E2E0F0E0EC0FFD1FE10FF11D62
:100482008081803319F411501111F4CF77FE0EC020
:10049200EE24E394E10E812F90E0A816B9062CF425
:1004A2001A1904C0EE24E39401C010E077FE06C0DE
:1004B2001A141B0434F4C501019605C085E090E0CE
:1004C20002C081E090E001110196112331F0212F49
:1004D20030E02F5F3F4F820F931F2F2D30E08217A6
:1004E200930714F4F81A01C0F12C872D897049F48E
:1004F200FF2039F0B60180E290E00E94C90EFA9422
:10050200F7CF002329F0B601802F90E00E94C90E98
:1005120073FC09C0FF2039F0B60180E390E00E942D
:10052200C90EFA94F7CF77FE49C03501B7FE02C073
:10053200612C712CC5018619970988248394912C0A
:100542008C0E9D1E880E991EF501EE19F109F98B8C
:10055200E88B012F10E0119501951109FFEF6F163D
:100562007F0629F4B6018EE290E00E94C90EA6141D
:10057200B70444F088899989861597051CF4F4011B
:10058200818101C080E3F1E06F1A71082FEF821AB6
:10059200920A601671062CF0B60190E00E94C90E14
:1005A200DDCFA614B70439F49A81963318F4953343
:1005B20011F454FE81E3B60190E051C08A81813387
:1005C20019F0952D9F7E592EB60190E00E94C90E1A
:1005D200111105C074FC1CC085E690E01BC0B60179
:1005E2008EE290E00E94C90E02E0010F82E011E06B
:1005F200180FE1E0F0E0EC0FFD1FE80FF11D808124
:10060200B60190E00E94C90E812F1013F0CFE2CF05
:1006120085E490E0B6010E94C90EB7FC05C0A114A2
:10062200B10439F454FE05C0B194A194B1088DE22D
:1006320001C08BE2B60190E00E94C90E80E3EAE0BD
:10064200AE16B1042CF08F5FAAE0AA1AB108F7CF58
:10065200B60190E00E94C90EB601C501C0960E9483
:10066200C90E72C1833631F0833791F0833509F0B8
:100672005DC024C0C50102969F878E87F5018081E7
:1006820089836A887B888C88AA24A394B12C14C09D
:10069200C50103969F878E87F501608071808280F5
:1006A20006FF03C0412F50E002C04FEF5FEF882DDD
:1006B200B3010E945D115C010F7715C0C50103965D
:1006C2009F878E87F50160807180828006FF03C05C
:1006D200412F50E002C04FEF5FEF882DB3010E941F
:1006E2005D115C01006803FD1DC08F2D90E0A8160E
:1006F200B906C0F4B60180E290E00E94C90EFA94F5
:10070200F4CFF301849187FC8081FFEF6F1A7F0A97
:100712008F0AB60190E00E94C90EF110FA9421E00E
:10072200A21AB108A114B10461F70EC1843611F006
:10073200893679F5C50107FF09C004969F878E8720
:10074200F50160817181828193810AC002969F873F
:100752008E87F50160817181072E000C880B990B41
:100762000F76E02E97FF0AC090958095709561955F
:100772007F4F8F4F9F4FF02FF068EF2E2AE030E02F
:10078200AE014F5F5F4F0E94640CA82E2C85A21A07
:100792004BC0853729F40F7EE02E2AE030E025C0D9
:1007A200902F997FE92E8F36C1F018F4883579F0B1
:1007B200D5C0803719F0883721F0D0C0A92FA061A9
:1007C200EA2EE4FE0DC0EE2DE460EE2E09C004FF19
:1007D2000AC0F92FF660EF2E06C028E030E005C00F
:1007E20020E130E002C020E132E0C501E7FE09C0AD
:1007F20004969F878E87F501608171818281938142
:1008020008C002969F878E87F5016081718180E022
:1008120090E0AE014F5F5F4F0E94640CA82EFC85F2
:10082200AF1A2E2D2F77E22EE6FE0BC00E2D0E7F75
:10083200A11650F4E4FE0AC0E2FC08C00E2D0E7EA2
:1008420005C0BA2C0E2D03C0BA2C01C0B12E04FF74
:100852000DC0FE01EA0DF11D8081803311F4097E85
:1008620009C002FF06C0B394B39404C0802F8678F7
:1008720009F0B39403FD11C000FF06C0BF1488F451
:10088200FA0C1F2D1B190EC0BF1460F4B60180E2D2
:1008920090E00E94C90EB394F7CFBF1418F4FB186E
:1008A20002C01A2DF12C04FF10C0B60180E390E0C3
:1008B2000E94C90E02FF17C001FD03C088E790E045
:1008C20002C088E590E0B6010CC0802F867859F00E
:1008D20001FF02C08BE201C080E207FD8DE2B6019A
:1008E20090E00E94C90EA11638F4B60180E390E0B0
:1008F2000E94C90E1150F7CFAA94E1E0F0E0EC0F8C
:10090200FD1FEA0DF11D8081B60190E00E94C90E23
:10091200A110F2CF19C0F4E0FF1580F584E0F81AB7
:1009220073FE23C001112BC053FE2FC05DE7852E3D
:1009320052E0952E50E0A52E072D0071F40184910E
:10094200A7FC8081811128C0FF2009F4D2CCB60116
:1009520080E290E00E94C90EFA94F6CFF6018781F8
:1009620090852CC08FEF9FEF29C0B60180E290E006
:100972000E94C90EFA94F110F8CFD4CFF12CB6012F
:10098200802F90E00E94C90ECFCF49E7842E42E02B
:10099200942E40E0A42ED0CF01118052B60190E0F7
:1009A2000E94C90EFFEF8F1A9F0AAF0AC7CF23E03A
:1009B2002F1510F483E0B3CFF12CB6CF6496E2E1A9
:0409C2000C9442113E
:1009C6002F923F924F925F926F927F928F929F9259
:1009D600AF92BF92CF92DF92EF92FF920F931F9347
:1009E600CF93DF93CDB7DEB7C058D1090FB6F894D1
:1009F600DEBF0FBECDBF8CE090E00E94EA1122E57B
:100A060033E040E050E068E473E080E090E00E946C
:100A1600050E0E943B1284E190E00E94CC108BE010
:100A260092E0A0E0AF939F938F930E94A711CE010F
:100A360001960E94050FCE01C5960E94050F0F2E46
:100A4600FAE08F2EF7ED9F2EF3EAAF2EFCE3BF2ED2
:100A5600F02DC12CD12C760100E010E028E432E420
:100A660040E050E060E271E4CE0101960E944E0E35
:100A760000E010E028E432E440E050E060E271E497
:100A8600CE01C5960E944E0E88E0E8E1F1E0DE0157
:100A9600A759BF4F01900D928A95E1F70F900F90DD
:100AA6000F90212C312C0F2EF0E14F2EF7E25F2E06
:100AB600612C712CF02D812C912C5401E12CF12C00
:100AC60008E50F2EF0EADF2EF02D0F2EFBE0CF2EDD
:100AD600F02D11E40E94EC10892B09F499C00E94B4
:100AE6006E0F0E942210E2966FAFE297E3967FAFF9
:100AF600E397E4968FAFE497E5969FAFE597762F59
:100B0600E3966FADE397982FE5968FADE597272F80
:100B1600362F492F582F602F7D2D8C2D912F0E9417
:100B26007312AB01BC01CE0101960E948F06E696B8
:100B36006FAFE697E7967FAFE797E8968FAFE897B0
:100B4600E9969FAFE9970E948A100E94FF0FEA96E6
:100B56006FAFEA97EB967FAFEB97EC968FAFEC977C
:100B6600ED969FAFED97762FEB966FADEB97982F9F
:100B7600ED968FADED97272F362F492F582F602FE3
:100B86007D2D8C2D912F0E947312AB01BC01CE01DD
:100B9600C5960E948F06EE966FAFEE97EF967FAFE3
:100BA600EF97C158DF4F8883CF57D040C058DF4FEB
:100BB6009883C058D0400E94AB100E9445104B014C
:100BC6005C016415750586059705D0F02B013C017F
:100BD60088E8480E83E1581E611C711CF101EE0F76
:100BE600FF1FEE0FFF1F89E690E08C0F9D1FE80F99
:100BF600F91F0081D180C28013819FEF291A390A1B
:100C060083E0281631040CF067C0EE24E394F12C3F
:100C1600E114F10409F45ECFC058DF4F9881C05843
:100C2600D0409F93C158DF4F8881CF57D0408F93D4
:100C3600EF969FADEF979F93EE968FADEE978F93BE
:100C4600ED969FADED979F93EC968FADEC978F93B6
:100C5600EB969FADEB979F93EA968FADEA978F93AE
:100C66001F93CF92DF920F93E9969FADE9979F93DB
:100C7600E8968FADE8978F93E7969FADE7979F939A
:100C8600E6968FADE6978F93E5969FADE5979F9392
:100C9600E4968FADE4978F93E3969FADE3979F938A
:100CA600E2968FADE2978F931F93CF92DF920F93C9
:100CB600BF92AF929F928F9282E292E0A0E0AF93B2
:100CC6009F938F930E94A7110FB6F894DEBF0FBEB5
:100CD600CDBFE12CF12CFECE0E9457120E945E126F
:100CE60080E090E0C058DF4F0FB6F894DEBF0FBE2D
:100CF600CDBFDF91CF911F910F91FF90EF90DF90C5
:100D0600CF90BF90AF909F908F907F906F905F90A5
:080D16004F903F902F900895CB
:100D1E004F925F926F927F928F929F92AF92BF92FD
:100D2E00CF92DF92EF92FF92CF93DF93CDB7DEB7E4
:100D3E0062970FB6F894DEBF0FBECDBF9A8B898B2C
:100D4E006A017B01DC0154966D917D918D919C9190
:100D5E005797A70196010E94AA126D877E878F87EB
:100D6E00988BA989BA8958962D913D914D915C9198
:100D7E005B9729833A834B835C8350962D913D91EB
:100D8E004D915C91539729873A874B875C87698190
:100D9E007A818B819C810E94AA122B013C01E989E8
:100DAE00FA89848C958CA68CB78C248535854685DE
:100DBE005785C701B6010E9473129B01AC01C50194
:100DCE00B4010E94AA12A989BA8990962D913D91DB
:100DDE004D915C9193972D833E834F8358870E944C
:100DEE00A6124B015C01A30192016D857E858F8554
:100DFE0098890E9474129B01AC01C501B4010E9436
:100E0E007412B62EA72E982E892EE989FA8970A40F
:100E1E0061A452A443A4272D362D452D542D0E9496
:100E2E00A1121816ECF520E030E0A90169817A8153
:100E3E008B819C810E949C12882309F483C0298196
:100E4E003A814B815C816D817E818F8198850E9474
:100E5E00A61269837A838B839C832B2D3A2D492D81
:100E6E00582D672D762D852D942D0E9473129B0182
:100E7E00AC0169817A818B819C810E94AA129B01AF
:100E8E00AC0169857A858B859C850E947412A9892F
:100E9E00BA8950966D937D938D939C93539752C0C0
:100EAE00E989FA8974A465A456A447A4272D362D82
:100EBE00452D542D6B2D7A2D892D982D0E949C1227
:100ECE008823E4F520E030E0A90169817A818B81E5
:100EDE009C810E949C128823A9F129813A814B8121
:100EEE005C816D817E818F8198850E94A6126983B7
:100EFE007A838B839C832B2D3A2D492D582D672D6C
:100F0E00762D852D942D0E9473129B01AC01698163
:100F1E007A818B819C810E94AA129B01AC0169850A
:100F2E007A858B859C850E947412A989BA89509600
:100F3E006D937D938D939C93539704C07B2C6A2C59
:100F4E00592C482C2D813E814F815885C701B60101
:100F5E000E94AA129B01AC01E989FA896089718904
:100F6E00828993890E947412A989BA8950966D93C9
:100F7E007D938D939C935397FD01C486D586E6860B
:100F8E00F78680819181A281B38184839583A68324
:100F9E00B783672D762D852D942D62960FB6F89416
:100FAE00DEBF0FBECDBFDF91CF91FF90EF90DF90F0
:100FBE00CF90BF90AF909F908F907F906F905F90EB
:040FCE004F900895A3
:100FD2001F920F920FB60F921124CF92DF92EF92CF
:100FE200FF922F933F934F935F936F937F938F93D0
:100FF2009F93AF93BF93EF93FF9380915C01909186
:101002005D0190935901809358010E94DC0F709307
:101012005D0160935C0160915C0170915D01072E3E
:10102200000C880B990B0E948E0E6B017C01609163
:10103200580170915901072E000C880B990B0E94E0
:101042008E0E9B01AC01C701B6010E9473122BEDFB
:101052003FE049EC50E40E94AA126B017C016091CE
:101062002E0170912F0180913001909131010E94E7
:101072008E0E2AE037ED43EA5CE30E94AA129B013E
:10108200AC01C701B6010E94A6126093460170939B
:101092004701809348019093490160914601709104
:1010A200470180914801909149012AE939E949E9CA
:1010B2005EE30E94AA126B017C0160913E01709175
:1010C2003F01809140019091410123E333E343E3E7
:1010D2005FE30E94AA129B01AC01C701B6010E9404
:1010E20074126093360170933701809338019093A4
:1010F20039018091360190913701A0913801B09168
:10110200390180933E0190933F01A0934001B09337
:10111200410180915A0190915B0190935701809314
:1011220056010E94B90F70935B0160935A0160915E
:101132005A0170915B01072E000C880B990B0E94DB
:101142008E0E6B017C016091560170915701072E42
:10115200000C880B990B0E948E0E9B01AC01C701FB
:10116200B6010E9473122BED3FE049EC50E40E945D
:10117200AA126B017C01609132017091330180915E
:101182003401909135010E948E0E2AE037ED43EA38
:101192005CE30E94AA129B01AC01C701B6010E9446
:1011A200A61260934A0170934B0180934C01909375
:1011B2004D0160914A0170914B0180914C019091D7
:1011C2004D012AE939E949E95EE30E94AA126B015D
:1011D2007C016091420170914301809144019091A0
:1011E200450123E333E343E35FE30E94AA129B0139
:1011F200AC01C701B6010E94741260933A01709368
:101202003B0180933C0190933D0180913A01909182
:101212003B01A0913C01B0913D018093420190932A
:101222004301A0934401B0934501FF91EF91BF9117
:10123200AF919F918F917F916F915F914F913F916C
:101242002F91FF90EF90DF90CF900F900FBE0F90F5
:041252001F9018953C
:101256000F931F93CF93DF938230910510F482E0B2
:1012660090E0E0910A01F0910B0120E030E0A0E06F
:10127600B0E0309719F140815181028113814817FE
:101286005907C8F08417950769F4109731F012963C
:101296000C93129713961C9327C000930A01109380
:1012A6000B0122C02115310519F04217530718F416
:1012B6009A01BD01EF01DF01F801DBCF21153105F0
:1012C600F9F0281B390B2430310580F48A819B8183
:1012D6006115710521F0FB019383828304C090930D
:1012E6000B0180930A01FE01329644C0FE01E20F13
:1012F600F31F8193919322503109398328833AC091
:101306002091080130910901232B41F420912201FB
:101316003091230130930901209308012091200187
:10132600309121012115310541F42DB73EB7409189
:10133600240150912501241B350BE0910801F09101
:101346000901E217F307A0F42E1B3F0B28173907F4
:1013560078F0AC014E5F5F4F2417350748F04E0F0B
:101366005F1F50930901409308018193919302C036
:10137600E0E0F0E0CF01DF91CF911F910F9108954A
:10138600CF93DF93009709F481C0FC013297138253
:101396001282A0910A01B0910B01109781F420816D
:1013A6003181820F931F209108013091090128177E
:1013B600390751F5F0930901E093080167C0ED0183
:1013C60020E030E0CE17DF0740F44A815B819E01C2
:1013D60041155105F1F0EA01F5CFD383C28340816F
:1013E6005181840F951FC817D90759F488819981AF
:1013F600840F951F0296918380838A819B819383B4
:1014060082832115310529F4F0930B01E0930A013B
:101416003DC0E901FB83EA8349915991C40FD51F69
:10142600EC17FD0761F480819181840F951F029668
:10143600E90199838883828193819B838A83E0E093
:10144600F0E012968D919C911397009719F0FD018B
:10145600DC01F7CF8D919C9111979D012E5F3F4F37
:10146600820F931F2091080130910901281739072F
:1014760069F4309729F410920B0110920A0102C008
:1014860013821282B0930901A0930801DF91CF91D4
:021496000895B7
:10149800283008F027E03327DA01990F311D87FD3E
:1014A800916000966105710539F432602E5F3D93B5
:1014B80030E32A95E1F708959F3F30F080387105B1
:1014C800610509F03C5F3C5F3D93913008F080680E
:1014D800911DDF93CF931F930F93FF92EF92192FD4
:1014E800987F9695E92F96959695E90FFF27E052F4
:1014F800FF4F99273327EE24FF24A701E701059022
:101508000894079428F4360FE71EF81E491F511D4A
:10151800660F771F881F991F0694A1F705900794F7
:1015280028F4E70EF81E491F561FC11D770F881FA4
:10153800991F661F0694A1F70590079428F4F80EE2
:10154800491F561FC71FD11D880F991F661F771F78
:101558000694A1F70590079420F4490F561FC71F5A
:10156800D81F990F661F771F881F0694A9F78491C3
:101578001095177041F0D695C79557954795F794EC
:10158800E7941A95C1F7E6E8F0E06894159015918C
:1015980035916591959105907FE27395E118F10A6F
:1015A800430B560BC90BD009C0F7E10CF11E431FC2
:1015B800561FC91FD01D7EF4703311F48A95E6CFEB
:1015C800E894015030F0080F0AF40027021708F4D5
:1015D800202F2395022F7A3328F079E37D932A95DB
:1015E800E9F710C07D932A9589F606949795679533
:1015F800379517951794E118F10A430B560BC90B49
:10160800D00998F023957E9173957A3308F070E3AA
:101618007C932013B8F77E9170617D9330F08395A9
:1016280071E37D9370E32A95E1F71124EF90FF9021
:101638000F911F91CF91DF91992787FD909508957C
:1016480010C00E94811258F00E947A1240F029F4CA
:101658005F3F29F00C94961251110C9489120C9446
:10166800AE120E94681068F39923B1F3552391F3E1
:10167800951B550BBB27AA2762177307840738F0F9
:101688009F5F5F4F220F331F441FAA1FA9F335D056
:101698000E2E3AF0E0E832D091505040E695001C0A
:1016A800CAF72BD0FE2F29D0660F771F881FBB1FC4
:1016B800261737074807AB07B0E809F0BB0B802DA2
:1016C800BF01FF2793585F4F3AF09E3F510578F0CE
:1016D8000C9496120C9489125F3FE4F3983ED4F36D
:1016E800869577956795B795F7959F5FC9F7880FA2
:1016F800911D9695879597F90895E1E0660F771FF4
:10170800881FBB1F621773078407BA0720F0621B84
:0E171800730B840BBA0BEE1F88F7E095089553
:101726000FC00E947A1238F00E94811220F0952391
:1017360011F00C9496120C94AE1211240C9489128A
:101746000E94681070F3959FC1F3950F50E0551FE6
:10175600629FF001729FBB27F00DB11D639FAA2700
:10176600F00DB11DAA1F649F6627B00DA11D661F4F
:10177600829F2227B00DA11D621F739FB00DA11D70
:10178600621F839FA00D611D221F749F3327A00D2A
:10179600611D231F849F600D211D822F762F6A2FC6
:1017A60011249F5750409AF0F1F088234AF0EE0F2B
:1017B600FF1FBB1F661F771F881F91505040A9F758
:1017C6009E3F510580F00C9496120C9489125F3F4F
:1017D600E4F3983ED4F3869577956795B795F79594
:1017E600E7959F5FC1F7FE2B880F911D969587950C
:0417F60097F90895C2
:1017FA0011C00E947A1238F00E94811220F039F446
:10180A009F3F19F426F40C94AE120EF4E095E7FB10
:10181A000C949612E92F0E94681058F3BA176207BF
:10182A0073078407950720F079F4A6F50C948812BB
:10183A000EF4E0950B2EBA2FA02D0B01B9019001E1
:10184A000C01CA01A0011124FF27591B99F0593F25
:10185A0050F4503E68F11A16F040A22F232F342F6D
:10186A004427585FF3CF469537952795A795F040BB
:10187A005395C9F77EF41F16BA0B620B730B840BD0
:10188A00BAF09150A1F0FF0FBB1F661F771F881F88
:10189A00C2F70EC0BA0F621F731F841F48F48795E0
:1018AA0077956795B795F7959E3F08F0B0CF9395D2
:0E18BA00880F08F09927EE0F979587950895EF
:1018C800FA01AA27283051F1203181F1E8946F9369
:1018D8006E7F6E5F7F4F8F4F9F4FAF4FB1E03ED00F
:1018E800B4E03CD0670F781F891F9A1FA11D680FAD
:1018F800791F8A1F911DA11D6A0F711D811D911DE0
:10190800A11D20D009F468943F912AE0269F112454
:101918003019305D3193DEF6CF010895462F4770B8
:10192800405D4193B3E00FD0C9F7F6CF462F4F7013
:10193800405D4A3318F0495D31FD4052419302D071
:10194800A9F7EACFB4E0A695979587957795679517
:10195800BA95C9F700976105710508959B01AC0117
:101968000A2E06945795479537952795BA95C9F73E
:0C197800620F731F841F951FA01D0895AF
:101984001F920F920FB60F9211244F935F936F9390
:101994007F938F939F93AF93BF9380914E019091C8
:1019A4004F01A0915001B09151010196A11DB11DAB
:1019B40080934E0190934F01A0935001B093510135
:1019C4008091520190915301A0915401B09155011D
:1019D4000196A11DB11D8093520190935301A093D0
:1019E4005401B09355018091000190910101A0E050
:1019F400B0E04091520150915301609154017091B3
:101A04005501481759076A077B0730F081E090E0D9
:101A140090935F0180935E01BF91AF919F918F91ED
:101A24007F916F915F914F910F900FBE0F901F9018
:021A3400189503
:101A36001F920F920FB60F9211242F933F934F933D
:101A46005F936F937F938F939F93AF93BF93EF9320
:101A5600FF9384E090E00E942C12892BA1F08091E4
:101A66002A0190912B01A0912C01B0912D01019694
:101A7600A11DB11D80932A0190932B01A0932C01E7
:101A8600B0932D0113C080912A0190912B01A09152
:101A96002C01B0912D010197A109B10980932A016A
:101AA60090932B01A0932C01B0932D01FF91EF9100
:101AB600BF91AF919F918F917F916F915F914F9160
:0E1AC6003F912F910F900FBE0F901F9018951B
:101AD4001F920F920FB60F9211242F933F934F939F
:101AE4005F936F937F938F939F93AF93BF93EF9382
:101AF400FF9387E090E00E942C12892BA1F0809143
:101B0400260190912701A0912801B0912901019605
:101B1400A11DB11D8093260190932701A093280154
:101B2400B093290113C08091260190912701A091BF
:101B34002801B09129010197A109B10980932601D7
:101B440090932701A0932801B0932901FF91EF916D
:101B5400BF91AF919F918F917F916F915F914F91C1
:0E1B64003F912F910F900FBE0F901F9018957C
:101B72000F931F93CF93DF93009731F46115710593
:101B820019F480E090E03BC08B01EC016FE070E063
:101B920081E090E00E942611FC01892B91F380E8FC
:101BA20084830115110569F01487038781E8848312
:101BB200A2E0B1E08D919C911197892B11F4ED93E4
:101BC200FC932097D9F0D287C18784818260848375
:101BD200A2E0B1E012968D919C911397892B71F43A
:101BE2001396FC93EE93129714968D919C911597F0
:101BF200892B21F41596FC93EE931497CF01DF9174
:081C0200CF911F910F9108958D
:101C0A00CF93DF931F92CDB7DEB760933201709303
:101C1A003301809334019093350120932E01309340
:101C2A002F0140933001509331010E9490118FB7D8
:101C3A008983F89481E00DC00E94DC0F70935D01E6
:101C4A0060935C010E94B90F70935B0160935A0123
:101C5A0080E08111F1CFCE010196A0E8FC018491C8
:101C6A00A7FD80818FBFF89484E08093890081EE7C
:101C7A0080938800E1E8F0E080818C608083EFE661
:101C8A00F0E080818260808378940F90DF91CF9119
:021C9A000895AB
:101C9C008F929F92AF92BF92CF92DF92EF92FF9270
:101CAC000F931F93CF93DF931F92CDB7DEB7FC0139
:101CBC008FB78983F89481E011C0448B558B668B68
:101CCC00778B008F118F228F338FC48ED58EE68E3B
:101CDC00F78E80A291A2A2A2B3A280E08111EDCFD7
:101CEC00CE010196A0E8FC018491A7FD80818FBFF5
:101CFC000F90DF91CF911F910F91FF90EF90DF909C
:0C1D0C00CF90BF90AF909F908F900895F3
:101D1800E89409C097FB3EF490958095709561957D
:101D28007F4F8F4F9F4F9923A9F0F92F96E9BB2733
:101D38009395F695879577956795B795F111F8CFAF
:101D4800FAF4BB0F11F460FF1BC06F5F7F4F8F4F1A
:101D58009F4F16C0882311F096E911C0772321F010
:101D68009EE8872F762F05C0662371F096E8862FA8
:101D780070E060E02AF09A95660F771F881FDAF7FF
:0A1D8800880F9695879597F9089546
:101D92000F931F93CF93DF93FB01248121FD03C097
:101DA2008FEF9FEF2CC022FF16C0478150852581FF
:101DB20036814217530744F4A081B1819D012F5F00
:101DC2003F4F318320838C93278130852F5F3F4F94
:101DD2003087278314C08B01EC01FB010184F2855B
:101DE200E02D0995892BE1F6D80117968D919C91EA
:101DF2001897019618969C938E931797CE01DF91B0
:081E0200CF911F910F9108958B
:101E0A00FC01148A158A168A178A108E118E128E70
:101E1A00138E10A211A212A213A210821182128290
:101E2A0013821482158216821782108611861286F0
:101E3A0013861486158616861786108A118A128AC0
:101E4A00138A14A215A216A217A280E090E0A8ECA9
:101E5A00B2E480A791A7A2A7B3A780E090E0A8EC7C
:101E6A00B2EC84A795A7A6A7B7A710AA11AA12AA87
:041E7A0013AA08950A
:101E7E000E94701088F09F5798F0B92F9927B7518C
:101E8E00B0F0E1F0660F771F881F991F1AF0BA9510
:101E9E00C9F714C0B13091F00E948812B1E00895D4
:101EAE000C948812672F782F8827B85F39F0B93FC6
:101EBE00CCF3869577956795B395D9F73EF49095C3
:0E1ECE008095709561957F4F8F4F9F4F0895BF
:101EDC00CF93DF931F92CDB7DEB78FB78983F8947A
:101EEC0081E00FC0109252011092530110925401D4
:101EFC00109255011092B20010925F0110925E0187
:101F0C0080E08111EFCFCE010196A0E8FC01849115
:0E1F1C00A7FD80818FBF0F90DF91CF910895B8
:101F2A00990F0008550FAA0BE0E8FEEF16161706E0
:101F3A00E807F907C0F012161306E407F50798F048
:101F4A00621B730B840B950B39F40A2661F0232B61
:101F5A00242B252B21F408950A2609F4A140A695DD
:081F6A008FEF811D811D089518
:101F7200CF93DF931F92CDB7DEB78FB78983F894E3
:101F820081E009C040912A0150912B0160912C01FE
:101F920070912D0180E08111F5CFCE010196A0E86C
:101FA200FC018491A7FD80818FBFCB01BA010F9004
:061FB200DF91CF910895BC
:101FB800CF93DF931F92CDB7DEB78FB78983F8949D
:101FC80081E009C0409126015091270160912801C4
:101FD8007091290180E08111F5CFCE010196A0E82A
:101FE800FC018491A7FD80818FBFCB01BA010F90BE
:061FF800DF91CF91089576
:101FFE00CF93DF931F92CDB7DEB78FB78983F89457
:10200E0081E009C04091360150913701609138014D
:10201E007091390180E08111F5CFCE010196A0E8D3
:10202E00FC018491A7FD80818FBFCB01BA010F9077
:06203E00DF91CF9108952F
:10204400CF93DF931F92CDB7DEB78FB78983F89410
:1020540081E009C040913A0150913B0160913C01FB
:1020640070913D0180E08111F5CFCE010196A0E889
:10207400FC018491A7FD80818FBFCB01BA010F9031
:06208400DF91CF910895E9
:10208A00CF93DF931F92CDB7DEB78FB78983F894CA
:10209A0081E009C040914E0150914F016091500179
:1020AA007091510180E08111F5CFCE010196A0E82F
:1020BA00FC018491A7FD80818FBFCB01BA010F90EB
:0620CA00DF91CF910895A3
:1020D00057FD9058440F551F59F05F3F71F04795D9
:1020E000880F97FB991F61F09F3F79F087950895BE
:1020F000121613061406551FF2CF4695F1DF08C0DD
:10210000161617061806991FF1CF869571056105F9
:042110000894089592
:10211400CF92DF92EF92FF926B017C0120E030E0DE
:10212400A9010E949C1288232CF480E090E00E9474
:102134000C1204C081E090E00E940C12C701B601A9
:102144000E9478110E94BE11FF90EF90DF90CF9013
:022154000895EC
:10215600CF92DF92EF92FF926B017C0120E030E09C
:10216600A9010E949C1288232CF480E090E00E9432
:102176001C1204C081E090E00E941C12C701B60147
:102186000E9478110E94D411FF90EF90DF90CF90BB
:022196000895AA
:10219800F89410925F0110925E0190930101809370
:1021A8000001E1EBF0E010821092B20089EF809319
:1021B800B300A0EBB0E08C9186608C938081846042
:1021C8008083E0E7F0E080818260808378940895DE
:1021D800CF93DF931F92CDB7DEB78FB78983F8947B
:1021E80091E005C020915E0130915F0190E091116E
:1021F800F9CFCE010196A0E8FC018491A7FD80816A
:0C2208008FBFC9010F90DF91CF910895A6
:102214002F923F924F925F926F927F928F929F92F2
:10222400AF92BF92CF92DF92EF92FF920F931F93E0
:10223400CF93DF93CDB7DEB7CA1BDB0B0FB6F89491
:08224400DEBF0FBECDBF0994FF
:10224C000F931F93CF93DF93869F8001879F100D71
:10225C00969F100D1124C8010E942B09EC010097C8
:10226C0029F0A80160E070E00E948F12CE01DF918E
:08227C00CF911F910F9108950D
:102284002A88398848885F846E847D848C849B8402
:10229400AA84B984C884DF80EE80FD800C811B8110
:1022A400AA81B981CE0FD11D0FB6F894DEBF0FBE3F
:0622B400CDBFED0108950D
:1022BA00CF92DF92EF926B01E82EA82FCB01411546
:1022CA00510531F48C199D09EF90DF90CF90089554
:1022DA00FC012491A7FD20812223A1F30196A11DCF
:0622EA0041505109ECCF48
:1022F000CF92DF92EF92FF926B017C0120E030E001
:10230000A9010E949C12882324F4C701B6019058A9
:1023100002C0C701B601FF90EF90DF90CF90089503
:10232000F8948AB18B7F8AB98BB184608BB98AB1FA
:10233000877F8AB98BB188608BB9E9E6F0E080814C
:0E2340008F6080838DB383608DBB7894089589
:10234E00A0E0B0E0EDEAF1E10C941A119E012B5FD2
:10235E003F4FF9014191519161919F01809104018B
:0E236E00909105010E944101E2E00C94521191
:10237C0020E030E048EC52E40E94A61220E030E06D
:10238C0040EF52E40E94AA1220E030E047E053E410
:0C239C000E9474120E943F0F67BD08955C
:1023A80020E030E048EC52E40E94A61220E030E041
:1023B80040EF52E40E94AA1220E030E047E053E4E4
:0C23C8000E9474120E943F0F68BD08952F
:1023D4009093C5008093C40088E18093C1008EE08F
:1023E4008093C2006CE672E185E692E10E94B90D29
:0223F40008954A
:1023F600092E0394000C11F4882352F0BB0F40F40D
:10240600BF2B11F460FF04C06F5F7F4F8F4F9F4F4C
:02241600089527
:10241800019739F488B1816088B988B18D7F88B90E
:10242800089588B18E7F88B988B1826088B9089587
:10243800019739F488B1846088B988B1877F88B9F1
:10244800089588B18B7F88B988B1886088B9089564
:1024580029B130E002C0359527958A95E2F7C90180
:0E2468008170992720FF02C081E090E0089566
:102476000E944A1287B1816087B987B1826087B9A5
:0E24860087B1846087B987B1886087B90895EF
:102494008AB180648AB98AB180628AB984B5816A52
:0A24A40084BD85B5816085BD0895F3
:0E24AE0088B18E7F88B988B18D7F88B9089576
:0E24BC0088B18B7F88B988B1877F88B9089571
:0E24CA009091C00095FFFCCF8093C60008954E
:0E24D8008091C0008823E4F78091C60008952B
:0E24E6005058BB27AA270E94FD0B0C94FB1137
:0E24F40000240A941616170618060906089505
:0E25020000240A941216130614060506089506
:0E251000E894BB2766277727CB0197F908953B
:0E251E00DC0101C06D9341505040E0F708957C
:0C252C0097F99F6780E870E060E0089578
:0A2538000E94950F08F481E0089559
:0A2542000E94950F08F48FEF089532
:08254C000E94240B0C94FB110A
:082554000E94930B0C94FB1193
:06255C009FEF80EC0895E2
:042562000C940000D5
:102566000A00F6FF3200CEFF64009CFF58A00BC1A4
:04257600F366DF3FEA
:06257A00000060012000DA
:042580005203000002
:0425840052030000FE
:00000001FF
