:100000000C94BA000C9421090C9470090C94600DA6
:100010000C94600D0C94600D0C94600D0C940B0A04
:100020000C94600D0C94600D0C94600D0C94910672
:100030000C94600D0C94600D0C94600D0C94600D8C
:100040000C94600D0C94600D0C94600D0C94600D7C
:100050000C94600D0C94600D0C94600D0C94600D6C
:100060000C94600D0C94600D0100010C80010C01DA
:1000700012001AC401120130800000407A10F35AB5
:1000800000A0724E18090010A5D4E80000E87648D8
:10009000170000E40B54020000CA9A3B000000E184
:1000A000F505000080969800000040420F00000017
:1000B000A08601000000102700000000E8030000F7
:1000C00000006400000000000A00000000000100C1
:1000D000000000002C76D888DC674F0823DFC1DFE2
:1000E000AE59E1B1B796E5E3E453C63AE6519976E5
:1000F00096E8E6C28426EB898C9B62ED407C6FFC1F
:10010000EFBC9C9F40F2BAA56FA5F490055A2AF760
:100110005C936B6CF9676DC11BFCE0E40D47FEF569
:1001200020E6B500D0ED902E0300943577050080D1
:10013000841E080000204E0A000000C80C33333330
:10014000330F986E12831141EF8D2114893BE655D0
:1001500016CFFEE6DB18D1844B381BF77C1D901DB3
:10016000A4BBE424203284725E228100C9F124EC15
:10017000A1E53D2711241FBECFEFD8E0DEBFCDBFE4
:10018000E8E6F0E040E017C0B591A59135912591E2
:10019000059107FD0CC095918591EF01F92FE82F8E
:1001A00005900D92A217B307D9F7FE0104C01D9266
:1001B000A217B307E1F7E937F40731F70E94CD083A
:0801C0000C94E200F894FFCF5B
:1001C8005374617274696E67206170706C696361E1
:0C01D80074696F6E0A0D0025660A0D00A8
:0801E400696E66006E616E0099
:1001EC00A4E1B0E0ECEFF0E00C94510C6C011A01BE
:1001FC00462E5901FC0110861782848181FF62C34F
:10020C00CE0101969D878C87A0E88A8B9B8BAC8B4B
:10021C00F101849147FC8081882309F44FC3442D5C
:10022C0091012F5F3F4F4F4F853219F01901442E2A
:10023C000AC0F901849147FD808192E0290E311C9E
:10024C00411C853249F4B60190E00E948E0ABF86AB
:10025C00AE86AE84BF84DCCF10E0F12C00E000321F
:10026C00A0F48B3269F030F4803259F0833269F4A7
:10027C0000612CC08D3239F0803339F4016026C016
:10028C000260046023C0086021C007FD29C090ED06
:10029C00980F9A3078F406FF06C0AAE01A9F900DCA
:1002AC001124192F13C0EAE0FE9E900D1124F92E93
:1002BC0000620CC08E3221F406FD00C3006406C03F
:1002CC008C3611F4006802C0883651F4F101849127
:1002DC0047FC8081FFEF2F1A3F0A4F0A8111BFCFD5
:1002EC009BEB980F933018F40061805E06C09BE97D
:1002FC00980F933008F066C10F7E06FF16E00F735F
:10030C00702E853621F4202F2064722E08C086367C
:10031C0021F4802F8068782E02C01111115077FEC5
:10032C0007C01C3350F4EE24E394E10E27E00BC01D
:10033C00183038F027E017E005C027E06CE3E62E14
:10034C0002C0212FE12CF5013496FF87EE87F501D1
:10035C0060817181828193810E2DAE014F5F5F4F61
:10036C000E94B9055C01598050FE02C053FE06C0C4
:10037C0071FC06C072FE06C000E205C00DE203C0AF
:10038C000BE201C000E0852D8C7019F0011173C2D5
:10039C00BEC277FE0FC0EA0C54FE04C08A818133C2
:1003AC0009F4EA941E1474F528E02E1578F538E05B
:1003BC00E32E2CC076FC2AC0812F90E08A159B0579
:1003CC009CF08CEFA8168FEFB80674F0972D906800
:1003DC00792E0AC0E2E0F0E0EC0FFD1FE10FF11DF9
:1003EC008081803319F411501111F4CF77FE0EC0B7
:1003FC00EE24E394E10E812F90E0A816B9062CF4BC
:10040C001A1904C0EE24E39401C010E077FE06C074
:10041C001A141B0434F4C501019605C085E090E064
:10042C0002C081E090E001110196112331F0212FDF
:10043C0030E02F5F3F4F820F931F2F2D30E082173C
:10044C00930714F4F81A01C0F12C872D897049F424
:10045C00FF2039F0B60180E290E00E948E0AFA94F7
:10046C00F7CF002329F0B601802F90E00E948E0A6E
:10047C0073FC09C0FF2039F0B60180E390E00E94C4
:10048C008E0AFA94F7CF77FE49C03501B7FE02C049
:10049C00612C712CC5018619970988248394912CA1
:1004AC008C0E9D1E880E991EF501EE19F109F98B23
:1004BC00E88B012F10E0119501951109FFEF6F16D4
:1004CC007F0629F4B6018EE290E00E948E0AA614F3
:1004DC00B70444F088899989861597051CF4F401B2
:1004EC00818101C080E3F1E06F1A71082FEF821A4D
:1004FC00920A601671062CF0B60190E00E948E0AEA
:10050C00DDCFA614B70439F49A81963318F49533D9
:10051C0011F454FE81E3B60190E051C08A8181331D
:10052C0019F0952D9F7E592EB60190E00E948E0AEF
:10053C00111105C074FC1CC085E690E01BC0B6010F
:10054C008EE290E00E948E0A02E0010F82E011E040
:10055C00180FE1E0F0E0EC0FFD1FE80FF11D8081BA
:10056C00B60190E00E948E0A812F1013F0CFE2CFDB
:10057C0085E490E0B6010E948E0AB7FC05C0A11478
:10058C00B10439F454FE05C0B194A194B1088DE2C4
:10059C0001C08BE2B60190E00E948E0A80E3EAE093
:1005AC00AE16B1042CF08F5FAAE0AA1AB108F7CFEF
:1005BC00B60190E00E948E0AB601C501C0960E9459
:1005CC008E0A72C1833631F0833791F0833509F08E
:1005DC005DC024C0C50102969F878E87F50180817E
:1005EC0089836A887B888C88AA24A394B12C14C034
:1005FC00C50103969F878E87F5016080718082808C
:10060C0006FF03C0412F50E002C04FEF5FEF882D73
:10061C00B3010E94A40C5C010F7715C0C5010396B1
:10062C009F878E87F50160807180828006FF03C0F2
:10063C00412F50E002C04FEF5FEF882DB3010E94B5
:10064C00A40C5C01006803FD1DC08F2D90E0A81662
:10065C00B906C0F4B60180E290E00E948E0AFA94CA
:10066C00F4CFF301849187FC8081FFEF6F1A7F0A2E
:10067C008F0AB60190E00E948E0AF110FA9421E0E4
:10068C00A21AB108A114B10461F70EC1843611F09D
:10069C00893679F5C50107FF09C004969F878E87B7
:1006AC00F50160817181828193810AC002969F87D6
:1006BC008E87F50160817181072E000C880B990BD8
:1006CC000F76E02E97FF0AC09095809570956195F6
:1006DC007F4F8F4F9F4FF02FF068EF2E2AE030E0C6
:1006EC00AE014F5F5F4F0E946F08A82E2C85A21A97
:1006FC004BC0853729F40F7EE02E2AE030E025C070
:10070C00902F997FE92E8F36C1F018F4883579F047
:10071C00D5C0803719F0883721F0D0C0A92FA0613F
:10072C00EA2EE4FE0DC0EE2DE460EE2E09C004FFAF
:10073C000AC0F92FF660EF2E06C028E030E005C0A5
:10074C0020E130E002C020E132E0C501E7FE09C043
:10075C0004969F878E87F5016081718182819381D8
:10076C0008C002969F878E87F5016081718180E0B9
:10077C0090E0AE014F5F5F4F0E946F08A82EFC8582
:10078C00AF1A2E2D2F77E22EE6FE0BC00E2D0E7F0C
:10079C00A11650F4E4FE0AC0E2FC08C00E2D0E7E39
:1007AC0005C0BA2C0E2D03C0BA2C01C0B12E04FF0B
:1007BC000DC0FE01EA0DF11D8081803311F4097E1C
:1007CC0009C002FF06C0B394B39404C0802F86788E
:1007DC0009F0B39403FD11C000FF06C0BF1488F4E8
:1007EC00FA0C1F2D1B190EC0BF1460F4B60180E269
:1007FC0090E00E948E0AB394F7CFBF1418F4FB1844
:10080C0002C01A2DF12C04FF10C0B60180E390E059
:10081C000E948E0A02FF17C001FD03C088E790E01A
:10082C0002C088E590E0B6010CC0802F867859F0A4
:10083C0001FF02C08BE201C080E207FD8DE2B60130
:10084C0090E00E948E0AA11638F4B60180E390E085
:10085C000E948E0A1150F7CFAA94E1E0F0E0EC0F61
:10086C00FD1FEA0DF11D8081B60190E00E948E0AF9
:10087C00A110F2CF19C0F4E0FF1580F584E0F81A4E
:10088C0073FE23C001112BC053FE2FC058EE852ED2
:10089C0051E0952E50E0A52E072D0071F4018491A6
:1008AC00A7FC8081811128C0FF2009F4D2CCB601AD
:1008BC0080E290E00E948E0AFA94F6CFF6018781CE
:1008CC0090852CC08FEF9FEF29C0B60180E290E09D
:1008DC000E948E0AFA94F110F8CFD4CFF12CB60105
:1008EC00802F90E00E948E0ACFCF44EE842E41E000
:1008FC00942E40E0A42ED0CF01118052B60190E08E
:10090C000E948E0AFFEF8F1A9F0AAF0AC7CF23E00F
:10091C002F1510F483E0B3CFF12CB6CF6496E2E13F
:04092C000C94890C92
:100930000F931F93CF93DF938230910510F482E0E1
:1009400090E0E0910A01F0910B0120E030E0A0E09E
:10095000B0E0309719F1408151810281138148172D
:100960005907C8F08417950769F4109731F012966B
:100970000C93129713961C9327C000930A011093AF
:100980000B0122C02115310519F04217530718F445
:100990009A01BD01EF01DF01F801DBCF211531051F
:1009A000F9F0281B390B2430310580F48A819B81B2
:1009B0006115710521F0FB019383828304C090933C
:1009C0000B0180930A01FE01329644C0FE01E20F42
:1009D000F31F8193919322503109398328833AC0C0
:1009E0002091080130910901232B41F420910E013F
:1009F00030910F01309309012093080120910C01DF
:100A000030910D012115310541F42DB73EB74091CC
:100A1000100150911101241B350BE0910801F09158
:100A20000901E217F307A0F42E1B3F0B2817390723
:100A300078F0AC014E5F5F4F2417350748F04E0F3A
:100A40005F1F50930901409308018193919302C065
:100A5000E0E0F0E0CF01DF91CF911F910F91089579
:100A6000CF93DF93009709F481C0FC013297138282
:100A70001282A0910A01B0910B01109781F420819C
:100A80003181820F931F20910801309109012817AD
:100A9000390751F5F0930901E093080167C0ED01B2
:100AA00020E030E0CE17DF0740F44A815B819E01F1
:100AB00041155105F1F0EA01F5CFD383C28340819E
:100AC0005181840F951FC817D90759F488819981DE
:100AD000840F951F0296918380838A819B819383E3
:100AE00082832115310529F4F0930B01E0930A016B
:100AF0003DC0E901FB83EA8349915991C40FD51F99
:100B0000EC17FD0761F480819181840F951F029697
:100B1000E90199838883828193819B838A83E0E0C2
:100B2000F0E012968D919C911397009719F0FD01BA
:100B3000DC01F7CF8D919C9111979D012E5F3F4F66
:100B4000820F931F2091080130910901281739075E
:100B500069F4309729F410920B0110920A0102C037
:100B600013821282B0930901A0930801DF91CF9103
:020B70000895E6
:100B7200283008F027E03327DA01990F311D87FD6D
:100B8200916000966105710539F432602E5F3D93E4
:100B920030E32A95E1F708959F3F30F080387105E0
:100BA200610509F03C5F3C5F3D93913008F080683D
:100BB200911DDF93CF931F930F93FF92EF92192F03
:100BC200987F9695E92F96959695E90FFF27EC5217
:100BD200FF4F99273327EE24FF24A701E701059051
:100BE2000894079428F4360FE71EF81E491F511D7A
:100BF200660F771F881F991F0694A1F70590079427
:100C020028F4E70EF81E491F561FC11D770F881FD3
:100C1200991F661F0694A1F70590079428F4F80E11
:100C2200491F561FC71FD11D880F991F661F771FA7
:100C32000694A1F70590079420F4490F561FC71F89
:100C4200D81F990F661F771F881F0694A9F78491F2
:100C52001095177041F0D695C79557954795F7941B
:100C6200E7941A95C1F7EAE7F0E0689415901591B8
:100C720035916591959105907FE27395E118F10A9E
:100C8200430B560BC90BD009C0F7E10CF11E431FF1
:100C9200561FC91FD01D7EF4703311F48A95E6CF1A
:100CA200E894015030F0080F0AF40027021708F404
:100CB200202F2395022F7A3328F079E37D932A950A
:100CC200E9F710C07D932A9589F606949795679562
:100CD200379517951794E118F10A430B560BC90B78
:100CE200D00998F023957E9173957A3308F070E3DA
:100CF2007C932013B8F77E9170617D9330F08395D9
:100D020071E37D9370E32A95E1F71124EF90FF9050
:100D12000F911F91CF91DF91992787FD90950895AB
:100D22001F920F920FB60F921124CF92DF92EF9281
:100D3200FF922F933F934F935F936F937F938F9382
:100D42009F93AF93BF93EF93FF9380912C01909168
:100D52002D0190932901809328010E94AB0B70937F
:100D62002D0160932C01072E000C880B990B0E9419
:100D7200530A6B017C016091280170912901072EB1
:100D8200000C880B990B0E94530A9B01AC01C7010E
:100D9200B6010E942C0D2BED3FE049EC50E40E947D
:100DA200590D20E030E048E851E40E94550D60936F
:100DB2001A0170931B0180931C0190931D01809175
:100DC2002A0190912B0190932701809326010E9482
:100DD200880B70932B0160932A01072E000C880B5D
:100DE200990B0E94530A6B017C016091260170915C
:100DF2002701072E000C880B990B0E94530A9B01B6
:100E0200AC01C701B6010E942C0D2BED3FE049EC6D
:100E120050E40E94590D20E030E048E851E40E947D
:100E2200550D60931E0170931F01809320019093D2
:100E32002101FF91EF91BF91AF919F918F917F918E
:100E42006F915F914F913F912F91FF90EF90DF90C3
:0C0E5200CF900F900FBE0F901F901895CE
:100E5E0010C00E943A0D58F00E94330D40F029F454
:100E6E005F3F29F00C944F0D51110C94420D0C94D0
:100E7E005D0D0E94F10B68F39923B1F3552391F3A5
:100E8E00951B550BBB27AA2762177307840738F0EB
:100E9E009F5F5F4F220F331F441FAA1FA9F335D048
:100EAE000E2E3AF0E0E832D091505040E695001CFC
:100EBE00CAF72BD0FE2F29D0660F771F881FBB1FB6
:100ECE00261737074807AB07B0E809F0BB0B802D94
:100EDE00BF01FF2793585F4F3AF09E3F510578F0C0
:100EEE000C944F0D0C94420D5F3FE4F3983ED4F3F7
:100EFE00869577956795B795F7959F5FC9F7880F94
:100F0E00911D9695879597F90895E1E0660F771FE5
:100F1E00881FBB1F621773078407BA0720F0621B76
:0E0F2E00730B840BBA0BEE1F88F7E095089545
:100F3C000FC00E94330D38F00E943A0D20F095231B
:100F4C0011F00C944F0D0C945D0D11240C94420D6A
:100F5C000E94F10B70F3959FC1F3950F50E0551F54
:100F6C00629FF001729FBB27F00DB11D639FAA27F2
:100F7C00F00DB11DAA1F649F6627B00DA11D661F41
:100F8C00829F2227B00DA11D621F739FB00DA11D62
:100F9C00621F839FA00D611D221F749F3327A00D1C
:100FAC00611D231F849F600D211D822F762F6A2FB8
:100FBC0011249F5750409AF0F1F088234AF0EE0F1D
:100FCC00FF1FBB1F661F771F881F91505040A9F74A
:100FDC009E3F510580F00C944F0D0C94420D5F3FD9
:100FEC00E4F3983ED4F3869577956795B795F79586
:100FFC00E7959F5FC1F7FE2B880F911D96958795FE
:04100C0097F90895B3
:1010100011C00E94330D38F00E943A0D20F039F4CF
:101020009F3F19F426F40C945D0D0EF4E095E7FB58
:101030000C944F0DE92F0E94F10B58F3BA17620779
:1010400073078407950720F079F4A6F50C94410DF9
:101050000EF4E0950B2EBA2FA02D0B01B9019001D3
:101060000C01CA01A0011124FF27591B99F0593F17
:1010700050F4503E68F11A16F040A22F232F342F5F
:101080004427585FF3CF469537952795A795F040AD
:101090005395C9F77EF41F16BA0B620B730B840BC2
:1010A000BAF09150A1F0FF0FBB1F661F771F881F7A
:1010B000C2F70EC0BA0F621F731F841F48F48795D2
:1010C00077956795B795F7959E3F08F0B0CF9395C4
:0E10D000880F08F09927EE0F979587950895E1
:1010DE00FA01AA27283051F1203181F1E8946F935B
:1010EE006E7F6E5F7F4F8F4F9F4FAF4FB1E03ED001
:1010FE00B4E03CD0670F781F891F9A1FA11D680F9F
:10110E00791F8A1F911DA11D6A0F711D811D911DD1
:10111E00A11D20D009F468943F912AE0269F112446
:10112E003019305D3193DEF6CF010895462F4770AA
:10113E00405D4193B3E00FD0C9F7F6CF462F4F7005
:10114E00405D4A3318F0495D31FD4052419302D063
:10115E00A9F7EACFB4E0A695979587957795679509
:10116E00BA95C9F700976105710508959B01AC0109
:10117E000A2E06945795479537952795BA95C9F730
:0C118E00620F731F841F951FA01D0895A1
:10119A00CF93DF93CDB7DEB7AC970FB6F894DEBF27
:1011AA000FBECDBF87E690E00E94ED0C0E94CA0AEE
:1011BA0082E390E00E94130C88EC91E0A0E0AF93E8
:1011CA009F938F930E94D60CCE0101960E94030B27
:1011DA000F2EFDEC8F2EFCEC9F2EFCE4AF2EFDE3D0
:1011EA00BF2EF02DC12CD12C76019701860140E04B
:1011FA0050E060E271E4CE0101960E94350B0F9037
:10120A000F900F900E94330C892BE1F30E94610B1F
:10121A000E94CE0B9F938F937F936F938FED91E0F4
:10122A00A0E0AF939F938F930E94D60C0FB6F894C9
:08123A00DEBF0FBECDBFE6CF01
:101242001F920F920FB60F9211242F933F934F9339
:101252005F936F937F938F939F93AF93BF93EF931C
:10126200FF9384E090E00E940F0D892BA1F0809102
:10127200160190911701A0911801B09119010196E0
:10128200A11DB11D8093160190931701A09318011F
:10129200B093190113C08091160190911701A0918A
:1012A2001801B09119010197A109B10980931601A2
:1012B20090931701A0931801B0931901FF91EF9138
:1012C200BF91AF919F918F917F916F915F914F915C
:0E12D2003F912F910F900FBE0F901F90189517
:1012E0001F920F920FB60F9211242F933F934F939B
:1012F0005F936F937F938F939F93AF93BF93EF937E
:10130000FF9387E090E00E940F0D892BA1F0809160
:10131000120190911301A0911401B0911501019651
:10132000A11DB11D8093120190931301A09314018C
:10133000B093150113C08091120190911301A091F7
:101340001401B09115010197A109B109809312010F
:1013500090931301A0931401B0931501FF91EF91A5
:10136000BF91AF919F918F917F916F915F914F91BD
:0E1370003F912F910F900FBE0F901F90189578
:10137E000F931F93CF93DF93009731F4611571058F
:10138E0019F480E090E03BC08B01EC016FE070E05F
:10139E0081E090E00E946D0CFC01892B91F380E8B6
:1013AE0084830115110569F01487038781E884830E
:1013BE00A2E0B1E08D919C911197892B11F4ED93E0
:1013CE00FC932097D9F0D287C18784818260848371
:1013DE00A2E0B1E012968D919C911397892B71F436
:1013EE001396FC93EE93129714968D919C911597EC
:1013FE00892B21F41596FC93EE931497CF01DF9170
:08140E00CF911F910F91089589
:101416001F920F920FB60F9211244F935F936F9303
:101426007F938F939F93AF93BF9380912201909167
:101436002301A0912401B09125010196A11DB11DA2
:101446008093220190932301A0932401B093250158
:101456008091000190910101A0E0B0E0409122014D
:101466005091230160912401709125014817590775
:101476006A077B0730F081E090E090932F0180931C
:101486002E01BF91AF919F918F917F916F915F9147
:0C1496004F910F900FBE0F901F90189503
:1014A200E89409C097FB3EF49095809570956195FC
:1014B2007F4F8F4F9F4F9923A9F0F92F96E9BB27B2
:1014C2009395F695879577956795B795F111F8CF2E
:1014D200FAF4BB0F11F460FF1BC06F5F7F4F8F4F99
:1014E2009F4F16C0882311F096E911C0772321F08F
:1014F2009EE8872F762F05C0662371F096E8862F27
:1015020070E060E02AF09A95660F771F881FDAF77D
:0A151200880F9695879597F90895C4
:10151C000F931F93CF93DF93FB01248121FD03C015
:10152C008FEF9FEF2CC022FF16C04781508525817D
:10153C0036814217530744F4A081B1819D012F5F7E
:10154C003F4F318320838C93278130852F5F3F4F12
:10155C003087278314C08B01EC01FB010184F285D9
:10156C00E02D0995892BE1F6D80117968D919C9168
:10157C001897019618969C938E931797CE01DF912E
:08158C00CF911F910F9108950A
:10159400CF93DF931F92CDB7DEB70E94BF0C8FB7F6
:1015A4008983F89481E00DC00E94AB0B70932D01E8
:1015B40060932C010E94880B70932B0160932A0185
:1015C40080E08111F1CFCE010196A0E8FC01849165
:1015D400A7FD80818FBFF89484E08093890081EE19
:1015E40080938800E1E8F0E080818C608083EFE6FE
:1015F400F0E080818260808378940F90DF91CF91B6
:02160400089547
:10160600FC01148A158A168A178A108E118E128E7C
:10161600138E10A211A212A213A21082118212829C
:1016260013821482158216821782108611861286FC
:1016360013861486158616861786108A118A128ACC
:10164600138A80E090E0A8ECB2E484A395A3A6A355
:10165600B7A380E090E0A8ECB2EC80A791A7A2A780
:04166600B3A7089589
:10166A008F929F92AF92BF92CF92DF92EF92FF92A8
:10167A000F931F93CF93DF93CDB7DEB7FC01448B53
:10168A00558B668B778B008F118F228F338FC48E89
:10169A00D58EE68EF78E80A291A2A2A2B3A2DF9186
:1016AA00CF911F910F91FF90EF90DF90CF90BF9055
:0816BA00AF909F908F900895FE
:1016C200CF93DF931F92CDB7DEB78FB78983F8949C
:1016D20081E00FC010922201109223011092240186
:1016E200109225011092B20010922F0110922E0139
:1016F20080E08111EFCFCE010196A0E8FC01849138
:0E170200A7FD80818FBF0F90DF91CF910895DA
:10171000CF93DF931F92CDB7DEB78FB78983F8944D
:1017200081E009C0409116015091170160911801A4
:101730007091190180E08111F5CFCE010196A0E8EA
:10174000FC018491A7FD80818FBFCB01BA010F906E
:06175000DF91CF91089526
:10175600CF93DF931F92CDB7DEB78FB78983F89407
:1017660081E009C04091120150911301609114016A
:101776007091150180E08111F5CFCE010196A0E8A8
:10178600FC018491A7FD80818FBFCB01BA010F9028
:06179600DF91CF910895E0
:10179C00CF93DF931F92CDB7DEB78FB78983F894C1
:1017AC0081E009C040911E0150911F016091200100
:1017BC007091210180E08111F5CFCE010196A0E856
:1017CC00FC018491A7FD80818FBFCB01BA010F90E2
:0617DC00DF91CF9108959A
:1017E20057FD9058440F551F59F05F3F71F04795D0
:1017F200880F97FB991F61F09F3F79F087950895B5
:10180200121613061406551FF2CF4695F1DF08C0D3
:10181200161617061806991FF1CF869571056105F0
:041822000894089589
:10182600F89410922F0110922E019093010180934B
:101836000001E1EBF0E010821092B20089EF809394
:10184600B300A0EBB0E08C9186608C9380818460BD
:101856008083E0E7F0E08081826080837894089559
:10186600CF93DF931F92CDB7DEB78FB78983F894F6
:1018760091E005C020912E0130912F0190E0911149
:10188600F9CFCE010196A0E8FC018491A7FD8081E5
:0C1896008FBFC9010F90DF91CF91089522
:1018A2002F923F924F925F926F927F928F929F926E
:1018B200AF92BF92CF92DF92EF92FF920F931F935C
:1018C200CF93DF93CDB7DEB7CA1BDB0B0FB6F8940D
:0818D200DEBF0FBECDBF09947B
:1018DA000F931F93CF93DF93869F8001879F100DED
:1018EA00969F100D1124C8010E949804EC010097DC
:1018FA0029F0A80160E070E00E94480DCE01DF9156
:08190A00CF911F910F91089588
:101912002A88398848885F846E847D848C849B847D
:10192200AA84B984C884DF80EE80FD800C811B818B
:10193200AA81B981CE0FD11D0FB6F894DEBF0FBEBA
:06194200CDBFED01089588
:10194800CF92DF92EF926B01E82EA82FCB014115C1
:10195800510531F48C199D09EF90DF90CF900895CF
:10196800FC012491A7FD20812223A1F30196A11D4A
:0619780041505109ECCFC3
:10197E00F8948AB18B7F8AB98BB184608BB98AB1A6
:10198E00877F8AB98BB188608BB9E9E6F0E08081F8
:0E199E008F6080838DB383608DBB7894089535
:1019AC00A0E0B0E0ECEDFCE00C94610C9E012B5F30
:1019BC003F4FF9014191519161919F018091040137
:0E19CC00909105010E94F600E2E00C94990C47
:1019DA009093C5008093C40088E18093C1008EE093
:1019EA008093C20065E27DE08EE19DE00E94BF091E
:0219FA0008954E
:1019FC00092E0394000C11F4882352F0BB0F40F411
:101A0C00BF2B11F460FF04C06F5F7F4F8F4F9F4F50
:021A1C0008952B
:101A1E0029B130E002C0359527958A95E2F7C901C4
:0E1A2E008170992720FF02C081E090E00895AA
:0E1A3C009091C00095FFFCCF8093C6000895E6
:0E1A4A008091C0008823E4F78091C6000895C3
:0E1A58005058BB27AA270E9408080C94FE0CC9
:0E1A660000240A94161617061806090608959D
:0E1A740000240A94121613061406050608959F
:0E1A8200E894BB2766277727CB0197F90895D4
:0E1A9000DC0101C06D9341505040E0F7089515
:0C1A9E0097F99F6780E870E060E0089511
:081AAA000E942F070C94FE0CB2
:081AB2000E949E070C94FE0C3B
:061ABA009FEF80EC08958F
:041AC0000C94000082
:061AC400000030012000CB
:00000001FF
