:100000000C94BA000C944D090C949C090C944F0D5F
:100010000C944F0D0C944F0D0C944F0D0C944F0DF0
:100020000C944F0D0C944F0D0C944F0D0C94AB068B
:100030000C944F0D0C944F0D0C944F0D0C944F0DD0
:100040000C944F0D0C944F0D0C944F0D0C944F0DC0
:100050000C944F0D0C944F0D0C944F0D0C944F0DB0
:100060000C944F0D0C944F0D0100010A80010A0100
:1000700010001AA20110012C800000407A10F35ADF
:1000800000A0724E18090010A5D4E80000E87648D8
:10009000170000E40B54020000CA9A3B000000E184
:1000A000F505000080969800000040420F00000017
:1000B000A08601000000102700000000E8030000F7
:1000C00000006400000000000A00000000000100C1
:1000D000000000002C76D888DC674F0823DFC1DFE2
:1000E000AE59E1B1B796E5E3E453C63AE6519976E5
:1000F00096E8E6C28426EB898C9B62ED407C6FFC1F
:10010000EFBC9C9F40F2BAA56FA5F490055A2AF760
:100110005C936B6CF9676DC11BFCE0E40D47FEF569
:1001200020E6B500D0ED902E0300943577050080D1
:10013000841E080000204E0A000000C80C33333330
:10014000330F986E12831141EF8D2114893BE655D0
:1001500016CFFEE6DB18D1844B381BF77C1D901DB3
:10016000A4BBE424203284725E228100C9F124EC15
:10017000A1E53D2711241FBECFEFD8E0DEBFCDBFE4
:10018000E8E6F0E040E017C0B591A59135912591E2
:10019000059107FD0CC095918591EF01F92FE82F8E
:1001A00005900D92A217B307D9F7FE0104C01D9266
:1001B000A217B307E1F7E937F40731F70E94C50B3F
:0801C0000C94E200F894FFCF5B
:1001C8007261645F7065725F733D2566207C207381
:1001D8006D6F6F746865643D2566207C2074696363
:1001E8006B733D2564207C20707265765F7469634B
:0801F8006B733D25640A0D0044
:100200005374617274696E67206170706C696361A8
:0702100074696F6E0A0D0016
:08021700696E66006E616E0065
:10022000A4E1B0E0E6E1F1E00C94E10B6C011A010D
:10023000462E5901FC0110861782848181FF62C31A
:10024000CE0101969D878C87A0E88A8B9B8BAC8B17
:10025000F101849147FC8081882309F44FC3442D28
:1002600091012F5F3F4F4F4F853219F01901442EF6
:100270000AC0F901849147FD808192E0290E311C6A
:10028000411C853249F4B60190E00E94740ABF8691
:10029000AE86AE84BF84DCCF10E0F12C00E00032EB
:1002A000A0F48B3269F030F4803259F0833269F473
:1002B00000612CC08D3239F0803339F4016026C0E2
:1002C0000260046023C0086021C007FD29C090EDD2
:1002D000980F9A3078F406FF06C0AAE01A9F900D96
:1002E0001124192F13C0EAE0FE9E900D1124F92E5F
:1002F00000620CC08E3221F406FD00C3006406C00B
:100300008C3611F4006802C0883651F4F1018491F2
:1003100047FC8081FFEF2F1A3F0A4F0A8111BFCFA0
:100320009BEB980F933018F40061805E06C09BE948
:10033000980F933008F066C10F7E06FF16E00F732A
:10034000702E853621F4202F2064722E08C0863648
:1003500021F4802F8068782E02C01111115077FE91
:1003600007C01C3350F4EE24E394E10E27E00BC0E9
:10037000183038F027E017E005C027E06CE3E62EE0
:1003800002C0212FE12CF5013496FF87EE87F5019D
:1003900060817181828193810E2DAE014F5F5F4F2D
:1003A0000E94D3055C01598050FE02C053FE06C076
:1003B00071FC06C072FE06C000E205C00DE203C07B
:1003C0000BE201C000E0852D8C7019F0011173C2A1
:1003D000BEC277FE0FC0EA0C54FE04C08A8181338E
:1003E00009F4EA941E1474F528E02E1578F538E027
:1003F000E32E2CC076FC2AC0812F90E08A159B0545
:100400009CF08CEFA8168FEFB80674F0972D9068CB
:10041000792E0AC0E2E0F0E0EC0FFD1FE10FF11DC4
:100420008081803319F411501111F4CF77FE0EC082
:10043000EE24E394E10E812F90E0A816B9062CF487
:100440001A1904C0EE24E39401C010E077FE06C040
:100450001A141B0434F4C501019605C085E090E030
:1004600002C081E090E001110196112331F0212FAB
:1004700030E02F5F3F4F820F931F2F2D30E0821708
:10048000930714F4F81A01C0F12C872D897049F4F0
:10049000FF2039F0B60180E290E00E94740AFA94DD
:1004A000F7CF002329F0B601802F90E00E94740A54
:1004B00073FC09C0FF2039F0B60180E390E00E9490
:1004C000740AFA94F7CF77FE49C03501B7FE02C02F
:1004D000612C712CC5018619970988248394912C6D
:1004E0008C0E9D1E880E991EF501EE19F109F98BEF
:1004F000E88B012F10E0119501951109FFEF6F16A0
:100500007F0629F4B6018EE290E00E94740AA614D8
:10051000B70444F088899989861597051CF4F4017D
:10052000818101C080E3F1E06F1A71082FEF821A18
:10053000920A601671062CF0B60190E00E94740ACF
:10054000DDCFA614B70439F49A81963318F49533A5
:1005500011F454FE81E3B60190E051C08A818133E9
:1005600019F0952D9F7E592EB60190E00E94740AD5
:10057000111105C074FC1CC085E690E01BC0B601DB
:100580008EE290E00E94740A02E0010F82E011E026
:10059000180FE1E0F0E0EC0FFD1FE80FF11D808186
:1005A000B60190E00E94740A812F1013F0CFE2CFC1
:1005B00085E490E0B6010E94740AB7FC05C0A1145E
:1005C000B10439F454FE05C0B194A194B1088DE290
:1005D00001C08BE2B60190E00E94740A80E3EAE079
:1005E000AE16B1042CF08F5FAAE0AA1AB108F7CFBB
:1005F000B60190E00E94740AB601C501C0960E943F
:10060000740A72C1833631F0833791F0833509F073
:100610005DC024C0C50102969F878E87F501808149
:1006200089836A887B888C88AA24A394B12C14C0FF
:10063000C50103969F878E87F50160807180828057
:1006400006FF03C0412F50E002C04FEF5FEF882D3F
:10065000B3010E94340C5C010F7715C0C5010396ED
:100660009F878E87F50160807180828006FF03C0BE
:10067000412F50E002C04FEF5FEF882DB3010E9481
:10068000340C5C01006803FD1DC08F2D90E0A8169E
:10069000B906C0F4B60180E290E00E94740AFA94B0
:1006A000F4CFF301849187FC8081FFEF6F1A7F0AFA
:1006B0008F0AB60190E00E94740AF110FA9421E0CA
:1006C000A21AB108A114B10461F70EC1843611F069
:1006D000893679F5C50107FF09C004969F878E8783
:1006E000F50160817181828193810AC002969F87A2
:1006F0008E87F50160817181072E000C880B990BA4
:100700000F76E02E97FF0AC09095809570956195C1
:100710007F4F8F4F9F4FF02FF068EF2E2AE030E091
:10072000AE014F5F5F4F0E949308A82E2C85A21A3E
:100730004BC0853729F40F7EE02E2AE030E025C03B
:10074000902F997FE92E8F36C1F018F4883579F013
:10075000D5C0803719F0883721F0D0C0A92FA0610B
:10076000EA2EE4FE0DC0EE2DE460EE2E09C004FF7B
:100770000AC0F92FF660EF2E06C028E030E005C071
:1007800020E130E002C020E132E0C501E7FE09C00F
:1007900004969F878E87F5016081718182819381A4
:1007A00008C002969F878E87F5016081718180E085
:1007B00090E0AE014F5F5F4F0E949308A82EFC852A
:1007C000AF1A2E2D2F77E22EE6FE0BC00E2D0E7FD8
:1007D000A11650F4E4FE0AC0E2FC08C00E2D0E7E05
:1007E00005C0BA2C0E2D03C0BA2C01C0B12E04FFD7
:1007F0000DC0FE01EA0DF11D8081803311F4097EE8
:1008000009C002FF06C0B394B39404C0802F867859
:1008100009F0B39403FD11C000FF06C0BF1488F4B3
:10082000FA0C1F2D1B190EC0BF1460F4B60180E234
:1008300090E00E94740AB394F7CFBF1418F4FB1829
:1008400002C01A2DF12C04FF10C0B60180E390E025
:100850000E94740A02FF17C001FD03C088E790E000
:1008600002C088E590E0B6010CC0802F867859F070
:1008700001FF02C08BE201C080E207FD8DE2B601FC
:1008800090E00E94740AA11638F4B60180E390E06B
:100890000E94740A1150F7CFAA94E1E0F0E0EC0F47
:1008A000FD1FEA0DF11D8081B60190E00E94740ADF
:1008B000A110F2CF19C0F4E0FF1580F584E0F81A1A
:1008C00073FE23C001112BC053FE2FC05BE1852EA8
:1008D00052E0952E50E0A52E072D0071F401849171
:1008E000A7FC8081811128C0FF2009F4D2CCB60179
:1008F00080E290E00E94740AFA94F6CFF6018781B4
:1009000090852CC08FEF9FEF29C0B60180E290E068
:100910000E94740AFA94F110F8CFD4CFF12CB601EA
:10092000802F90E00E94740ACFCF47E1842E42E0EE
:10093000942E40E0A42ED0CF01118052B60190E059
:100940000E94740AFFEF8F1A9F0AAF0AC7CF23E0F5
:100950002F1510F483E0B3CFF12CB6CF6496E2E10B
:040960000C94190CCE
:100964000F931F93CF93DF938230910510F482E0AD
:1009740090E0E0910801F091090120E030E0A0E06E
:10098400B0E0309719F140815181028113814817F9
:100994005907C8F08417950769F4109731F0129637
:1009A4000C93129713961C9327C00093080110937D
:1009B400090122C02115310519F04217530718F413
:1009C4009A01BD01EF01DF01F801DBCF21153105EB
:1009D400F9F0281B390B2430310580F48A819B817E
:1009E4006115710521F0FB019383828304C0909308
:1009F400090180930801FE01329644C0FE01E20F12
:100A0400F31F8193919322503109398328833AC08B
:100A14002091060130910701232B41F420910C0110
:100A240030910D01309307012093060120910A01B2
:100A340030910B012115310541F42DB73EB740919A
:100A44000E0150910F01241B350BE0910601F0912A
:100A54000701E217F307A0F42E1B3F0B28173907F1
:100A640078F0AC014E5F5F4F2417350748F04E0F06
:100A74005F1F50930701409306018193919302C035
:100A8400E0E0F0E0CF01DF91CF911F910F91089545
:100A9400CF93DF93009709F481C0FC01329713824E
:100AA4001282A0910801B0910901109781F420816C
:100AB4003181820F931F209106013091070128177D
:100AC400390751F5F0930701E093060167C0ED0182
:100AD40020E030E0CE17DF0740F44A815B819E01BD
:100AE40041155105F1F0EA01F5CFD383C28340816A
:100AF4005181840F951FC817D90759F488819981AA
:100B0400840F951F0296918380838A819B819383AE
:100B140082832115310529F4F0930901E09308013A
:100B24003DC0E901FB83EA8349915991C40FD51F64
:100B3400EC17FD0761F480819181840F951F029663
:100B4400E90199838883828193819B838A83E0E08E
:100B5400F0E012968D919C911397009719F0FD0186
:100B6400DC01F7CF8D919C9111979D012E5F3F4F32
:100B7400820F931F2091060130910701281739072E
:100B840069F4309729F4109209011092080102C007
:100B940013821282B0930701A0930601DF91CF91D3
:020BA4000895B2
:100BA600283008F027E03327DA01990F311D87FD39
:100BB600916000966105710539F432602E5F3D93B0
:100BC60030E32A95E1F708959F3F30F080387105AC
:100BD600610509F03C5F3C5F3D93913008F0806809
:100BE600911DDF93CF931F930F93FF92EF92192FCF
:100BF600987F9695E92F96959695E90FFF27EC52E3
:100C0600FF4F99273327EE24FF24A701E70105901C
:100C16000894079428F4360FE71EF81E491F511D45
:100C2600660F771F881F991F0694A1F705900794F2
:100C360028F4E70EF81E491F561FC11D770F881F9F
:100C4600991F661F0694A1F70590079428F4F80EDD
:100C5600491F561FC71FD11D880F991F661F771F73
:100C66000694A1F70590079420F4490F561FC71F55
:100C7600D81F990F661F771F881F0694A9F78491BE
:100C86001095177041F0D695C79557954795F794E7
:100C9600E7941A95C1F7EAE7F0E068941590159184
:100CA60035916591959105907FE27395E118F10A6A
:100CB600430B560BC90BD009C0F7E10CF11E431FBD
:100CC600561FC91FD01D7EF4703311F48A95E6CFE6
:100CD600E894015030F0080F0AF40027021708F4D0
:100CE600202F2395022F7A3328F079E37D932A95D6
:100CF600E9F710C07D932A9589F60694979567952E
:100D0600379517951794E118F10A430B560BC90B43
:100D1600D00998F023957E9173957A3308F070E3A5
:100D26007C932013B8F77E9170617D9330F08395A4
:100D360071E37D9370E32A95E1F71124EF90FF901C
:100D46000F911F91CF91DF91992787FD9095089577
:100D56001F920F920FB60F9211248F929F92AF920D
:100D6600BF92CF92DF92EF92FF922F933F934F93D2
:100D76005F936F937F938F939F93AF93BF93EF93FD
:100D8600FF9380912A0190912B01909327018093E4
:100D960026010E945F0B70932B0160932A018091BC
:100DA60028019091290190932501809324010E94A6
:100DB6003C0B7093290160932801C0902001D090CC
:100DC6002101E0902201F0902301C0921C01D092F3
:100DD6001D01E0921E01F0921F01072E000C880BE8
:100DE600990B0E94390A4B015C01609124017091B4
:100DF6002501072E000C880B990B0E94390A9B01CE
:100E0600AC01C501B4010E94160D2BED3FE049EC83
:100E160050E40E94480D20E030E048E851E40E948A
:100E2600440D6093200170932101809322019093D9
:100E3600230120E030E040E05FE30E94480D4B01D3
:100E46005C0120E030E040E05FE3C701B6010E94AC
:100E5600480D9B01AC01C501B4010E94170D6093BA
:100E660018017093190180931A0190931B01FF9149
:100E7600EF91BF91AF919F918F917F916F915F910C
:100E86004F913F912F91FF90EF90DF90CF90BF90C1
:100E9600AF909F908F900F900FBE0F901F90189558
:100EA60010C00E94240D58F00E941D0D40F029F438
:100EB6005F3F29F00C94390D51110C942C0D0C94B4
:100EC6004C0D0E94820B68F39923B1F3552391F3DD
:100ED600951B550BBB27AA2762177307840738F0A3
:100EE6009F5F5F4F220F331F441FAA1FA9F335D000
:100EF6000E2E3AF0E0E832D091505040E695001CB4
:100F0600CAF72BD0FE2F29D0660F771F881FBB1F6D
:100F1600261737074807AB07B0E809F0BB0B802D4B
:100F2600BF01FF2793585F4F3AF09E3F510578F077
:100F36000C94390D0C942C0D5F3FE4F3983ED4F3DA
:100F4600869577956795B795F7959F5FC9F7880F4B
:100F5600911D9695879597F90895E1E0660F771F9D
:100F6600881FBB1F621773078407BA0720F0621B2E
:0E0F7600730B840BBA0BEE1F88F7E0950895FD
:100F84000FC00E941D0D38F00E94240D20F09523FF
:100F940011F00C94390D0C944C0D11240C942C0D5F
:100FA4000E94820B70F3959FC1F3950F50E0551F7B
:100FB400629FF001729FBB27F00DB11D639FAA27AA
:100FC400F00DB11DAA1F649F6627B00DA11D661FF9
:100FD400829F2227B00DA11D621F739FB00DA11D1A
:100FE400621F839FA00D611D221F749F3327A00DD4
:100FF400611D231F849F600D211D822F762F6A2F70
:1010040011249F5750409AF0F1F088234AF0EE0FD4
:10101400FF1FBB1F661F771F881F91505040A9F701
:101024009E3F510580F00C94390D0C942C0D5F3FBC
:10103400E4F3983ED4F3869577956795B795F7953D
:10104400E7959F5FC1F7FE2B880F911D96958795B5
:0410540097F908956B
:1010580011C00E941D0D38F00E94240D20F039F4B3
:101068009F3F19F426F40C944C0D0EF4E095E7FB21
:101078000C94390DE92F0E94820B58F3BA176207B6
:1010880073078407950720F079F4A6F50C942B0DC7
:101098000EF4E0950B2EBA2FA02D0B01B90190018B
:1010A8000C01CA01A0011124FF27591B99F0593FCF
:1010B80050F4503E68F11A16F040A22F232F342F17
:1010C8004427585FF3CF469537952795A795F04065
:1010D8005395C9F77EF41F16BA0B620B730B840B7A
:1010E800BAF09150A1F0FF0FBB1F661F771F881F32
:1010F800C2F70EC0BA0F621F731F841F48F487958A
:1011080077956795B795F7959E3F08F0B0CF93957B
:0E111800880F08F09927EE0F97958795089598
:10112600FA01AA27283051F1203181F1E8946F9312
:101136006E7F6E5F7F4F8F4F9F4FAF4FB1E03ED0B8
:10114600B4E03CD0670F781F891F9A1FA11D680F56
:10115600791F8A1F911DA11D6A0F711D811D911D89
:10116600A11D20D009F468943F912AE0269F1124FE
:101176003019305D3193DEF6CF010895462F477062
:10118600405D4193B3E00FD0C9F7F6CF462F4F70BD
:10119600405D4A3318F0495D31FD4052419302D01B
:1011A600A9F7EACFB4E0A6959795879577956795C1
:1011B600BA95C9F700976105710508959B01AC01C1
:1011C6000A2E06945795479537952795BA95C9F7E8
:0C11D600620F731F841F951FA01D089559
:1011E2006F927F928F92EF92FF920F931F93CF9302
:1011F200DF931F92CDB7DEB78FB78983F89481E072
:1012020019C0509128016091290170912401A09187
:1012120025019091200120912101309122014091DC
:101222002301E0901801F090190100911A01109128
:101232001B0180E08111E5CFFE01319680E8882E06
:10124200849187FC80818FBFAF937F936F935F936D
:101252001F930F93FF92EF924F933F932F939F937E
:1012620088EC91E0A0E0AF939F938F930E947E0C55
:101272000FB6F894DEBF0FBECDBF6E2D7F2D802F2F
:10128200912F0F90DF91CF911F910F91FF90EF90CF
:081292008F907F906F9008958A
:10129A001F920F920FB60F9211242F933F934F93E1
:1012AA005F936F937F938F939F93AF93BF93EF93C4
:1012BA00FF9384E090E00E94DD0C892BA1F08091DD
:1012CA00140190911501A0911601B0911701019690
:1012DA00A11DB11D8093140190931501A0931601CD
:1012EA00B093170113C08091140190911501A09138
:1012FA001601B09117010197A109B1098093140150
:10130A0090931501A0931601B0931701FF91EF91E5
:10131A00BF91AF919F918F917F916F915F914F9103
:0E132A003F912F910F900FBE0F901F901895BE
:101338001F920F920FB60F9211242F933F934F9342
:101348005F936F937F938F939F93AF93BF93EF9325
:10135800FF9387E090E00E94DD0C892BA1F080913B
:10136800100190911101A0911201B0911301019601
:10137800A11DB11D8093100190931101A09312013A
:10138800B093130113C08091100190911101A091A5
:101398001201B09113010197A109B10980931001BD
:1013A80090931101A0931201B0931301FF91EF9153
:1013B800BF91AF919F918F917F916F915F914F9165
:0E13C8003F912F910F900FBE0F901F90189520
:1013D6000F931F93CF93DF93009731F46115710537
:1013E60019F480E090E03BC08B01EC016FE070E007
:1013F60081E090E00E94FD0BFC01892B91F380E8CF
:1014060084830115110569F01487038781E88483B5
:10141600A0E0B1E08D919C911197892B11F4ED9389
:10142600FC932097D9F0D287C18784818260848318
:10143600A0E0B1E012968D919C911397892B71F4DF
:101446001396FC93EE93129714968D919C91159793
:10145600892B21F41596FC93EE931497CF01DF9117
:08146600CF911F910F91089531
:10146E00E89409C097FB3EF4909580957095619530
:10147E007F4F8F4F9F4F9923A9F0F92F96E9BB27E6
:10148E009395F695879577956795B795F111F8CF62
:10149E00FAF4BB0F11F460FF1BC06F5F7F4F8F4FCD
:1014AE009F4F16C0882311F096E911C0772321F0C3
:1014BE009EE8872F762F05C0662371F096E8862F5B
:1014CE0070E060E02AF09A95660F771F881FDAF7B2
:0A14DE00880F9695879597F90895F9
:1014E8000F931F93CF93DF93FB01248121FD03C04A
:1014F8008FEF9FEF2CC022FF16C0478150852581B2
:1015080036814217530744F4A081B1819D012F5FB2
:101518003F4F318320838C93278130852F5F3F4F46
:101528003087278314C08B01EC01FB010184F2850D
:10153800E02D0995892BE1F6D80117968D919C919C
:101548001897019618969C938E931797CE01DF9162
:08155800CF911F910F9108953E
:10156000CF93DF931F92CDB7DEB70E94670C8FB782
:101570008983F89481E00DC00E945F0B70932B016A
:1015800060932A010E943C0B70932901609328010B
:1015900080E08111F1CFCE010196A0E8FC01849199
:1015A000A7FD80818FBFF89484E08093890081EE4D
:1015B00080938800E1E8F0E080818C608083EFE632
:1015C000F0E080818260808378940F90DF91CF91EA
:0215D00008957C
:1015D2000E948A0B88F09F5798F0B92F9927B7512C
:1015E200B0F0E1F0660F771F881F991F1AF0BA95C5
:1015F200C9F714C0B13091F00E942B0DB1E00895EB
:101602000C942B0D672F782F8827B85F39F0B93FDC
:10161200CCF3869577956795B395D9F73EF4909577
:0E1622008095709561957F4F8F4F9F4F089573
:10163000990F0008550FAA0BE0E8FEEF16161706E3
:10164000E807F907C0F012161306E407F50798F04B
:10165000621B730B840B950B39F40A2661F0232B64
:10166000242B252B21F408950A2609F4A140A695E0
:081670008FEF811D811D08951B
:10167800CF93DF931F92CDB7DEB78FB78983F894E6
:1016880081E009C040911401509115016091160143
:101698007091170180E08111F5CFCE010196A0E885
:1016A800FC018491A7FD80818FBFCB01BA010F9007
:0616B800DF91CF910895BF
:1016BE00CF93DF931F92CDB7DEB78FB78983F894A0
:1016CE0081E009C040911001509111016091120109
:1016DE007091130180E08111F5CFCE010196A0E843
:1016EE00FC018491A7FD80818FBFCB01BA010F90C1
:0616FE00DF91CF91089579
:1017040057FD9058440F551F59F05F3F71F04795AE
:10171400880F97FB991F61F09F3F79F08795089593
:10172400121613061406551FF2CF4695F1DF08C0B2
:10173400161617061806991FF1CF869571056105CF
:041744000894089568
:10174800CF92DF92EF92FF926B017C0120E030E0B4
:10175800A9010E943F0D88232CF480E090E00E94AC
:10176800CD0C04C081E090E00E94CD0CC701B60109
:101778000E944F0C0E94950CFF90EF90DF90CF9045
:021788000895C2
:10178A0087E690E00E94AB0C0E94EC0C0E94B00A23
:10179A0080E092E0A0E0AF939F938F930E947E0C2B
:1017AA0060E070E088EC92E40E94A40B0F900F9026
:0817BA000F900E94F108FDCF21
:1017C2002F923F924F925F926F927F928F929F924F
:1017D200AF92BF92CF92DF92EF92FF920F931F933D
:1017E200CF93DF93CDB7DEB7CA1BDB0B0FB6F894EE
:0817F200DEBF0FBECDBF09945C
:1017FA000F931F93CF93DF93869F8001879F100DCE
:10180A00969F100D1124C8010E94B204EC010097A2
:10181A0029F0A80160E070E00E94320DCE01DF914C
:08182A00CF911F910F91089569
:101832002A88398848885F846E847D848C849B845E
:10184200AA84B984C884DF80EE80FD800C811B816C
:10185200AA81B981CE0FD11D0FB6F894DEBF0FBE9B
:06186200CDBFED01089569
:10186800CF92DF92EF926B01E82EA82FCB014115A2
:10187800510531F48C199D09EF90DF90CF900895B0
:10188800FC012491A7FD20812223A1F30196A11D2B
:0618980041505109ECCFA4
:10189E00CF92DF92EF92FF926B017C0120E030E05D
:1018AE00A9010E943F0D882324F4C701B601905868
:1018BE0002C0C701B601FF90EF90DF90CF90089560
:1018CE00F8948AB18B7F8AB98BB184608BB98AB157
:1018DE00877F8AB98BB188608BB9E9E6F0E08081A9
:0E18EE008F6080838DB383608DBB78940895E6
:1018FC00A0E0B0E0E4E8FCE00C94F10B9E012B5F5F
:10190C003F4FF9014191519161919F0180910201E9
:0E191C00909103010E941001E2E00C94290C4E
:10192A0020E030E048EC52E40E94440D20E030E030
:10193A0040EF52E40E94480D20E030E047E053E4D3
:0C194A000E94170D0E94E90A67BD089575
:101956009093C5008093C40088E18093C1008EE017
:101966008093C2006FE07DE088E09DE00E94EB0975
:021976000895D2
:10197800092E0394000C11F4882352F0BB0F40F495
:10198800BF2B11F460FF04C06F5F7F4F8F4F9F4FD5
:021998000895B0
:10199A00019739F488B1816088B988B18D7F88B997
:1019AA00089588B18E7F88B988B1826088B9089510
:1019BA0029B130E002C0359527958A95E2F7C90129
:0E19CA008170992720FF02C081E090E008950F
:1019D8000E94FB0C87B1816087B987B1826087B9A3
:0E19E80087B1846087B987B1806187B908959F
:1019F6008AB180648AB98AB180628AB984B5816AFB
:0A1A060084BD85B5816085BD08959B
:0E1A10009091C00095FFFCCF8093C600089512
:0E1A1E008091C0008823E4F78091C6000895EF
:0E1A2C005058BB27AA270E942C080C94BC0C13
:0E1A3A0000240A9416161706180609060895C9
:0E1A480000240A9412161306140605060895CB
:0E1A5600E894BB2766277727CB0197F9089500
:0E1A6400DC0101C06D9341505040E0F7089541
:0C1A720097F99F6780E870E060E008953D
:0A1A7E000E94180B08F481E008959F
:081A88000E9453070C94BC0CF2
:081A90000E94C2070C94BC0C7B
:061A98009FEF80EC0895B1
:041A9E000C940000A4
:061AA20000002C012000F1
:00000001FF
